{
  "contractName": "EIP20",
  "abi": [
    {
      "constant": true,
      "inputs": [],
      "name": "name",
      "outputs": [
        {
          "name": "",
          "type": "string"
        }
      ],
      "payable": false,
      "stateMutability": "view",
      "type": "function"
    },
    {
      "constant": true,
      "inputs": [],
      "name": "decimals",
      "outputs": [
        {
          "name": "",
          "type": "uint8"
        }
      ],
      "payable": false,
      "stateMutability": "view",
      "type": "function"
    },
    {
      "constant": true,
      "inputs": [],
      "name": "symbol",
      "outputs": [
        {
          "name": "",
          "type": "string"
        }
      ],
      "payable": false,
      "stateMutability": "view",
      "type": "function"
    },
    {
      "anonymous": false,
      "inputs": [
        {
          "indexed": false,
          "name": "_senderAddress",
          "type": "address"
        },
        {
          "indexed": false,
          "name": "_toAddress",
          "type": "address"
        },
        {
          "indexed": false,
          "name": "_amount",
          "type": "uint256"
        }
      ],
      "name": "IssuedNewTokens",
      "type": "event"
    },
    {
      "anonymous": false,
      "inputs": [
        {
          "indexed": true,
          "name": "from",
          "type": "address"
        },
        {
          "indexed": true,
          "name": "to",
          "type": "address"
        },
        {
          "indexed": false,
          "name": "value",
          "type": "uint256"
        }
      ],
      "name": "Transfer",
      "type": "event"
    },
    {
      "anonymous": false,
      "inputs": [
        {
          "indexed": true,
          "name": "owner",
          "type": "address"
        },
        {
          "indexed": true,
          "name": "spender",
          "type": "address"
        },
        {
          "indexed": false,
          "name": "value",
          "type": "uint256"
        }
      ],
      "name": "Approval",
      "type": "event"
    },
    {
      "constant": true,
      "inputs": [],
      "name": "totalSupply",
      "outputs": [
        {
          "name": "",
          "type": "uint256"
        }
      ],
      "payable": false,
      "stateMutability": "view",
      "type": "function"
    },
    {
      "constant": true,
      "inputs": [
        {
          "name": "_owner",
          "type": "address"
        }
      ],
      "name": "balanceOf",
      "outputs": [
        {
          "name": "",
          "type": "uint256"
        }
      ],
      "payable": false,
      "stateMutability": "view",
      "type": "function"
    },
    {
      "constant": true,
      "inputs": [
        {
          "name": "_owner",
          "type": "address"
        },
        {
          "name": "_spender",
          "type": "address"
        }
      ],
      "name": "allowance",
      "outputs": [
        {
          "name": "",
          "type": "uint256"
        }
      ],
      "payable": false,
      "stateMutability": "view",
      "type": "function"
    },
    {
      "constant": false,
      "inputs": [
        {
          "name": "_to",
          "type": "address"
        },
        {
          "name": "_value",
          "type": "uint256"
        }
      ],
      "name": "transfer",
      "outputs": [
        {
          "name": "",
          "type": "bool"
        }
      ],
      "payable": false,
      "stateMutability": "nonpayable",
      "type": "function"
    },
    {
      "constant": false,
      "inputs": [
        {
          "name": "_spender",
          "type": "address"
        },
        {
          "name": "_value",
          "type": "uint256"
        }
      ],
      "name": "approve",
      "outputs": [
        {
          "name": "",
          "type": "bool"
        }
      ],
      "payable": false,
      "stateMutability": "nonpayable",
      "type": "function"
    },
    {
      "constant": false,
      "inputs": [
        {
          "name": "_from",
          "type": "address"
        },
        {
          "name": "_to",
          "type": "address"
        },
        {
          "name": "_value",
          "type": "uint256"
        }
      ],
      "name": "transferFrom",
      "outputs": [
        {
          "name": "",
          "type": "bool"
        }
      ],
      "payable": false,
      "stateMutability": "nonpayable",
      "type": "function"
    },
    {
      "constant": false,
      "inputs": [
        {
          "name": "_senderAddress",
          "type": "address"
        },
        {
          "name": "_toAddress",
          "type": "address"
        },
        {
          "name": "_amount",
          "type": "uint256"
        }
      ],
      "name": "issueNewTokens",
      "outputs": [
        {
          "name": "",
          "type": "uint256"
        }
      ],
      "payable": false,
      "stateMutability": "nonpayable",
      "type": "function"
    }
  ],
  "bytecode": "0x6080604052600060025534801561001557600080fd5b50610d5a806100256000396000f3006080604052600436106100a4576000357c0100000000000000000000000000000000000000000000000000000000900463ffffffff16806306fdde03146100a9578063095ea7b31461013957806318160ddd1461019e57806323b872dd146101c9578063313ce5671461024e57806370a082311461027f57806395d89b41146102d6578063a9059cbb14610366578063bca82f97146103cb578063dd62ed3e1461044c575b600080fd5b3480156100b557600080fd5b506100be6104c3565b6040518080602001828103825283818151815260200191508051906020019080838360005b838110156100fe5780820151818401526020810190506100e3565b50505050905090810190601f16801561012b5780820380516001836020036101000a031916815260200191505b509250505060405180910390f35b34801561014557600080fd5b50610184600480360381019080803573ffffffffffffffffffffffffffffffffffffffff169060200190929190803590602001909291905050506104fc565b604051808215151515815260200191505060405180910390f35b3480156101aa57600080fd5b506101b361056d565b6040518082815260200191505060405180910390f35b3480156101d557600080fd5b50610234600480360381019080803573ffffffffffffffffffffffffffffffffffffffff169060200190929190803573ffffffffffffffffffffffffffffffffffffffff16906020019092919080359060200190929190505050610577565b604051808215151515815260200191505060405180910390f35b34801561025a57600080fd5b50610263610798565b604051808260ff1660ff16815260200191505060405180910390f35b34801561028b57600080fd5b506102c0600480360381019080803573ffffffffffffffffffffffffffffffffffffffff16906020019092919050505061079d565b6040518082815260200191505060405180910390f35b3480156102e257600080fd5b506102eb6107e5565b6040518080602001828103825283818151815260200191508051906020019080838360005b8381101561032b578082015181840152602081019050610310565b50505050905090810190601f1680156103585780820380516001836020036101000a031916815260200191505b509250505060405180910390f35b34801561037257600080fd5b506103b1600480360381019080803573ffffffffffffffffffffffffffffffffffffffff1690602001909291908035906020019092919050505061081e565b604051808215151515815260200191505060405180910390f35b3480156103d757600080fd5b50610436600480360381019080803573ffffffffffffffffffffffffffffffffffffffff169060200190929190803573ffffffffffffffffffffffffffffffffffffffff16906020019092919080359060200190929190505050610a3e565b6040518082815260200191505060405180910390f35b34801561045857600080fd5b506104ad600480360381019080803573ffffffffffffffffffffffffffffffffffffffff169060200190929190803573ffffffffffffffffffffffffffffffffffffffff169060200190929190505050610b31565b6040518082815260200191505060405180910390f35b6040805190810160405280601381526020017f4f6e6c696e65204d61726b657420506c6163650000000000000000000000000081525081565b60008273ffffffffffffffffffffffffffffffffffffffff163373ffffffffffffffffffffffffffffffffffffffff167f8c5be1e5ebec7d5bd14f71427d1e84f3dd0314c0f7b2291e5b200ac8c7c3b925846040518082815260200191505060405180910390a36001905092915050565b6000600254905090565b60008060008573ffffffffffffffffffffffffffffffffffffffff1673ffffffffffffffffffffffffffffffffffffffff1681526020019081526020016000205482111515156105c657600080fd5b600073ffffffffffffffffffffffffffffffffffffffff168373ffffffffffffffffffffffffffffffffffffffff161415151561060257600080fd5b610653826000808773ffffffffffffffffffffffffffffffffffffffff1673ffffffffffffffffffffffffffffffffffffffff16815260200190815260200160002054610bb890919063ffffffff16565b6000808673ffffffffffffffffffffffffffffffffffffffff1673ffffffffffffffffffffffffffffffffffffffff168152602001908152602001600020819055506106e6826000808673ffffffffffffffffffffffffffffffffffffffff1673ffffffffffffffffffffffffffffffffffffffff16815260200190815260200160002054610bd490919063ffffffff16565b6000808573ffffffffffffffffffffffffffffffffffffffff1673ffffffffffffffffffffffffffffffffffffffff168152602001908152602001600020819055508273ffffffffffffffffffffffffffffffffffffffff168473ffffffffffffffffffffffffffffffffffffffff167fddf252ad1be2c89b69c2b068fc378daa952ba7f163c4a11628f55a4df523b3ef846040518082815260200191505060405180910390a3600190509392505050565b600381565b60008060008373ffffffffffffffffffffffffffffffffffffffff1673ffffffffffffffffffffffffffffffffffffffff168152602001908152602001600020549050919050565b6040805190810160405280600381526020017f4f4d50000000000000000000000000000000000000000000000000000000000081525081565b60008060003373ffffffffffffffffffffffffffffffffffffffff1673ffffffffffffffffffffffffffffffffffffffff16815260200190815260200160002054821115151561086d57600080fd5b600073ffffffffffffffffffffffffffffffffffffffff168373ffffffffffffffffffffffffffffffffffffffff16141515156108a957600080fd5b6108fa826000803373ffffffffffffffffffffffffffffffffffffffff1673ffffffffffffffffffffffffffffffffffffffff16815260200190815260200160002054610bb890919063ffffffff16565b6000803373ffffffffffffffffffffffffffffffffffffffff1673ffffffffffffffffffffffffffffffffffffffff1681526020019081526020016000208190555061098d826000808673ffffffffffffffffffffffffffffffffffffffff1673ffffffffffffffffffffffffffffffffffffffff16815260200190815260200160002054610bd490919063ffffffff16565b6000808573ffffffffffffffffffffffffffffffffffffffff1673ffffffffffffffffffffffffffffffffffffffff168152602001908152602001600020819055508273ffffffffffffffffffffffffffffffffffffffff163373ffffffffffffffffffffffffffffffffffffffff167fddf252ad1be2c89b69c2b068fc378daa952ba7f163c4a11628f55a4df523b3ef846040518082815260200191505060405180910390a36001905092915050565b6000610a4a8383610bf0565b7f28304351f4cb68edab8682e94ff67c7f896c010f2b576db48f5503611d8ae6be848484604051808473ffffffffffffffffffffffffffffffffffffffff1673ffffffffffffffffffffffffffffffffffffffff1681526020018373ffffffffffffffffffffffffffffffffffffffff1673ffffffffffffffffffffffffffffffffffffffff168152602001828152602001935050505060405180910390a16000808473ffffffffffffffffffffffffffffffffffffffff1673ffffffffffffffffffffffffffffffffffffffff1681526020019081526020016000205490509392505050565b6000600160008473ffffffffffffffffffffffffffffffffffffffff1673ffffffffffffffffffffffffffffffffffffffff16815260200190815260200160002060008373ffffffffffffffffffffffffffffffffffffffff1673ffffffffffffffffffffffffffffffffffffffff16815260200190815260200160002054905092915050565b6000828211151515610bc957600080fd5b818303905092915050565b60008183019050828110151515610bea57600080fd5b92915050565b60008273ffffffffffffffffffffffffffffffffffffffff1614151515610c1657600080fd5b610c2b81600254610bd490919063ffffffff16565b600281905550610c82816000808573ffffffffffffffffffffffffffffffffffffffff1673ffffffffffffffffffffffffffffffffffffffff16815260200190815260200160002054610bd490919063ffffffff16565b6000808473ffffffffffffffffffffffffffffffffffffffff1673ffffffffffffffffffffffffffffffffffffffff168152602001908152602001600020819055508173ffffffffffffffffffffffffffffffffffffffff16600073ffffffffffffffffffffffffffffffffffffffff167fddf252ad1be2c89b69c2b068fc378daa952ba7f163c4a11628f55a4df523b3ef836040518082815260200191505060405180910390a350505600a165627a7a72305820e105f6b62054f5a91a90c46deca172e7bd9fc3ffe28b09d228206e0335dbb14a0029",
  "source": "pragma solidity ^0.4.22;\r\n\r\nimport \"./EIP20Interface.sol\";\r\nimport \"./library/SafeMath.sol\";\r\n\r\ncontract EIP20 is EIP20Interface {\r\n using SafeMath for uint256;\r\n\r\n string constant public name = \"Online Market Place\";\r\n string constant public symbol = \"OMP\";\r\n uint8 constant public decimals = 3;\r\n\r\n mapping (address => uint256) private balances;\r\n\r\n /**\r\n * Ideally this mapping of the mapping shall be used. However, in this contract, I don't see\r\n * a need yet.\r\n */\r\n mapping (address => mapping(address => uint256)) private allowed;\r\n\r\n/**\r\n* Initially the total supply will be zero. However, based on the store's loyalty\r\n* policy the store can issue a token, which will be valid across the market place.\r\n*/\r\n uint256 private totalSupply_ = 0;\r\n\r\nevent IssuedNewTokens(\r\n      address _senderAddress,\r\n      address _toAddress,\r\n      uint256 _amount );\r\n\r\n /**\r\n * @dev Total number of tokens in existence\r\n */\r\n function totalSupply() public view returns (uint256) {\r\n   return totalSupply_;\r\n }\r\n\r\n /**\r\n * @dev Gets the balance of the specified address.\r\n * @param _owner The address to query the the balance of.\r\n * @return An uint256 representing the amount owned by the passed address.\r\n */\r\n function balanceOf(address _owner) public view returns (uint256) {\r\n   return balances[_owner];\r\n }\r\n\r\n /**\r\n  * @dev Function to check the amount of tokens that an owner allowed to a spender.\r\n  * @param _owner address The address which owns the funds.\r\n  * @param _spender address The address which will spend the funds.\r\n  * @return A uint256 specifying the amount of tokens still available for the spender.\r\n  */\r\n function allowance(\r\n   address _owner,\r\n   address _spender\r\n  )\r\n   public\r\n   view\r\n   returns (uint256)\r\n {\r\n   return allowed[_owner][_spender];\r\n }\r\n\r\n /**\r\n * @dev Transfer token for a specified address\r\n * @param _to The address to transfer to.\r\n * @param _value The amount to be transferred.\r\n */\r\n function transfer(address _to, uint256 _value) public returns (bool) {\r\n   require(_value <= balances[msg.sender]);\r\n   require(_to != address(0));\r\n\r\n   balances[msg.sender] = balances[msg.sender].sub(_value);\r\n   balances[_to] = balances[_to].add(_value);\r\n   emit Transfer(msg.sender, _to, _value);\r\n   return true;\r\n }\r\n\r\n /**\r\n  * @dev Approve the passed address to spend the specified amount of tokens on behalf of msg.sender.\r\n  * TODO: Currently, I am not using the allowed mapping. Which means I am partially fullfilling the\r\n  *       ERC20 token standard.\r\n  *\r\n  * @param _spender The address which will spend the funds.\r\n  * @param _value The amount of tokens to be spent.\r\n  */\r\n function approve(address _spender, uint256 _value) public returns (bool) {\r\n   // allowed[msg.sender][_spender] = _value;\r\n   emit Approval(msg.sender, _spender, _value);\r\n   return true;\r\n }\r\n\r\n /**\r\n  * @dev Transfer tokens from one address to another\r\n  * @param _from address The address which you want to send tokens from\r\n  * @param _to address The address which you want to transfer to\r\n  * @param _value uint256 the amount of tokens to be transferred\r\n  */\r\n function transferFrom(\r\n   address _from,\r\n   address _to,\r\n   uint256 _value\r\n )\r\n   public\r\n   returns (bool)\r\n {\r\n   require(_value <= balances[_from]);\r\n   // require(_value <= allowed[_from][msg.sender]);\r\n   require(_to != address(0));\r\n\r\n   balances[_from] = balances[_from].sub(_value);\r\n   balances[_to] = balances[_to].add(_value);\r\n   // allowed[_from][msg.sender] = allowed[_from][msg.sender].sub(_value);\r\n   emit Transfer(_from, _to, _value);\r\n   return true;\r\n }\r\n\r\n /**\r\n * @dev this function will issue new tokens to the to address.\r\n * @param _senderAddress - the smart contract using this method should know that the sender is ultimately\r\n *      responsible for honoring all the tokens created in this system\r\n * @param _toAddress - this accont will be credited with certain tokens\r\n * @param _amount - the amount\r\n */\r\n function issueNewTokens(\r\n              address _senderAddress,\r\n              address _toAddress,\r\n              uint256 _amount ) public returns (uint256){\r\n\r\n    _mint(_toAddress, _amount);\r\n    emit IssuedNewTokens(_senderAddress, _toAddress, _amount);\r\n    return balances[_toAddress];\r\n }\r\n\r\n /**\r\n  *\r\n  * @dev Internal function that mints an amount of the token and assigns it to\r\n  * an account. This encapsulates the modification of balances such that the\r\n  * proper events are emitted.\r\n  * @param _account The account that will receive the created tokens.\r\n  * @param _amount The amount that will be created.\r\n  */\r\n function _mint(address _account, uint256 _amount) internal {\r\n   require(_account != 0);\r\n   totalSupply_ = totalSupply_.add(_amount);\r\n   balances[_account] = balances[_account].add(_amount);\r\n   emit Transfer(address(0), _account, _amount);\r\n }\r\n\r\n /**\r\n  * @dev Internal function that burns an amount of the token of a given\r\n  * account.\r\n  * @param _account The account whose tokens will be burnt.\r\n  * @param _amount The amount that will be burnt.\r\n  */\r\n function _burn(address _account, uint256 _amount) internal {\r\n   require(_account != 0);\r\n   require(_amount <= balances[_account]);\r\n\r\n   totalSupply_ = totalSupply_.sub(_amount);\r\n   balances[_account] = balances[_account].sub(_amount);\r\n   emit Transfer(_account, address(0), _amount);\r\n }\r\n\r\n}\r\n",
  "sourcePath": "C:\\xampp\\htdocs\\angular-truffle-onlineMkt\\contracts\\EIP20.sol",
  "compiler": {
    "name": "solc",
    "version": "0.4.24+commit.e67f0147.Emscripten.clang"
  },
  "schemaVersion": "2.0.1",
  "updatedAt": "2018-08-25T11:54:52.707Z"
}