{
  "contractName": "MarketPlace",
  "abi": [
    {
      "constant": true,
      "inputs": [
        {
          "name": "",
          "type": "uint256"
        }
      ],
      "name": "adminUsers",
      "outputs": [
        {
          "name": "",
          "type": "address"
        }
      ],
      "payable": false,
      "stateMutability": "view",
      "type": "function"
    },
    {
      "constant": true,
      "inputs": [
        {
          "name": "",
          "type": "uint256"
        }
      ],
      "name": "storeOwners",
      "outputs": [
        {
          "name": "",
          "type": "address"
        }
      ],
      "payable": false,
      "stateMutability": "view",
      "type": "function"
    },
    {
      "constant": true,
      "inputs": [
        {
          "name": "",
          "type": "address"
        },
        {
          "name": "",
          "type": "uint256"
        }
      ],
      "name": "storeFrontMap",
      "outputs": [
        {
          "name": "",
          "type": "address"
        }
      ],
      "payable": false,
      "stateMutability": "view",
      "type": "function"
    },
    {
      "inputs": [],
      "payable": false,
      "stateMutability": "nonpayable",
      "type": "constructor"
    },
    {
      "anonymous": false,
      "inputs": [
        {
          "indexed": false,
          "name": "storeName",
          "type": "string"
        },
        {
          "indexed": false,
          "name": "storeDescription",
          "type": "string"
        },
        {
          "indexed": false,
          "name": "storeOwner",
          "type": "address"
        },
        {
          "indexed": false,
          "name": "storeAddress",
          "type": "address"
        }
      ],
      "name": "NewStore",
      "type": "event"
    },
    {
      "anonymous": false,
      "inputs": [
        {
          "indexed": false,
          "name": "currentStore",
          "type": "address"
        }
      ],
      "name": "AccessingStore",
      "type": "event"
    },
    {
      "constant": false,
      "inputs": [
        {
          "name": "newAdminUser",
          "type": "address"
        }
      ],
      "name": "createAdminUser",
      "outputs": [
        {
          "name": "",
          "type": "address"
        }
      ],
      "payable": false,
      "stateMutability": "nonpayable",
      "type": "function"
    },
    {
      "constant": true,
      "inputs": [],
      "name": "getAdminUsers",
      "outputs": [
        {
          "name": "",
          "type": "address[]"
        }
      ],
      "payable": false,
      "stateMutability": "view",
      "type": "function"
    },
    {
      "constant": true,
      "inputs": [
        {
          "name": "addressToVerify",
          "type": "address"
        }
      ],
      "name": "checkAccess",
      "outputs": [
        {
          "name": "",
          "type": "bool"
        },
        {
          "name": "",
          "type": "bool"
        },
        {
          "name": "",
          "type": "bool"
        }
      ],
      "payable": false,
      "stateMutability": "view",
      "type": "function"
    },
    {
      "constant": false,
      "inputs": [
        {
          "name": "newStoreOwnerAddress",
          "type": "address"
        }
      ],
      "name": "createStoreOwner",
      "outputs": [
        {
          "name": "",
          "type": "bool"
        }
      ],
      "payable": false,
      "stateMutability": "nonpayable",
      "type": "function"
    },
    {
      "constant": true,
      "inputs": [],
      "name": "getStoreOwners",
      "outputs": [
        {
          "name": "",
          "type": "address[]"
        }
      ],
      "payable": false,
      "stateMutability": "view",
      "type": "function"
    },
    {
      "constant": false,
      "inputs": [
        {
          "name": "storeName",
          "type": "string"
        },
        {
          "name": "storeDescription",
          "type": "string"
        }
      ],
      "name": "createStoreFront",
      "outputs": [
        {
          "name": "",
          "type": "address"
        }
      ],
      "payable": false,
      "stateMutability": "nonpayable",
      "type": "function"
    },
    {
      "constant": true,
      "inputs": [
        {
          "name": "storeOwnerAddress",
          "type": "address"
        }
      ],
      "name": "getStores",
      "outputs": [
        {
          "name": "",
          "type": "address[]"
        }
      ],
      "payable": false,
      "stateMutability": "view",
      "type": "function"
    },
    {
      "constant": false,
      "inputs": [
        {
          "name": "storeOwnerAddress",
          "type": "address"
        },
        {
          "name": "numberOfTokens",
          "type": "uint256"
        }
      ],
      "name": "allocateNewTokens",
      "outputs": [
        {
          "name": "",
          "type": "uint256"
        }
      ],
      "payable": false,
      "stateMutability": "nonpayable",
      "type": "function"
    },
    {
      "constant": true,
      "inputs": [
        {
          "name": "accountAddress",
          "type": "address"
        }
      ],
      "name": "getTokenBalance",
      "outputs": [
        {
          "name": "tokenBalance",
          "type": "uint256"
        }
      ],
      "payable": false,
      "stateMutability": "view",
      "type": "function"
    },
    {
      "constant": false,
      "inputs": [],
      "name": "closeMarketPlace",
      "outputs": [],
      "payable": false,
      "stateMutability": "nonpayable",
      "type": "function"
    }
  ],
  "bytecode": "0x60806040523480156200001157600080fd5b50336000806101000a81548173ffffffffffffffffffffffffffffffffffffffff021916908373ffffffffffffffffffffffffffffffffffffffff16021790555060013390806001815401808255809150509060018203906000526020600020016000909192909190916101000a81548173ffffffffffffffffffffffffffffffffffffffff021916908373ffffffffffffffffffffffffffffffffffffffff160217905550506001600381905550620000ca6200012e565b604051809103906000f080158015620000e7573d6000803e3d6000fd5b50600460006101000a81548173ffffffffffffffffffffffffffffffffffffffff021916908373ffffffffffffffffffffffffffffffffffffffff1602179055506200013f565b604051610d7f806200524683390190565b6150f7806200014f6000396000f300608060405260043610620000d3576000357c0100000000000000000000000000000000000000000000000000000000900463ffffffff1680631fa9acf114620000d857806329cbf2e914620001485780633aecd0e3146200016257806344d5099314620001bc578063466a0146146200022c5780634baa0f5e14620002a057806361878fc414620002fe57806373a296ba146200038457806375b9960e146200041457806375dae8a6146200050657806391f4245a14620005a35780639b8e7b691462000614578063cb6a0e411462000685575b600080fd5b348015620000e557600080fd5b506200010660048036038101908080359060200190929190505050620006e9565b604051808273ffffffffffffffffffffffffffffffffffffffff1673ffffffffffffffffffffffffffffffffffffffff16815260200191505060405180910390f35b3480156200015557600080fd5b506200016062000728565b005b3480156200016f57600080fd5b50620001a6600480360381019080803573ffffffffffffffffffffffffffffffffffffffff1690602001909291905050506200091d565b6040518082815260200191505060405180910390f35b348015620001c957600080fd5b50620001ea6004803603810190808035906020019092919050505062000a21565b604051808273ffffffffffffffffffffffffffffffffffffffff1673ffffffffffffffffffffffffffffffffffffffff16815260200191505060405180910390f35b3480156200023957600080fd5b5062000270600480360381019080803573ffffffffffffffffffffffffffffffffffffffff16906020019092919050505062000a60565b60405180841515151581526020018315151515815260200182151515158152602001935050505060405180910390f35b348015620002ad57600080fd5b50620002e4600480360381019080803573ffffffffffffffffffffffffffffffffffffffff16906020019092919050505062000d87565b604051808215151515815260200191505060405180910390f35b3480156200030b57600080fd5b5062000342600480360381019080803573ffffffffffffffffffffffffffffffffffffffff169060200190929190505050620011d7565b604051808273ffffffffffffffffffffffffffffffffffffffff1673ffffffffffffffffffffffffffffffffffffffff16815260200191505060405180910390f35b3480156200039157600080fd5b50620003d2600480360381019080803573ffffffffffffffffffffffffffffffffffffffff1690602001909291908035906020019092919050505062001522565b604051808273ffffffffffffffffffffffffffffffffffffffff1673ffffffffffffffffffffffffffffffffffffffff16815260200191505060405180910390f35b3480156200042157600080fd5b50620004c4600480360381019080803590602001908201803590602001908080601f0160208091040260200160405190810160405280939291908181526020018383808284378201915050505050509192919290803590602001908201803590602001908080601f016020809104026020016040519081016040528093929190818152602001838380828437820191505050505050919291929050505062001570565b604051808273ffffffffffffffffffffffffffffffffffffffff1673ffffffffffffffffffffffffffffffffffffffff16815260200191505060405180910390f35b3480156200051357600080fd5b506200054a600480360381019080803573ffffffffffffffffffffffffffffffffffffffff16906020019092919050505062001d0d565b6040518080602001828103825283818151815260200191508051906020019060200280838360005b838110156200058f57808201518184015260208101905062000572565b505050509050019250505060405180910390f35b348015620005b057600080fd5b50620005bb620020a0565b6040518080602001828103825283818151815260200191508051906020019060200280838360005b8381101562000600578082015181840152602081019050620005e3565b505050509050019250505060405180910390f35b3480156200062157600080fd5b506200062c62002130565b6040518080602001828103825283818151815260200191508051906020019060200280838360005b838110156200067157808201518184015260208101905062000654565b505050509050019250505060405180910390f35b3480156200069257600080fd5b50620006d3600480360381019080803573ffffffffffffffffffffffffffffffffffffffff16906020019092919080359060200190929190505050620021c0565b6040518082815260200191505060405180910390f35b600181815481101515620006f957fe5b906000526020600020016000915054906101000a900473ffffffffffffffffffffffffffffffffffffffff1681565b60008060009054906101000a900473ffffffffffffffffffffffffffffffffffffffff1673ffffffffffffffffffffffffffffffffffffffff163373ffffffffffffffffffffffffffffffffffffffff1614151562000815576040517f08c379a00000000000000000000000000000000000000000000000000000000081526004018080602001828103825260328152602001807f4f6e6c792053757065722041646d696e6973747261746f722063616e20696e7681526020017f6f6b6520746869732066756e6374696f6e2e000000000000000000000000000081525060400191505060405180910390fd5b6200081f620025fc565b9050801515620008e3576040517f08c379a00000000000000000000000000000000000000000000000000000000081526004018080602001828103825260438152602001807f596f7520646f206e6f742068617665207468652073756666696369656e74206381526020017f6f6e73656e73757320746f20636c6f736520746865206d61726b657420706c6181526020017f636521000000000000000000000000000000000000000000000000000000000081525060600191505060405180910390fd5b6000809054906101000a900473ffffffffffffffffffffffffffffffffffffffff1673ffffffffffffffffffffffffffffffffffffffff16ff5b6000600460009054906101000a900473ffffffffffffffffffffffffffffffffffffffff1673ffffffffffffffffffffffffffffffffffffffff166370a08231836040518263ffffffff167c0100000000000000000000000000000000000000000000000000000000028152600401808273ffffffffffffffffffffffffffffffffffffffff1673ffffffffffffffffffffffffffffffffffffffff168152602001915050602060405180830381600087803b158015620009dd57600080fd5b505af1158015620009f2573d6000803e3d6000fd5b505050506040513d602081101562000a0957600080fd5b81019080805190602001909291905050509050919050565b60028181548110151562000a3157fe5b906000526020600020016000915054906101000a900473ffffffffffffffffffffffffffffffffffffffff1681565b60008060008060008073__Utils_________________________________63cd817f4b6001896040518363ffffffff167c010000000000000000000000000000000000000000000000000000000002815260040180806020018373ffffffffffffffffffffffffffffffffffffffff1673ffffffffffffffffffffffffffffffffffffffff168152602001828103825284818154815260200191508054801562000b6057602002820191906000526020600020905b8160009054906101000a900473ffffffffffffffffffffffffffffffffffffffff1673ffffffffffffffffffffffffffffffffffffffff168152602001906001019080831162000b15575b5050935050505060206040518083038186803b15801562000b8057600080fd5b505af415801562000b95573d6000803e3d6000fd5b505050506040513d602081101562000bac57600080fd5b8101908080519060200190929190505050925073__Utils_________________________________63cd817f4b6002896040518363ffffffff167c010000000000000000000000000000000000000000000000000000000002815260040180806020018373ffffffffffffffffffffffffffffffffffffffff1673ffffffffffffffffffffffffffffffffffffffff168152602001828103825284818154815260200191508054801562000cb657602002820191906000526020600020905b8160009054906101000a900473ffffffffffffffffffffffffffffffffffffffff1673ffffffffffffffffffffffffffffffffffffffff168152602001906001019080831162000c6b575b5050935050505060206040518083038186803b15801562000cd657600080fd5b505af415801562000ceb573d6000803e3d6000fd5b505050506040513d602081101562000d0257600080fd5b81019080805190602001909291905050509150600090506000809054906101000a900473ffffffffffffffffffffffffffffffffffffffff1673ffffffffffffffffffffffffffffffffffffffff168773ffffffffffffffffffffffffffffffffffffffff16141562000d7457600190505b8083839550955095505050509193909250565b600073__Utils_________________________________63cd817f4b6001336040518363ffffffff167c010000000000000000000000000000000000000000000000000000000002815260040180806020018373ffffffffffffffffffffffffffffffffffffffff1673ffffffffffffffffffffffffffffffffffffffff168152602001828103825284818154815260200191508054801562000e8057602002820191906000526020600020905b8160009054906101000a900473ffffffffffffffffffffffffffffffffffffffff1673ffffffffffffffffffffffffffffffffffffffff168152602001906001019080831162000e35575b5050935050505060206040518083038186803b15801562000ea057600080fd5b505af415801562000eb5573d6000803e3d6000fd5b505050506040513d602081101562000ecc57600080fd5b8101908080519060200190929190505050151562000f78576040517f08c379a000000000000000000000000000000000000000000000000000000000815260040180806020018281038252602f8152602001807f4f6e6c7920616e2041646d696e6973747261746f722063616e20696e766f6b6581526020017f20746869732066756e6374696f6e2e000000000000000000000000000000000081525060400191505060405180910390fd5b73__Utils_________________________________63cd817f4b6002846040518363ffffffff167c010000000000000000000000000000000000000000000000000000000002815260040180806020018373ffffffffffffffffffffffffffffffffffffffff1673ffffffffffffffffffffffffffffffffffffffff16815260200182810382528481815481526020019150805480156200106f57602002820191906000526020600020905b8160009054906101000a900473ffffffffffffffffffffffffffffffffffffffff1673ffffffffffffffffffffffffffffffffffffffff168152602001906001019080831162001024575b5050935050505060206040518083038186803b1580156200108f57600080fd5b505af4158015620010a4573d6000803e3d6000fd5b505050506040513d6020811015620010bb57600080fd5b810190808051906020019092919050505015151562001168576040517f08c379a00000000000000000000000000000000000000000000000000000000081526004018080602001828103825260348152602001807f5468652073746f7265206f776e65722077697468207468652073616d6520616481526020017f647265737320616c72656164792065786973742100000000000000000000000081525060400191505060405180910390fd5b60028290806001815401808255809150509060018203906000526020600020016000909192909190916101000a81548173ffffffffffffffffffffffffffffffffffffffff021916908373ffffffffffffffffffffffffffffffffffffffff1602179055505060019050919050565b60008060009054906101000a900473ffffffffffffffffffffffffffffffffffffffff1673ffffffffffffffffffffffffffffffffffffffff163373ffffffffffffffffffffffffffffffffffffffff16141515620012c4576040517f08c379a00000000000000000000000000000000000000000000000000000000081526004018080602001828103825260328152602001807f4f6e6c792053757065722041646d696e6973747261746f722063616e20696e7681526020017f6f6b6520746869732066756e6374696f6e2e000000000000000000000000000081525060400191505060405180910390fd5b73__Utils_________________________________63cd817f4b6001846040518363ffffffff167c010000000000000000000000000000000000000000000000000000000002815260040180806020018373ffffffffffffffffffffffffffffffffffffffff1673ffffffffffffffffffffffffffffffffffffffff1681526020018281038252848181548152602001915080548015620013bb57602002820191906000526020600020905b8160009054906101000a900473ffffffffffffffffffffffffffffffffffffffff1673ffffffffffffffffffffffffffffffffffffffff168152602001906001019080831162001370575b5050935050505060206040518083038186803b158015620013db57600080fd5b505af4158015620013f0573d6000803e3d6000fd5b505050506040513d60208110156200140757600080fd5b8101908080519060200190929190505050151515620014b4576040517f08c379a000000000000000000000000000000000000000000000000000000000815260040180806020018281038252602a8152602001807f546865206164647265737320697320616c726561647920696e2074686520416481526020017f6d696e2067726f7570210000000000000000000000000000000000000000000081525060400191505060405180910390fd5b60018290806001815401808255809150509060018203906000526020600020016000909192909190916101000a81548173ffffffffffffffffffffffffffffffffffffffff021916908373ffffffffffffffffffffffffffffffffffffffff16021790555050819050919050565b6005602052816000526040600020818154811015156200153e57fe5b906000526020600020016000915091509054906101000a900473ffffffffffffffffffffffffffffffffffffffff1681565b60008073__Utils_________________________________63cd817f4b6002336040518363ffffffff167c010000000000000000000000000000000000000000000000000000000002815260040180806020018373ffffffffffffffffffffffffffffffffffffffff1673ffffffffffffffffffffffffffffffffffffffff16815260200182810382528481815481526020019150805480156200166a57602002820191906000526020600020905b8160009054906101000a900473ffffffffffffffffffffffffffffffffffffffff1673ffffffffffffffffffffffffffffffffffffffff16815260200190600101908083116200161f575b5050935050505060206040518083038186803b1580156200168a57600080fd5b505af41580156200169f573d6000803e3d6000fd5b505050506040513d6020811015620016b657600080fd5b8101908080519060200190929190505050151562001762576040517f08c379a000000000000000000000000000000000000000000000000000000000815260040180806020018281038252602f8152602001807f4f6e6c7920616e2041646d696e6973747261746f722063616e20696e766f6b6581526020017f20746869732066756e6374696f6e2e000000000000000000000000000000000081525060400191505060405180910390fd5b600560003373ffffffffffffffffffffffffffffffffffffffff1673ffffffffffffffffffffffffffffffffffffffff168152602001908152602001600020805490509050600081141562001806576001600560003373ffffffffffffffffffffffffffffffffffffffff1673ffffffffffffffffffffffffffffffffffffffff16815260200190815260200160002081620017ff919062002604565b5062001858565b60018101600560003373ffffffffffffffffffffffffffffffffffffffff1673ffffffffffffffffffffffffffffffffffffffff1681526020019081526020016000208162001856919062002604565b505b838360035433600460009054906101000a900473ffffffffffffffffffffffffffffffffffffffff166200188b62002633565b8080602001806020018681526020018573ffffffffffffffffffffffffffffffffffffffff1673ffffffffffffffffffffffffffffffffffffffff1681526020018473ffffffffffffffffffffffffffffffffffffffff1673ffffffffffffffffffffffffffffffffffffffff168152602001838103835288818151815260200191508051906020019080838360005b83811015620019385780820151818401526020810190506200191b565b50505050905090810190601f168015620019665780820380516001836020036101000a031916815260200191505b50838103825287818151815260200191508051906020019080838360005b83811015620019a157808201518184015260208101905062001984565b50505050905090810190601f168015620019cf5780820380516001836020036101000a031916815260200191505b50975050505050505050604051809103906000f080158015620019f6573d6000803e3d6000fd5b50600560003373ffffffffffffffffffffffffffffffffffffffff1673ffffffffffffffffffffffffffffffffffffffff1681526020019081526020016000208281548110151562001a4457fe5b9060005260206000200160006101000a81548173ffffffffffffffffffffffffffffffffffffffff021916908373ffffffffffffffffffffffffffffffffffffffff1602179055506003600081548092919060010191905055507fe75f8bd502ee84b678cb9ed4707b4516128def5e073e6d86f35b43a25c4b40d7848433600560003373ffffffffffffffffffffffffffffffffffffffff1673ffffffffffffffffffffffffffffffffffffffff1681526020019081526020016000208581548110151562001b0f57fe5b9060005260206000200160009054906101000a900473ffffffffffffffffffffffffffffffffffffffff166040518080602001806020018573ffffffffffffffffffffffffffffffffffffffff1673ffffffffffffffffffffffffffffffffffffffff1681526020018473ffffffffffffffffffffffffffffffffffffffff1673ffffffffffffffffffffffffffffffffffffffff168152602001838103835287818151815260200191508051906020019080838360005b8381101562001be457808201518184015260208101905062001bc7565b50505050905090810190601f16801562001c125780820380516001836020036101000a031916815260200191505b50838103825286818151815260200191508051906020019080838360005b8381101562001c4d57808201518184015260208101905062001c30565b50505050905090810190601f16801562001c7b5780820380516001836020036101000a031916815260200191505b50965050505050505060405180910390a1600560003373ffffffffffffffffffffffffffffffffffffffff1673ffffffffffffffffffffffffffffffffffffffff1681526020019081526020016000208181548110151562001cd957fe5b9060005260206000200160009054906101000a900473ffffffffffffffffffffffffffffffffffffffff1691505092915050565b60606000806060600060606000808873ffffffffffffffffffffffffffffffffffffffff1614151562001e0857600560008973ffffffffffffffffffffffffffffffffffffffff1673ffffffffffffffffffffffffffffffffffffffff16815260200190815260200160002080548060200260200160405190810160405280929190818152602001828054801562001dfb57602002820191906000526020600020905b8160009054906101000a900473ffffffffffffffffffffffffffffffffffffffff1673ffffffffffffffffffffffffffffffffffffffff168152602001906001019080831162001db0575b5050505050965062002095565b60009550600094505b60028054905085101562001eae576005600060028781548110151562001e3357fe5b9060005260206000200160009054906101000a900473ffffffffffffffffffffffffffffffffffffffff1673ffffffffffffffffffffffffffffffffffffffff1673ffffffffffffffffffffffffffffffffffffffff1681526020019081526020016000208054905086019550848060010195505062001e11565b8560405190808252806020026020018201604052801562001ede5781602001602082028038833980820191505090505b50935060009250600094505b60028054905085101562002091576005600060028781548110151562001f0c57fe5b9060005260206000200160009054906101000a900473ffffffffffffffffffffffffffffffffffffffff1673ffffffffffffffffffffffffffffffffffffffff1673ffffffffffffffffffffffffffffffffffffffff16815260200190815260200160002080548060200260200160405190810160405280929190818152602001828054801562001ff357602002820191906000526020600020905b8160009054906101000a900473ffffffffffffffffffffffffffffffffffffffff1673ffffffffffffffffffffffffffffffffffffffff168152602001906001019080831162001fa8575b50505050509150600090505b8151811015620020835781818151811015156200201857fe5b9060200190602002015184848151811015156200203157fe5b9060200190602002019073ffffffffffffffffffffffffffffffffffffffff16908173ffffffffffffffffffffffffffffffffffffffff16815250508280600101935050808060010191505062001fff565b848060010195505062001eea565b8396505b505050505050919050565b606060028054806020026020016040519081016040528092919081815260200182805480156200212657602002820191906000526020600020905b8160009054906101000a900473ffffffffffffffffffffffffffffffffffffffff1673ffffffffffffffffffffffffffffffffffffffff1681526020019060010190808311620020db575b5050505050905090565b60606001805480602002602001604051908101604052809291908181526020018280548015620021b657602002820191906000526020600020905b8160009054906101000a900473ffffffffffffffffffffffffffffffffffffffff1673ffffffffffffffffffffffffffffffffffffffff16815260200190600101908083116200216b575b5050505050905090565b60008060009054906101000a900473ffffffffffffffffffffffffffffffffffffffff1673ffffffffffffffffffffffffffffffffffffffff163373ffffffffffffffffffffffffffffffffffffffff16141515620022ad576040517f08c379a00000000000000000000000000000000000000000000000000000000081526004018080602001828103825260328152602001807f4f6e6c792053757065722041646d696e6973747261746f722063616e20696e7681526020017f6f6b6520746869732066756e6374696f6e2e000000000000000000000000000081525060400191505060405180910390fd5b73__Utils_________________________________63cd817f4b6002856040518363ffffffff167c010000000000000000000000000000000000000000000000000000000002815260040180806020018373ffffffffffffffffffffffffffffffffffffffff1673ffffffffffffffffffffffffffffffffffffffff1681526020018281038252848181548152602001915080548015620023a457602002820191906000526020600020905b8160009054906101000a900473ffffffffffffffffffffffffffffffffffffffff1673ffffffffffffffffffffffffffffffffffffffff168152602001906001019080831162002359575b5050935050505060206040518083038186803b158015620023c457600080fd5b505af4158015620023d9573d6000803e3d6000fd5b505050506040513d6020811015620023f057600080fd5b810190808051906020019092919050505015156200249c576040517f08c379a000000000000000000000000000000000000000000000000000000000815260040180806020018281038252602a8152602001807f5468652070726f76696465642061646472657373206973206e6f74206120737481526020017f6f7265206f776e6572210000000000000000000000000000000000000000000081525060400191505060405180910390fd5b600460009054906101000a900473ffffffffffffffffffffffffffffffffffffffff1673ffffffffffffffffffffffffffffffffffffffff1663bca82f976000809054906101000a900473ffffffffffffffffffffffffffffffffffffffff1685856040518463ffffffff167c0100000000000000000000000000000000000000000000000000000000028152600401808473ffffffffffffffffffffffffffffffffffffffff1673ffffffffffffffffffffffffffffffffffffffff1681526020018373ffffffffffffffffffffffffffffffffffffffff1673ffffffffffffffffffffffffffffffffffffffff1681526020018281526020019350505050602060405180830381600087803b158015620025b757600080fd5b505af1158015620025cc573d6000803e3d6000fd5b505050506040513d6020811015620025e357600080fd5b8101908080519060200190929190505050905092915050565b600080905090565b8154818355818111156200262e578183600052602060002091820191016200262d919062002644565b5b505050565b604051612a5f806200266d83390190565b6200266991905b80821115620026655760008160009055506001016200264b565b5090565b90560060806040523480156200001157600080fd5b5060405162002a5f38038062002a5f8339810180604052810190808051820192919060200180518201929190602001805190602001909291908051906020019092919080519060200190929190505050816000806101000a81548173ffffffffffffffffffffffffffffffffffffffff021916908373ffffffffffffffffffffffffffffffffffffffff1602179055508460019080519060200190620000b992919062000136565b50826003819055508360029080519060200190620000d992919062000136565b506000600481905550600160058190555080600760006101000a81548173ffffffffffffffffffffffffffffffffffffffff021916908373ffffffffffffffffffffffffffffffffffffffff1602179055505050505050620001e5565b828054600181600116156101000203166002900490600052602060002090601f016020900481019282601f106200017957805160ff1916838001178555620001aa565b82800160010185558215620001aa579182015b82811115620001a95782518255916020019190600101906200018c565b5b509050620001b99190620001bd565b5090565b620001e291905b80821115620001de576000816000905550600101620001c4565b5090565b90565b61286a80620001f56000396000f3006080604052600436106100a4576000357c0100000000000000000000000000000000000000000000000000000000900463ffffffff1680630cee1725146100a65780635ee95cae146100de5780636813b53b146101235780637b2c5d131461025f5780639498be1b146102a4578063ce2d683f1461037b578063dbf5dcd9146103ff578063de0847301461042a578063f94eb1821461046c578063fe04eb2d14610551575b005b6100c460048036038101908080359060200190929190505050610687565b604051808215151515815260200191505060405180910390f35b3480156100ea57600080fd5b506101096004803603810190808035906020019092919050505061095d565b604051808215151515815260200191505060405180910390f35b34801561012f57600080fd5b5061014e60048036038101908080359060200190929190505050610b7d565b60405180806020018060200187815260200186815260200185600181111561017257fe5b60ff168152602001848152602001838103835289818151815260200191508051906020019080838360005b838110156101b857808201518184015260208101905061019d565b50505050905090810190601f1680156101e55780820380516001836020036101000a031916815260200191505b50838103825288818151815260200191508051906020019080838360005b8381101561021e578082015181840152602081019050610203565b50505050905090810190601f16801561024b5780820380516001836020036101000a031916815260200191505b509850505050505050505060405180910390f35b34801561026b57600080fd5b5061028a60048036038101908080359060200190929190505050610dad565b604051808215151515815260200191505060405180910390f35b3480156102b057600080fd5b50610365600480360381019080803590602001908201803590602001908080601f0160208091040260200160405190810160405280939291908181526020018383808284378201915050505050509192919290803590602001908201803590602001908080601f01602080910402602001604051908101604052809392919081815260200183838082843782019150505050505091929192908035906020019092919080359060200190929190505050610fcc565b6040518082815260200191505060405180910390f35b34801561038757600080fd5b506103a8600480360381019080803515159060200190929190505050611316565b6040518080602001828103825283818151815260200191508051906020019060200280838360005b838110156103eb5780820151818401526020810190506103d0565b505050509050019250505060405180910390f35b34801561040b57600080fd5b5061041461151e565b6040518082815260200191505060405180910390f35b610452600480360381019080803590602001909291908035906020019092919050505061153d565b604051808215151515815260200191505060405180910390f35b34801561047857600080fd5b5061053760048036038101908080359060200190929190803590602001908201803590602001908080601f0160208091040260200160405190810160405280939291908181526020018383808284378201915050505050509192919290803590602001908201803590602001908080601f016020809104026020016040519081016040528093929190818152602001838380828437820191505050505050919291929080359060200190929190803590602001909291905050506121db565b604051808215151515815260200191505060405180910390f35b34801561055d57600080fd5b50610566612475565b604051808573ffffffffffffffffffffffffffffffffffffffff1673ffffffffffffffffffffffffffffffffffffffff1681526020018060200184815260200180602001838103835286818151815260200191508051906020019080838360005b838110156105e25780820151818401526020810190506105c7565b50505050905090810190601f16801561060f5780820380516001836020036101000a031916815260200191505b50838103825284818151815260200191508051906020019080838360005b8381101561064857808201518184015260208101905061062d565b50505050905090810190601f1680156106755780820380516001836020036101000a031916815260200191505b50965050505050505060405180910390f35b60003373ffffffffffffffffffffffffffffffffffffffff166000809054906101000a900473ffffffffffffffffffffffffffffffffffffffff1673ffffffffffffffffffffffffffffffffffffffff16141515610773576040517f08c379a000000000000000000000000000000000000000000000000000000000815260040180806020018281038252602c8152602001807f4f6e6c7920612073746f7265206f776e65722063616e20696e766f6b6520746881526020017f69732066756e6374696f6e21000000000000000000000000000000000000000081525060400191505060405180910390fd5b600082111515610811576040517f08c379a000000000000000000000000000000000000000000000000000000000815260040180806020018281038252602f8152602001807f5468652077697468647277616c20616d6f756e74206d7573742062652061207081526020017f6f736974697665206e756d62657221000000000000000000000000000000000081525060400191505060405180910390fd5b813073ffffffffffffffffffffffffffffffffffffffff1631101515156108ec576040517f08c379a000000000000000000000000000000000000000000000000000000000815260040180806020018281038252604c8152602001807f5468652063757272656e742073746f72652062616c616e636520616d6f756e7481526020017f206d7573742062652067726561746572207468616e207468652077697468647281526020017f6177616c20616d6f756e7421000000000000000000000000000000000000000081525060600191505060405180910390fd5b6000809054906101000a900473ffffffffffffffffffffffffffffffffffffffff1673ffffffffffffffffffffffffffffffffffffffff166108fc839081150290604051600060405180830381858888f19350505050158015610953573d6000803e3d6000fd5b5060019050919050565b6000803373ffffffffffffffffffffffffffffffffffffffff166000809054906101000a900473ffffffffffffffffffffffffffffffffffffffff1673ffffffffffffffffffffffffffffffffffffffff16141515610a4a576040517f08c379a000000000000000000000000000000000000000000000000000000000815260040180806020018281038252602c8152602001807f4f6e6c7920612073746f7265206f776e65722063616e20696e766f6b6520746881526020017f69732066756e6374696f6e21000000000000000000000000000000000000000081525060400191505060405180910390fd5b60018303905060006001811115610a5d57fe5b600682815481101515610a6c57fe5b906000526020600020906007020160050160009054906101000a900460ff166001811115610a9657fe5b141515610b31576040517f08c379a00000000000000000000000000000000000000000000000000000000081526004018080602001828103825260398152602001807f4f6e6c7920746865206163746976652070726f647563742063616e206265206281526020017f652072656d6f7665642066726f6d207468652073746f7265210000000000000081525060400191505060405180910390fd5b6001600682815481101515610b4257fe5b906000526020600020906007020160050160006101000a81548160ff02191690836001811115610b6e57fe5b02179055506001915050919050565b6060806000806000806000600188039050600681815481101515610b9d57fe5b9060005260206000209060070201600101600682815481101515610bbd57fe5b9060005260206000209060070201600201600683815481101515610bdd57fe5b906000526020600020906007020160030154600684815481101515610bfe57fe5b906000526020600020906007020160040154600685815481101515610c1f57fe5b906000526020600020906007020160050160009054906101000a900460ff16600686815481101515610c4d57fe5b906000526020600020906007020160060154858054600181600116156101000203166002900480601f016020809104026020016040519081016040528092919081815260200182805460018160011615610100020316600290048015610cf45780601f10610cc957610100808354040283529160200191610cf4565b820191906000526020600020905b815481529060010190602001808311610cd757829003601f168201915b50505050509550848054600181600116156101000203166002900480601f016020809104026020016040519081016040528092919081815260200182805460018160011615610100020316600290048015610d905780601f10610d6557610100808354040283529160200191610d90565b820191906000526020600020905b815481529060010190602001808311610d7357829003601f168201915b505050505094509650965096509650965096505091939550919395565b6000803373ffffffffffffffffffffffffffffffffffffffff166000809054906101000a900473ffffffffffffffffffffffffffffffffffffffff1673ffffffffffffffffffffffffffffffffffffffff16141515610e9a576040517f08c379a000000000000000000000000000000000000000000000000000000000815260040180806020018281038252602c8152602001807f4f6e6c7920612073746f7265206f776e65722063616e20696e766f6b6520746881526020017f69732066756e6374696f6e21000000000000000000000000000000000000000081525060400191505060405180910390fd5b600183039050600180811115610eac57fe5b600682815481101515610ebb57fe5b906000526020600020906007020160050160009054906101000a900460ff166001811115610ee557fe5b141515610f80576040517f08c379a000000000000000000000000000000000000000000000000000000000815260040180806020018281038252602b8152602001807f4f6e6c792074686520496e6163746976652070726f647563742063616e20626581526020017f206163746976617465642100000000000000000000000000000000000000000081525060400191505060405180910390fd5b6000600682815481101515610f9157fe5b906000526020600020906007020160050160006101000a81548160ff02191690836001811115610fbd57fe5b02179055506001915050919050565b6000803373ffffffffffffffffffffffffffffffffffffffff166000809054906101000a900473ffffffffffffffffffffffffffffffffffffffff1673ffffffffffffffffffffffffffffffffffffffff161415156110b9576040517f08c379a000000000000000000000000000000000000000000000000000000000815260040180806020018281038252602c8152602001807f4f6e6c7920612073746f7265206f776e65722063616e20696e766f6b6520746881526020017f69732066756e6374696f6e21000000000000000000000000000000000000000081525060400191505060405180910390fd5b600a905060016006818180549050019150816110d5919061262c565b5060e06040519081016040528060055481526020018781526020018681526020018581526020018481526020016000600181111561110f57fe5b815260200182815250600660045481548110151561112957fe5b906000526020600020906007020160008201518160000155602082015181600101908051906020019061115d92919061265e565b50604082015181600201908051906020019061117a92919061265e565b50606082015181600301556080820151816004015560a08201518160050160006101000a81548160ff021916908360018111156111b357fe5b021790555060c082015181600601559050507fc86b920148e151a78e4a627284a763302c966579a89be8494ba9562ac1f61b7b60055487878787604051808681526020018060200180602001858152602001848152602001838103835287818151815260200191508051906020019080838360005b83811015611243578082015181840152602081019050611228565b50505050905090810190601f1680156112705780820380516001836020036101000a031916815260200191505b50838103825286818151815260200191508051906020019080838360005b838110156112a957808201518184015260208101905061128e565b50505050905090810190601f1680156112d65780820380516001836020036101000a031916815260200191505b5097505050505050505060405180910390a16004600081548092919060010191905055506005600081548092919060010191905055915050949350505050565b6060600080606060008093506001151586151514156113ae57600092505b6006805490508360ff1610156113a9576000600181111561135157fe5b60068460ff1681548110151561136357fe5b906000526020600020906007020160050160009054906101000a900460ff16600181111561138d57fe5b141561139c5783806001019450505b8280600101935050611334565b6113b7565b60068054905093505b836040519080825280602002602001820160405280156113e65781602001602082028038833980820191505090505b50915060008411156115125760009050600092505b6006805490508360ff161015611511576001151586151514156114b8576000600181111561142557fe5b60068460ff1681548110151561143757fe5b906000526020600020906007020160050160009054906101000a900460ff16600181111561146157fe5b14156114b35760068360ff1681548110151561147957fe5b906000526020600020906007020160000154828260ff1681518110151561149c57fe5b906020019060200201818152505080806001019150505b611504565b60068360ff168154811015156114ca57fe5b906000526020600020906007020160000154828260ff168151811015156114ed57fe5b906020019060200201818152505080806001019150505b82806001019350506113fb565b5b81945050505050919050565b60003073ffffffffffffffffffffffffffffffffffffffff1631905090565b600080600080600080600060018903955060068681548110151561155d57fe5b906000526020600020906007020160030154880294506000600181111561158057fe5b60068781548110151561158f57fe5b906000526020600020906007020160050160009054906101000a900460ff1660018111156115b957fe5b141515611654576040517f08c379a00000000000000000000000000000000000000000000000000000000081526004018080602001828103825260268152602001807f4f6e6c7920746865206163746976652070726f647563742063616e206265206281526020017f6f7567687421000000000000000000000000000000000000000000000000000081525060400191505060405180910390fd5b3373ffffffffffffffffffffffffffffffffffffffff166000809054906101000a900473ffffffffffffffffffffffffffffffffffffffff1673ffffffffffffffffffffffffffffffffffffffff161415151561173f576040517f08c379a00000000000000000000000000000000000000000000000000000000081526004018080602001828103825260258152602001807f546865206f776e65722063616e6e6f742062757920697473206f776e2070726f81526020017f647563742100000000000000000000000000000000000000000000000000000081525060400191505060405180910390fd5b60068681548110151561174e57fe5b90600052602060002090600702016004015488111515156117fd576040517f08c379a000000000000000000000000000000000000000000000000000000000815260040180806020018281038252603a8152602001807f5468652073746f726520646f6573206e6f74206861766520737566666963696581526020017f6e74207175616e74697479206f66207468652070726f6475637400000000000081525060400191505060405180910390fd5b3373ffffffffffffffffffffffffffffffffffffffff163134111515156118b2576040517f08c379a00000000000000000000000000000000000000000000000000000000081526004018080602001828103825260408152602001807f54686520627579657220646f6573206e6f74206861766520737566666963696581526020017f6e742062616c616e636520696e20686973202f20686572206163636f756e742181525060400191505060405180910390fd5b876006878154811015156118c257fe5b906000526020600020906007020160040154036006878154811015156118e457fe5b9060005260206000209060070201600401819055507f781f13430da3033909b5c9de8541109172e3f02dca16b4b18f489592e4f11af08989306000809054906101000a900473ffffffffffffffffffffffffffffffffffffffff16333373ffffffffffffffffffffffffffffffffffffffff16318b604051808881526020018781526020018673ffffffffffffffffffffffffffffffffffffffff1673ffffffffffffffffffffffffffffffffffffffff1681526020018573ffffffffffffffffffffffffffffffffffffffff1673ffffffffffffffffffffffffffffffffffffffff1681526020018473ffffffffffffffffffffffffffffffffffffffff1673ffffffffffffffffffffffffffffffffffffffff16815260200183815260200182815260200197505050505050505060405180910390a1600093506000600760009054906101000a900473ffffffffffffffffffffffffffffffffffffffff1673ffffffffffffffffffffffffffffffffffffffff166370a08231336040518263ffffffff167c0100000000000000000000000000000000000000000000000000000000028152600401808273ffffffffffffffffffffffffffffffffffffffff1673ffffffffffffffffffffffffffffffffffffffff168152602001915050602060405180830381600087803b158015611adf57600080fd5b505af1158015611af3573d6000803e3d6000fd5b505050506040513d6020811015611b0957600080fd5b81019080805190602001909291905050501115611ff3576509184e72a000600760009054906101000a900473ffffffffffffffffffffffffffffffffffffffff1673ffffffffffffffffffffffffffffffffffffffff166370a08231336040518263ffffffff167c0100000000000000000000000000000000000000000000000000000000028152600401808273ffffffffffffffffffffffffffffffffffffffff1673ffffffffffffffffffffffffffffffffffffffff168152602001915050602060405180830381600087803b158015611be457600080fd5b505af1158015611bf8573d6000803e3d6000fd5b505050506040513d6020811015611c0e57600080fd5b81019080805190602001909291905050500292508483111515611e8057829350600760009054906101000a900473ffffffffffffffffffffffffffffffffffffffff1673ffffffffffffffffffffffffffffffffffffffff166323b872dd336000809054906101000a900473ffffffffffffffffffffffffffffffffffffffff16600760009054906101000a900473ffffffffffffffffffffffffffffffffffffffff1673ffffffffffffffffffffffffffffffffffffffff166370a08231336040518263ffffffff167c0100000000000000000000000000000000000000000000000000000000028152600401808273ffffffffffffffffffffffffffffffffffffffff1673ffffffffffffffffffffffffffffffffffffffff168152602001915050602060405180830381600087803b158015611d4c57600080fd5b505af1158015611d60573d6000803e3d6000fd5b505050506040513d6020811015611d7657600080fd5b81019080805190602001909291905050506040518463ffffffff167c0100000000000000000000000000000000000000000000000000000000028152600401808473ffffffffffffffffffffffffffffffffffffffff1673ffffffffffffffffffffffffffffffffffffffff1681526020018373ffffffffffffffffffffffffffffffffffffffff1673ffffffffffffffffffffffffffffffffffffffff1681526020018281526020019350505050602060405180830381600087803b158015611e3f57600080fd5b505af1158015611e53573d6000803e3d6000fd5b505050506040513d6020811015611e6957600080fd5b810190808051906020019092919050505050611ff2565b849350600760009054906101000a900473ffffffffffffffffffffffffffffffffffffffff1673ffffffffffffffffffffffffffffffffffffffff166323b872dd336000809054906101000a900473ffffffffffffffffffffffffffffffffffffffff16611efd6509184e72a0008a6125ec90919063ffffffff16565b6040518463ffffffff167c0100000000000000000000000000000000000000000000000000000000028152600401808473ffffffffffffffffffffffffffffffffffffffff1673ffffffffffffffffffffffffffffffffffffffff1681526020018373ffffffffffffffffffffffffffffffffffffffff1673ffffffffffffffffffffffffffffffffffffffff1681526020018281526020019350505050602060405180830381600087803b158015611fb557600080fd5b505af1158015611fc9573d6000803e3d6000fd5b505050506040513d6020811015611fdf57600080fd5b8101908080519060200190929190505050505b5b612006848661261090919063ffffffff16565b91506000821115612015573090505b600060068781548110151561202657fe5b90600052602060002090600702016006015411156121cb57600760009054906101000a900473ffffffffffffffffffffffffffffffffffffffff1673ffffffffffffffffffffffffffffffffffffffff166323b872dd6000809054906101000a900473ffffffffffffffffffffffffffffffffffffffff163360646509184e72a0000260068b8154811015156120b857fe5b9060005260206000209060070201600601548a028115156120d557fe5b046040518463ffffffff167c0100000000000000000000000000000000000000000000000000000000028152600401808473ffffffffffffffffffffffffffffffffffffffff1673ffffffffffffffffffffffffffffffffffffffff1681526020018373ffffffffffffffffffffffffffffffffffffffff1673ffffffffffffffffffffffffffffffffffffffff1681526020018281526020019350505050602060405180830381600087803b15801561218e57600080fd5b505af11580156121a2573d6000803e3d6000fd5b505050506040513d60208110156121b857600080fd5b8101908080519060200190929190505050505b6001965050505050505092915050565b6000803373ffffffffffffffffffffffffffffffffffffffff166000809054906101000a900473ffffffffffffffffffffffffffffffffffffffff1673ffffffffffffffffffffffffffffffffffffffff161415156122c8576040517f08c379a000000000000000000000000000000000000000000000000000000000815260040180806020018281038252602c8152602001807f4f6e6c7920612073746f7265206f776e65722063616e20696e766f6b6520746881526020017f69732066756e6374696f6e21000000000000000000000000000000000000000081525060400191505060405180910390fd5b60018703905060006006828154811015156122df57fe5b906000526020600020906007020160000154141515156123b3576040517f08c379a00000000000000000000000000000000000000000000000000000000081526004018080602001828103825260498152602001807f50726f6475637420666f722074686520676976656e2073746f7265206964206181526020017f6e642070726f6475637420696420636f6d62696e6174696f6e20646f6573206e81526020017f6f7420657869737421000000000000000000000000000000000000000000000081525060600191505060405180910390fd5b856006828154811015156123c357fe5b906000526020600020906007020160010190805190602001906123e79291906126de565b50846006828154811015156123f857fe5b9060005260206000209060070201600201908051906020019061241c9291906126de565b508360068281548110151561242d57fe5b9060005260206000209060070201600301819055508260068281548110151561245257fe5b906000526020600020906007020160040181905550600191505095945050505050565b60006060600060606000809054906101000a900473ffffffffffffffffffffffffffffffffffffffff1660016003546002828054600181600116156101000203166002900480601f01602080910402602001604051908101604052809291908181526020018280546001816001161561010002031660029004801561253b5780601f106125105761010080835404028352916020019161253b565b820191906000526020600020905b81548152906001019060200180831161251e57829003601f168201915b50505050509250808054600181600116156101000203166002900480601f0160208091040260200160405190810160405280929190818152602001828054600181600116156101000203166002900480156125d75780601f106125ac576101008083540402835291602001916125d7565b820191906000526020600020905b8154815290600101906020018083116125ba57829003601f168201915b50505050509050935093509350935090919293565b600080821115156125fc57600080fd5b818381151561260757fe5b04905092915050565b600082821115151561262157600080fd5b818303905092915050565b81548183558181111561265957600702816007028360005260206000209182019101612658919061275e565b5b505050565b828054600181600116156101000203166002900490600052602060002090601f016020900481019282601f1061269f57805160ff19168380011785556126cd565b828001600101855582156126cd579182015b828111156126cc5782518255916020019190600101906126b1565b5b5090506126da91906127d1565b5090565b828054600181600116156101000203166002900490600052602060002090601f016020900481019282601f1061271f57805160ff191683800117855561274d565b8280016001018555821561274d579182015b8281111561274c578251825591602001919060010190612731565b5b50905061275a91906127d1565b5090565b6127ce91905b808211156127ca5760008082016000905560018201600061278591906127f6565b60028201600061279591906127f6565b600382016000905560048201600090556005820160006101000a81549060ff0219169055600682016000905550600701612764565b5090565b90565b6127f391905b808211156127ef5760008160009055506001016127d7565b5090565b90565b50805460018160011615610100020316600290046000825580601f1061281c575061283b565b601f01602090049060005260206000209081019061283a91906127d1565b5b505600a165627a7a72305820c3ee41c041a2f6e63dae12b1d68bf646c8262a457fe2c60424eb49e3fde17f7f0029a165627a7a72305820708be2c757c042453dc722a2f3e709932ceb484cbe592729f608dd25cee90c4900296080604052600060025534801561001557600080fd5b50610d5a806100256000396000f3006080604052600436106100a4576000357c0100000000000000000000000000000000000000000000000000000000900463ffffffff16806306fdde03146100a9578063095ea7b31461013957806318160ddd1461019e57806323b872dd146101c9578063313ce5671461024e57806370a082311461027f57806395d89b41146102d6578063a9059cbb14610366578063bca82f97146103cb578063dd62ed3e1461044c575b600080fd5b3480156100b557600080fd5b506100be6104c3565b6040518080602001828103825283818151815260200191508051906020019080838360005b838110156100fe5780820151818401526020810190506100e3565b50505050905090810190601f16801561012b5780820380516001836020036101000a031916815260200191505b509250505060405180910390f35b34801561014557600080fd5b50610184600480360381019080803573ffffffffffffffffffffffffffffffffffffffff169060200190929190803590602001909291905050506104fc565b604051808215151515815260200191505060405180910390f35b3480156101aa57600080fd5b506101b361056d565b6040518082815260200191505060405180910390f35b3480156101d557600080fd5b50610234600480360381019080803573ffffffffffffffffffffffffffffffffffffffff169060200190929190803573ffffffffffffffffffffffffffffffffffffffff16906020019092919080359060200190929190505050610577565b604051808215151515815260200191505060405180910390f35b34801561025a57600080fd5b50610263610798565b604051808260ff1660ff16815260200191505060405180910390f35b34801561028b57600080fd5b506102c0600480360381019080803573ffffffffffffffffffffffffffffffffffffffff16906020019092919050505061079d565b6040518082815260200191505060405180910390f35b3480156102e257600080fd5b506102eb6107e5565b6040518080602001828103825283818151815260200191508051906020019080838360005b8381101561032b578082015181840152602081019050610310565b50505050905090810190601f1680156103585780820380516001836020036101000a031916815260200191505b509250505060405180910390f35b34801561037257600080fd5b506103b1600480360381019080803573ffffffffffffffffffffffffffffffffffffffff1690602001909291908035906020019092919050505061081e565b604051808215151515815260200191505060405180910390f35b3480156103d757600080fd5b50610436600480360381019080803573ffffffffffffffffffffffffffffffffffffffff169060200190929190803573ffffffffffffffffffffffffffffffffffffffff16906020019092919080359060200190929190505050610a3e565b6040518082815260200191505060405180910390f35b34801561045857600080fd5b506104ad600480360381019080803573ffffffffffffffffffffffffffffffffffffffff169060200190929190803573ffffffffffffffffffffffffffffffffffffffff169060200190929190505050610b31565b6040518082815260200191505060405180910390f35b6040805190810160405280601381526020017f4f6e6c696e65204d61726b657420506c6163650000000000000000000000000081525081565b60008273ffffffffffffffffffffffffffffffffffffffff163373ffffffffffffffffffffffffffffffffffffffff167f8c5be1e5ebec7d5bd14f71427d1e84f3dd0314c0f7b2291e5b200ac8c7c3b925846040518082815260200191505060405180910390a36001905092915050565b6000600254905090565b60008060008573ffffffffffffffffffffffffffffffffffffffff1673ffffffffffffffffffffffffffffffffffffffff1681526020019081526020016000205482111515156105c657600080fd5b600073ffffffffffffffffffffffffffffffffffffffff168373ffffffffffffffffffffffffffffffffffffffff161415151561060257600080fd5b610653826000808773ffffffffffffffffffffffffffffffffffffffff1673ffffffffffffffffffffffffffffffffffffffff16815260200190815260200160002054610bb890919063ffffffff16565b6000808673ffffffffffffffffffffffffffffffffffffffff1673ffffffffffffffffffffffffffffffffffffffff168152602001908152602001600020819055506106e6826000808673ffffffffffffffffffffffffffffffffffffffff1673ffffffffffffffffffffffffffffffffffffffff16815260200190815260200160002054610bd490919063ffffffff16565b6000808573ffffffffffffffffffffffffffffffffffffffff1673ffffffffffffffffffffffffffffffffffffffff168152602001908152602001600020819055508273ffffffffffffffffffffffffffffffffffffffff168473ffffffffffffffffffffffffffffffffffffffff167fddf252ad1be2c89b69c2b068fc378daa952ba7f163c4a11628f55a4df523b3ef846040518082815260200191505060405180910390a3600190509392505050565b600381565b60008060008373ffffffffffffffffffffffffffffffffffffffff1673ffffffffffffffffffffffffffffffffffffffff168152602001908152602001600020549050919050565b6040805190810160405280600381526020017f4f4d50000000000000000000000000000000000000000000000000000000000081525081565b60008060003373ffffffffffffffffffffffffffffffffffffffff1673ffffffffffffffffffffffffffffffffffffffff16815260200190815260200160002054821115151561086d57600080fd5b600073ffffffffffffffffffffffffffffffffffffffff168373ffffffffffffffffffffffffffffffffffffffff16141515156108a957600080fd5b6108fa826000803373ffffffffffffffffffffffffffffffffffffffff1673ffffffffffffffffffffffffffffffffffffffff16815260200190815260200160002054610bb890919063ffffffff16565b6000803373ffffffffffffffffffffffffffffffffffffffff1673ffffffffffffffffffffffffffffffffffffffff1681526020019081526020016000208190555061098d826000808673ffffffffffffffffffffffffffffffffffffffff1673ffffffffffffffffffffffffffffffffffffffff16815260200190815260200160002054610bd490919063ffffffff16565b6000808573ffffffffffffffffffffffffffffffffffffffff1673ffffffffffffffffffffffffffffffffffffffff168152602001908152602001600020819055508273ffffffffffffffffffffffffffffffffffffffff163373ffffffffffffffffffffffffffffffffffffffff167fddf252ad1be2c89b69c2b068fc378daa952ba7f163c4a11628f55a4df523b3ef846040518082815260200191505060405180910390a36001905092915050565b6000610a4a8383610bf0565b7f28304351f4cb68edab8682e94ff67c7f896c010f2b576db48f5503611d8ae6be848484604051808473ffffffffffffffffffffffffffffffffffffffff1673ffffffffffffffffffffffffffffffffffffffff1681526020018373ffffffffffffffffffffffffffffffffffffffff1673ffffffffffffffffffffffffffffffffffffffff168152602001828152602001935050505060405180910390a16000808473ffffffffffffffffffffffffffffffffffffffff1673ffffffffffffffffffffffffffffffffffffffff1681526020019081526020016000205490509392505050565b6000600160008473ffffffffffffffffffffffffffffffffffffffff1673ffffffffffffffffffffffffffffffffffffffff16815260200190815260200160002060008373ffffffffffffffffffffffffffffffffffffffff1673ffffffffffffffffffffffffffffffffffffffff16815260200190815260200160002054905092915050565b6000828211151515610bc957600080fd5b818303905092915050565b60008183019050828110151515610bea57600080fd5b92915050565b60008273ffffffffffffffffffffffffffffffffffffffff1614151515610c1657600080fd5b610c2b81600254610bd490919063ffffffff16565b600281905550610c82816000808573ffffffffffffffffffffffffffffffffffffffff1673ffffffffffffffffffffffffffffffffffffffff16815260200190815260200160002054610bd490919063ffffffff16565b6000808473ffffffffffffffffffffffffffffffffffffffff1673ffffffffffffffffffffffffffffffffffffffff168152602001908152602001600020819055508173ffffffffffffffffffffffffffffffffffffffff16600073ffffffffffffffffffffffffffffffffffffffff167fddf252ad1be2c89b69c2b068fc378daa952ba7f163c4a11628f55a4df523b3ef836040518082815260200191505060405180910390a350505600a165627a7a72305820e105f6b62054f5a91a90c46deca172e7bd9fc3ffe28b09d228206e0335dbb14a0029",
  "source": "pragma solidity ^0.4.22;\r\n\r\nimport \"./Store.sol\";\r\nimport \"./library/Utils.sol\";\r\nimport \"./EIP20.sol\";\r\nimport \"./library/SafeMath.sol\";\r\n/**\r\n * There are a list of stores on a central marketplace where shoppers can purchase goods posted by the store owners.\r\n * The central marketplace is managed by a group of administrators. Admins allow store owners to add stores\r\n * to the marketplace. Store owners can manage their stores inventory and funds. Shoppers can visit stores and purchase\r\n * goods that are in stock using cryptocurrency.\r\n *\r\n */\r\n\r\ncontract MarketPlace {\r\n    using SafeMath for uint256;\r\n\r\n    address superAdmin;\r\n    address[] public adminUsers;\r\n    address[] public storeOwners;\r\n    uint private nextStoreId;\r\n    EIP20 private eip20Token;\r\n\r\n    // mapping of stores of a given store owner\r\n    mapping (address => address[]) public storeFrontMap;\r\n\r\n    /**\r\n     * Initialize state variables, specifically, the Super Administrator!\r\n     * Also, add that address in the Admin list.\r\n     */\r\n    constructor() public {\r\n        superAdmin = msg.sender;\r\n        adminUsers.push(msg.sender);\r\n        nextStoreId = 1;\r\n        eip20Token = new EIP20();\r\n    }\r\n\r\n    event NewStore (\r\n      string storeName,\r\n      string storeDescription,\r\n      address storeOwner,\r\n      address storeAddress\r\n    );\r\n\r\n    event AccessingStore(Store currentStore);\r\n\r\n    /**\r\n     * Only SuperAdmin shall be able to create an Admin user\r\n    */\r\n    modifier onlySuperAdmin {\r\n        require( msg.sender == superAdmin, \"Only Super Administrator can invoke this function.\");\r\n        _;\r\n    }\r\n\r\n    /**\r\n     * Only Admin shall be allowed to create a store\r\n    */\r\n    modifier onlyAdmin {\r\n        require( Utils.existInTheArray(adminUsers, msg.sender), \"Only an Administrator can invoke this function.\");\r\n        _;\r\n    }\r\n\r\n    /**\r\n     * Only store owners shall be allowed to add stores.\r\n     *\r\n    */\r\n    modifier onlyStoreOwner {\r\n        require( Utils.existInTheArray(storeOwners, msg.sender), \"Only an Administrator can invoke this function.\");\r\n        _;\r\n    }\r\n\r\n    /**\r\n     * A super administrator can create one or more administrator, who will have same access, except that\r\n     * they cannot create another administrator\r\n     */\r\n    function createAdminUser(address newAdminUser) public onlySuperAdmin returns(address){\r\n        require(!Utils.existInTheArray(adminUsers, newAdminUser), \"The address is already in the Admin group!\");\r\n\r\n        adminUsers.push(newAdminUser);\r\n\r\n        return newAdminUser;\r\n    }\r\n\r\n    /**\r\n    * This function shall return all the admin address in the market place\r\n    */\r\n    function getAdminUsers() public view returns(address[]) {\r\n      return adminUsers;\r\n    }\r\n\r\n    /**\r\n    * This function verifies if an address has the following accesses or not\r\n    * - Super Admin\r\n    * - Admins\r\n    * - Store Owner\r\n    */\r\n    function checkAccess(address addressToVerify) view public returns(bool, bool, bool) {\r\n      bool isAdmin = Utils.existInTheArray(adminUsers, addressToVerify);\r\n      bool isStoreOwner = Utils.existInTheArray(storeOwners, addressToVerify);\r\n      bool isSuperAdmin = false;\r\n\r\n      if ( addressToVerify == superAdmin ) {\r\n        isSuperAdmin = true;\r\n      }\r\n\r\n      return (isSuperAdmin, isAdmin, isStoreOwner);\r\n    }\r\n\r\n    /**\r\n     * Any Admin shall be able to add a store owner.\r\n     * Of course, we need to make sure that a given address is added only once.\r\n    */\r\n    function createStoreOwner(address newStoreOwnerAddress) public onlyAdmin returns(bool){\r\n        require( !Utils.existInTheArray(storeOwners, newStoreOwnerAddress), \"The store owner with the same address already exist!\");\r\n\r\n        storeOwners.push(newStoreOwnerAddress);\r\n\r\n        return true;\r\n    }\r\n\r\n\r\n    /**\r\n    * This function shall return all the store owners address in the market place\r\n    */\r\n    function getStoreOwners() public view returns(address[]) {\r\n      return storeOwners;\r\n    }\r\n\r\n    /**\r\n     * A store owner shall be able to create one or more stores.\r\n     * The created store will be associated with the store owner using storeFrontMap, where the store owner's\r\n     * address is a key and the value is a map of storeId and Store.\r\n     *\r\n    */\r\n    function createStoreFront( string storeName, string storeDescription ) public onlyStoreOwner returns(address){\r\n        uint storeCount = storeFrontMap[msg.sender].length;\r\n\r\n        if (storeCount == 0) {\r\n          storeFrontMap[msg.sender].length = 1;\r\n        } else {\r\n          storeFrontMap[msg.sender].length = storeCount + 1;\r\n        }\r\n\r\n        storeFrontMap[msg.sender][storeCount] = address(new Store(\r\n                                                            storeName,\r\n                                                            storeDescription,\r\n                                                            nextStoreId,\r\n                                                            msg.sender,\r\n                                                            eip20Token ));\r\n\r\n        nextStoreId++;\r\n\r\n        emit NewStore(\r\n                storeName,\r\n                storeDescription,\r\n                msg.sender,\r\n                storeFrontMap[msg.sender][storeCount] );\r\n\r\n        return storeFrontMap[msg.sender][storeCount];\r\n    }\r\n\r\n    /**\r\n     * this function will be used for retriving all the stores of a given store owner\r\n     *\r\n     */\r\n    function getStores(address storeOwnerAddress) public view returns(address[]) {\r\n        if ( storeOwnerAddress != 0 ) {\r\n            return storeFrontMap[storeOwnerAddress];\r\n        }\r\n        else {\r\n            //\r\n            // The caller is looking for all the stores in the market place\r\n            //\r\n            uint totalStoreCount = 0;\r\n            uint storeOwnersCount;\r\n\r\n            for (storeOwnersCount = 0; storeOwnersCount < storeOwners.length; storeOwnersCount++) {\r\n                totalStoreCount += storeFrontMap[storeOwners[storeOwnersCount]].length;\r\n            }\r\n\r\n            address[] memory allStores = new address[](totalStoreCount);\r\n            uint tempStoreCount = 0;\r\n\r\n            for ( storeOwnersCount = 0; storeOwnersCount < storeOwners.length; storeOwnersCount++ ) {\r\n                address[] memory storesOfOwner = storeFrontMap[storeOwners[storeOwnersCount]];\r\n\r\n                for ( uint storeFrontCountOfOwner = 0;\r\n                      storeFrontCountOfOwner < storesOfOwner.length;\r\n                      storeFrontCountOfOwner++) {\r\n                  allStores[tempStoreCount] = storesOfOwner[storeFrontCountOfOwner];\r\n                  tempStoreCount++;\r\n                }\r\n            }\r\n\r\n            return allStores;\r\n        }\r\n    }\r\n\r\n    /**\r\n     * Any Admin shall be able to allocate certain number of new tokens to a store owner.\r\n     * Of course, we need to make sure that a given address is indeed a store owner\r\n    */\r\n    function allocateNewTokens(address storeOwnerAddress, uint256 numberOfTokens) public onlySuperAdmin returns(uint256){\r\n        require( Utils.existInTheArray(storeOwners, storeOwnerAddress), \"The provided address is not a store owner!\");\r\n        return eip20Token.issueNewTokens(superAdmin, storeOwnerAddress, numberOfTokens);\r\n    }\r\n\r\n    /**\r\n     * @dev This method returns the token balance of a given account.\r\n     * @param accountAddress is the address whose balance is being queried\r\n     */\r\n     function getTokenBalance(address accountAddress) public view returns(uint256 tokenBalance) {\r\n       return eip20Token.balanceOf(accountAddress);\r\n     }\r\n\r\n    /**\r\n     * The market place can be destructed by only the super admin, that too when we have at least 75% of the store owners\r\n     * agreeing to this decision.\r\n    */\r\n    function closeMarketPlace() public onlySuperAdmin {\r\n        bool haveConsentOfStoreOwners = getConsentForClosure();\r\n\r\n        require(haveConsentOfStoreOwners, \"You do not have the sufficient consensus to close the market place!\");\r\n\r\n        selfdestruct(superAdmin);\r\n    }\r\n\r\n    /**\r\n     * In case we want to allow the closure of the Market Place then implement this function\r\n     * with proper logic.\r\n    */\r\n    function getConsentForClosure() private pure returns(bool) {\r\n        return false;\r\n    }\r\n\r\n}\r\n",
  "sourcePath": "C:\\xampp\\htdocs\\angular-truffle-onlineMkt\\contracts\\MarketPlace.sol",
  "compiler": {
    "name": "solc",
    "version": "0.4.24+commit.e67f0147.Emscripten.clang"
  },
  "schemaVersion": "2.0.1",
  "updatedAt": "2018-08-27T05:01:02.079Z"
}