{
  "contractName": "MarketPlace",
  "abi": [
    {
      "constant": true,
      "inputs": [
        {
          "name": "",
          "type": "uint256"
        }
      ],
      "name": "adminUsers",
      "outputs": [
        {
          "name": "",
          "type": "address"
        }
      ],
      "payable": false,
      "stateMutability": "view",
      "type": "function"
    },
    {
      "constant": true,
      "inputs": [
        {
          "name": "",
          "type": "uint256"
        }
      ],
      "name": "storeOwners",
      "outputs": [
        {
          "name": "",
          "type": "address"
        }
      ],
      "payable": false,
      "stateMutability": "view",
      "type": "function"
    },
    {
      "constant": true,
      "inputs": [
        {
          "name": "",
          "type": "address"
        },
        {
          "name": "",
          "type": "uint256"
        }
      ],
      "name": "storeFrontMap",
      "outputs": [
        {
          "name": "",
          "type": "address"
        }
      ],
      "payable": false,
      "stateMutability": "view",
      "type": "function"
    },
    {
      "inputs": [],
      "payable": false,
      "stateMutability": "nonpayable",
      "type": "constructor"
    },
    {
      "constant": false,
      "inputs": [
        {
          "name": "newAdminUser",
          "type": "address"
        }
      ],
      "name": "createAdminUser",
      "outputs": [
        {
          "name": "",
          "type": "address"
        }
      ],
      "payable": false,
      "stateMutability": "nonpayable",
      "type": "function"
    },
    {
      "constant": true,
      "inputs": [
        {
          "name": "addressToVerify",
          "type": "address"
        }
      ],
      "name": "checkAdmingAccess",
      "outputs": [
        {
          "name": "",
          "type": "bool"
        }
      ],
      "payable": false,
      "stateMutability": "view",
      "type": "function"
    },
    {
      "constant": false,
      "inputs": [
        {
          "name": "newStoreOwnerAddress",
          "type": "address"
        }
      ],
      "name": "createStoreOwner",
      "outputs": [
        {
          "name": "",
          "type": "bool"
        }
      ],
      "payable": false,
      "stateMutability": "nonpayable",
      "type": "function"
    },
    {
      "constant": false,
      "inputs": [
        {
          "name": "storeName",
          "type": "string"
        },
        {
          "name": "storeDescription",
          "type": "string"
        }
      ],
      "name": "createStoreFront",
      "outputs": [
        {
          "name": "",
          "type": "uint256"
        }
      ],
      "payable": false,
      "stateMutability": "nonpayable",
      "type": "function"
    },
    {
      "constant": true,
      "inputs": [],
      "name": "getStoreOwners",
      "outputs": [
        {
          "name": "",
          "type": "address[]"
        }
      ],
      "payable": false,
      "stateMutability": "view",
      "type": "function"
    },
    {
      "constant": true,
      "inputs": [
        {
          "name": "storeOwnerAddress",
          "type": "address"
        }
      ],
      "name": "getStores",
      "outputs": [
        {
          "name": "",
          "type": "address[]"
        }
      ],
      "payable": false,
      "stateMutability": "view",
      "type": "function"
    },
    {
      "constant": false,
      "inputs": [],
      "name": "closeMarketPlace",
      "outputs": [],
      "payable": false,
      "stateMutability": "nonpayable",
      "type": "function"
    }
  ],
  "bytecode": "0x608060405234801561001057600080fd5b50336000806101000a81548173ffffffffffffffffffffffffffffffffffffffff021916908373ffffffffffffffffffffffffffffffffffffffff16021790555060013390806001815401808255809150509060018203906000526020600020016000909192909190916101000a81548173ffffffffffffffffffffffffffffffffffffffff021916908373ffffffffffffffffffffffffffffffffffffffff160217905550506001600381905550612a54806100ce6000396000f3006080604052600436106100a4576000357c0100000000000000000000000000000000000000000000000000000000900463ffffffff1680631fa9acf1146100a957806329cbf2e91461011657806344d509931461012d5780634baa0f5e1461019a57806360538ba8146101f557806361878fc41461025057806373a296ba146102d357806375b9960e1461036057806375dae8a61461042357806391f4245a146104bb575b600080fd5b3480156100b557600080fd5b506100d460048036038101908080359060200190929190505050610527565b604051808273ffffffffffffffffffffffffffffffffffffffff1673ffffffffffffffffffffffffffffffffffffffff16815260200191505060405180910390f35b34801561012257600080fd5b5061012b610565565b005b34801561013957600080fd5b5061015860048036038101908080359060200190929190505050610756565b604051808273ffffffffffffffffffffffffffffffffffffffff1673ffffffffffffffffffffffffffffffffffffffff16815260200191505060405180910390f35b3480156101a657600080fd5b506101db600480360381019080803573ffffffffffffffffffffffffffffffffffffffff169060200190929190505050610794565b604051808215151515815260200191505060405180910390f35b34801561020157600080fd5b50610236600480360381019080803573ffffffffffffffffffffffffffffffffffffffff169060200190929190505050610bd8565b604051808215151515815260200191505060405180910390f35b34801561025c57600080fd5b50610291600480360381019080803573ffffffffffffffffffffffffffffffffffffffff169060200190929190505050610c7b565b604051808273ffffffffffffffffffffffffffffffffffffffff1673ffffffffffffffffffffffffffffffffffffffff16815260200191505060405180910390f35b3480156102df57600080fd5b5061031e600480360381019080803573ffffffffffffffffffffffffffffffffffffffff16906020019092919080359060200190929190505050610fbf565b604051808273ffffffffffffffffffffffffffffffffffffffff1673ffffffffffffffffffffffffffffffffffffffff16815260200191505060405180910390f35b34801561036c57600080fd5b5061040d600480360381019080803590602001908201803590602001908080601f0160208091040260200160405190810160405280939291908181526020018383808284378201915050505050509192919290803590602001908201803590602001908080601f016020809104026020016040519081016040528093929190818152602001838380828437820191505050505050919291929050505061100c565b6040518082815260200191505060405180910390f35b34801561042f57600080fd5b50610464600480360381019080803573ffffffffffffffffffffffffffffffffffffffff16906020019092919050505061144e565b6040518080602001828103825283818151815260200191508051906020019060200280838360005b838110156104a757808201518184015260208101905061048c565b505050509050019250505060405180910390f35b3480156104c757600080fd5b506104d061151b565b6040518080602001828103825283818151815260200191508051906020019060200280838360005b838110156105135780820151818401526020810190506104f8565b505050509050019250505060405180910390f35b60018181548110151561053657fe5b906000526020600020016000915054906101000a900473ffffffffffffffffffffffffffffffffffffffff1681565b60008060009054906101000a900473ffffffffffffffffffffffffffffffffffffffff1673ffffffffffffffffffffffffffffffffffffffff163373ffffffffffffffffffffffffffffffffffffffff16141515610651576040517f08c379a00000000000000000000000000000000000000000000000000000000081526004018080602001828103825260328152602001807f4f6e6c792053757065722041646d696e6973747261746f722063616e20696e7681526020017f6f6b6520746869732066756e6374696f6e2e000000000000000000000000000081525060400191505060405180910390fd5b6106596115a9565b905080151561071c576040517f08c379a00000000000000000000000000000000000000000000000000000000081526004018080602001828103825260438152602001807f596f7520646f206e6f742068617665207468652073756666696369656e74206381526020017f6f6e73656e73757320746f20636c6f736520746865206d61726b657420706c6181526020017f636521000000000000000000000000000000000000000000000000000000000081525060600191505060405180910390fd5b6000809054906101000a900473ffffffffffffffffffffffffffffffffffffffff1673ffffffffffffffffffffffffffffffffffffffff16ff5b60028181548110151561076557fe5b906000526020600020016000915054906101000a900473ffffffffffffffffffffffffffffffffffffffff1681565b600073__Utils_________________________________63cd817f4b6001336040518363ffffffff167c010000000000000000000000000000000000000000000000000000000002815260040180806020018373ffffffffffffffffffffffffffffffffffffffff1673ffffffffffffffffffffffffffffffffffffffff168152602001828103825284818154815260200191508054801561088b57602002820191906000526020600020905b8160009054906101000a900473ffffffffffffffffffffffffffffffffffffffff1673ffffffffffffffffffffffffffffffffffffffff1681526020019060010190808311610841575b5050935050505060206040518083038186803b1580156108aa57600080fd5b505af41580156108be573d6000803e3d6000fd5b505050506040513d60208110156108d457600080fd5b8101908080519060200190929190505050151561097f576040517f08c379a000000000000000000000000000000000000000000000000000000000815260040180806020018281038252602f8152602001807f4f6e6c7920616e2041646d696e6973747261746f722063616e20696e766f6b6581526020017f20746869732066756e6374696f6e2e000000000000000000000000000000000081525060400191505060405180910390fd5b73__Utils_________________________________63cd817f4b6002846040518363ffffffff167c010000000000000000000000000000000000000000000000000000000002815260040180806020018373ffffffffffffffffffffffffffffffffffffffff1673ffffffffffffffffffffffffffffffffffffffff1681526020018281038252848181548152602001915080548015610a7457602002820191906000526020600020905b8160009054906101000a900473ffffffffffffffffffffffffffffffffffffffff1673ffffffffffffffffffffffffffffffffffffffff1681526020019060010190808311610a2a575b5050935050505060206040518083038186803b158015610a9357600080fd5b505af4158015610aa7573d6000803e3d6000fd5b505050506040513d6020811015610abd57600080fd5b8101908080519060200190929190505050151515610b69576040517f08c379a00000000000000000000000000000000000000000000000000000000081526004018080602001828103825260348152602001807f5468652073746f7265206f776e65722077697468207468652073616d6520616481526020017f647265737320616c72656164792065786973742100000000000000000000000081525060400191505060405180910390fd5b60028290806001815401808255809150509060018203906000526020600020016000909192909190916101000a81548173ffffffffffffffffffffffffffffffffffffffff021916908373ffffffffffffffffffffffffffffffffffffffff1602179055505060019050919050565b600080600090505b600180549050811015610c70578273ffffffffffffffffffffffffffffffffffffffff16600182815481101515610c1357fe5b9060005260206000200160009054906101000a900473ffffffffffffffffffffffffffffffffffffffff1673ffffffffffffffffffffffffffffffffffffffff161415610c635760019150610c75565b8080600101915050610be0565b600091505b50919050565b60008060009054906101000a900473ffffffffffffffffffffffffffffffffffffffff1673ffffffffffffffffffffffffffffffffffffffff163373ffffffffffffffffffffffffffffffffffffffff16141515610d67576040517f08c379a00000000000000000000000000000000000000000000000000000000081526004018080602001828103825260328152602001807f4f6e6c792053757065722041646d696e6973747261746f722063616e20696e7681526020017f6f6b6520746869732066756e6374696f6e2e000000000000000000000000000081525060400191505060405180910390fd5b73__Utils_________________________________63cd817f4b6001846040518363ffffffff167c010000000000000000000000000000000000000000000000000000000002815260040180806020018373ffffffffffffffffffffffffffffffffffffffff1673ffffffffffffffffffffffffffffffffffffffff1681526020018281038252848181548152602001915080548015610e5c57602002820191906000526020600020905b8160009054906101000a900473ffffffffffffffffffffffffffffffffffffffff1673ffffffffffffffffffffffffffffffffffffffff1681526020019060010190808311610e12575b5050935050505060206040518083038186803b158015610e7b57600080fd5b505af4158015610e8f573d6000803e3d6000fd5b505050506040513d6020811015610ea557600080fd5b8101908080519060200190929190505050151515610f51576040517f08c379a000000000000000000000000000000000000000000000000000000000815260040180806020018281038252602a8152602001807f546865206164647265737320697320616c726561647920696e2074686520416481526020017f6d696e2067726f7570210000000000000000000000000000000000000000000081525060400191505060405180910390fd5b60018290806001815401808255809150509060018203906000526020600020016000909192909190916101000a81548173ffffffffffffffffffffffffffffffffffffffff021916908373ffffffffffffffffffffffffffffffffffffffff16021790555050819050919050565b600460205281600052604060002081815481101515610fda57fe5b906000526020600020016000915091509054906101000a900473ffffffffffffffffffffffffffffffffffffffff1681565b60008073__Utils_________________________________63cd817f4b6002336040518363ffffffff167c010000000000000000000000000000000000000000000000000000000002815260040180806020018373ffffffffffffffffffffffffffffffffffffffff1673ffffffffffffffffffffffffffffffffffffffff168152602001828103825284818154815260200191508054801561110457602002820191906000526020600020905b8160009054906101000a900473ffffffffffffffffffffffffffffffffffffffff1673ffffffffffffffffffffffffffffffffffffffff16815260200190600101908083116110ba575b5050935050505060206040518083038186803b15801561112357600080fd5b505af4158015611137573d6000803e3d6000fd5b505050506040513d602081101561114d57600080fd5b810190808051906020019092919050505015156111f8576040517f08c379a000000000000000000000000000000000000000000000000000000000815260040180806020018281038252602f8152602001807f4f6e6c7920616e2041646d696e6973747261746f722063616e20696e766f6b6581526020017f20746869732066756e6374696f6e2e000000000000000000000000000000000081525060400191505060405180910390fd5b600460003373ffffffffffffffffffffffffffffffffffffffff1673ffffffffffffffffffffffffffffffffffffffff1681526020019081526020016000208054905090506000811415611294576001600460003373ffffffffffffffffffffffffffffffffffffffff1673ffffffffffffffffffffffffffffffffffffffff1681526020019081526020016000208161129291906115b1565b505b83836003546112a16115dd565b808060200180602001848152602001838103835286818151815260200191508051906020019080838360005b838110156112e85780820151818401526020810190506112cd565b50505050905090810190601f1680156113155780820380516001836020036101000a031916815260200191505b50838103825285818151815260200191508051906020019080838360005b8381101561134e578082015181840152602081019050611333565b50505050905090810190601f16801561137b5780820380516001836020036101000a031916815260200191505b5095505050505050604051809103906000f08015801561139f573d6000803e3d6000fd5b50600460003373ffffffffffffffffffffffffffffffffffffffff1673ffffffffffffffffffffffffffffffffffffffff168152602001908152602001600020828154811015156113ec57fe5b9060005260206000200160006101000a81548173ffffffffffffffffffffffffffffffffffffffff021916908373ffffffffffffffffffffffffffffffffffffffff160217905550600360008154809291906001019190505591505092915050565b6060600460008373ffffffffffffffffffffffffffffffffffffffff1673ffffffffffffffffffffffffffffffffffffffff16815260200190815260200160002080548060200260200160405190810160405280929190818152602001828054801561150f57602002820191906000526020600020905b8160009054906101000a900473ffffffffffffffffffffffffffffffffffffffff1673ffffffffffffffffffffffffffffffffffffffff16815260200190600101908083116114c5575b50505050509050919050565b6060600280548060200260200160405190810160405280929190818152602001828054801561159f57602002820191906000526020600020905b8160009054906101000a900473ffffffffffffffffffffffffffffffffffffffff1673ffffffffffffffffffffffffffffffffffffffff1681526020019060010190808311611555575b5050505050905090565b600080905090565b8154818355818111156115d8578183600052602060002091820191016115d791906115ed565b5b505050565b6040516114168061161383390190565b61160f91905b8082111561160b5760008160009055506001016115f3565b5090565b90560060806040523480156200001157600080fd5b506040516200141638038062001416833981018060405281019080805182019291906020018051820192919060200180519060200190929190505050336000806101000a81548173ffffffffffffffffffffffffffffffffffffffff021916908373ffffffffffffffffffffffffffffffffffffffff1602179055508260019080519060200190620000a5929190620000d7565b50806003819055508160029080519060200190620000c5929190620000d7565b50600160048190555050505062000186565b828054600181600116156101000203166002900490600052602060002090601f016020900481019282601f106200011a57805160ff19168380011785556200014b565b828001600101855582156200014b579182015b828111156200014a5782518255916020019190600101906200012d565b5b5090506200015a91906200015e565b5090565b6200018391905b808211156200017f57600081600090555060010162000165565b5090565b90565b61128080620001966000396000f300608060405260043610610078576000357c0100000000000000000000000000000000000000000000000000000000900463ffffffff1680630cee17251461007d5780635287d535146100b15780637acc0b20146100e85780639498be1b14610224578063de084730146102fb578063f94eb18214610325575b600080fd5b61009b6004803603810190808035906020019092919050505061040a565b6040518082815260200191505060405180910390f35b3480156100bd57600080fd5b506100e6600480360381019080803590602001909291908035906020019092919050505061063e565b005b3480156100f457600080fd5b506101136004803603810190808035906020019092919050505061086e565b60405180878152602001806020018060200186815260200185815260200184600181111561013d57fe5b60ff168152602001838103835288818151815260200191508051906020019080838360005b8381101561017d578082015181840152602081019050610162565b50505050905090810190601f1680156101aa5780820380516001836020036101000a031916815260200191505b50838103825287818151815260200191508051906020019080838360005b838110156101e35780820151818401526020810190506101c8565b50505050905090810190601f1680156102105780820380516001836020036101000a031916815260200191505b509850505050505050505060405180910390f35b34801561023057600080fd5b506102e5600480360381019080803590602001908201803590602001908080601f0160208091040260200160405190810160405280939291908181526020018383808284378201915050505050509192919290803590602001908201803590602001908080601f016020809104026020016040519081016040528093929190818152602001838380828437820191505050505050919291929080359060200190929190803590602001909291905050506109e7565b6040518082815260200191505060405180910390f35b6103236004803603810190808035906020019092919080359060200190929190505050610bc3565b005b34801561033157600080fd5b506103f060048036038101908080359060200190929190803590602001908201803590602001908080601f0160208091040260200160405190810160405280939291908181526020018383808284378201915050505050509192919290803590602001908201803590602001908080601f01602080910402602001604051908101604052809392919081815260200183838082843782019150505050505091929192908035906020019092919080359060200190929190505050610ecf565b604051808215151515815260200191505060405180910390f35b60003373ffffffffffffffffffffffffffffffffffffffff166000809054906101000a900473ffffffffffffffffffffffffffffffffffffffff1673ffffffffffffffffffffffffffffffffffffffff161415156104f6576040517f08c379a000000000000000000000000000000000000000000000000000000000815260040180806020018281038252602f8152602001807f4f6e6c7920616e2041646d696e6973747261746f722063616e20696e766f6b6581526020017f20746869732066756e6374696f6e2e000000000000000000000000000000000081525060400191505060405180910390fd5b813073ffffffffffffffffffffffffffffffffffffffff1631101515156105d1576040517f08c379a00000000000000000000000000000000000000000000000000000000081526004018080602001828103825260478152602001807f5468652063757272656e742073746f726527732062616c616e6365206d75737481526020017f2062652067726561746572207468616e20746865207769746864726177616c2081526020017f616d6f756e74210000000000000000000000000000000000000000000000000081525060600191505060405180910390fd5b6000809054906101000a900473ffffffffffffffffffffffffffffffffffffffff1673ffffffffffffffffffffffffffffffffffffffff166108fc839081150290604051600060405180830381858888f19350505050158015610638573d6000803e3d6000fd5b50919050565b3373ffffffffffffffffffffffffffffffffffffffff166000809054906101000a900473ffffffffffffffffffffffffffffffffffffffff1673ffffffffffffffffffffffffffffffffffffffff16141515610728576040517f08c379a000000000000000000000000000000000000000000000000000000000815260040180806020018281038252602f8152602001807f4f6e6c7920616e2041646d696e6973747261746f722063616e20696e766f6b6581526020017f20746869732066756e6374696f6e2e000000000000000000000000000000000081525060400191505060405180910390fd5b6000600181111561073557fe5b6005600084815260200190815260200160002060050160009054906101000a900460ff16600181111561076457fe5b1415156107ff576040517f08c379a00000000000000000000000000000000000000000000000000000000081526004018080602001828103825260318152602001807f4f6e6c7920746865206163746976652070726f647563742063616e206265206d81526020017f61726b65642061732072656d6f7665642100000000000000000000000000000081525060400191505060405180910390fd5b80600560008481526020019081526020016000206004015403600560008481526020019081526020016000206004018190555060016005600084815260200190815260200160002060050160006101000a81548160ff0219169083600181111561086557fe5b02179055505050565b6005602052806000526040600020600091509050806000015490806001018054600181600116156101000203166002900480601f0160208091040260200160405190810160405280929190818152602001828054600181600116156101000203166002900480156109205780601f106108f557610100808354040283529160200191610920565b820191906000526020600020905b81548152906001019060200180831161090357829003601f168201915b505050505090806002018054600181600116156101000203166002900480601f0160208091040260200160405190810160405280929190818152602001828054600181600116156101000203166002900480156109be5780601f10610993576101008083540402835291602001916109be565b820191906000526020600020905b8154815290600101906020018083116109a157829003601f168201915b5050505050908060030154908060040154908060050160009054906101000a900460ff16905086565b60003373ffffffffffffffffffffffffffffffffffffffff166000809054906101000a900473ffffffffffffffffffffffffffffffffffffffff1673ffffffffffffffffffffffffffffffffffffffff16141515610ad3576040517f08c379a000000000000000000000000000000000000000000000000000000000815260040180806020018281038252602f8152602001807f4f6e6c7920616e2041646d696e6973747261746f722063616e20696e766f6b6581526020017f20746869732066756e6374696f6e2e000000000000000000000000000000000081525060400191505060405180910390fd5b60c060405190810160405280600454815260200186815260200185815260200184815260200183815260200160006001811115610b0c57fe5b815250600560006004548152602001908152602001600020600082015181600001556020820151816001019080519060200190610b4a92919061112f565b506040820151816002019080519060200190610b6792919061112f565b50606082015181600301556080820151816004015560a08201518160050160006101000a81548160ff02191690836001811115610ba057fe5b021790555090505060046000815480929190600101919050559050949350505050565b60006001811115610bd057fe5b6005600084815260200190815260200160002060050160009054906101000a900460ff166001811115610bff57fe5b141515610c9a576040517f08c379a00000000000000000000000000000000000000000000000000000000081526004018080602001828103825260268152602001807f4f6e6c7920746865206163746976652070726f647563742063616e206265206281526020017f6f7567687421000000000000000000000000000000000000000000000000000081525060400191505060405180910390fd5b3373ffffffffffffffffffffffffffffffffffffffff166000809054906101000a900473ffffffffffffffffffffffffffffffffffffffff1673ffffffffffffffffffffffffffffffffffffffff1614151515610d85576040517f08c379a00000000000000000000000000000000000000000000000000000000081526004018080602001828103825260258152602001807f546865206f776e65722063616e6e6f742062757920697473206f776e2070726f81526020017f647563742100000000000000000000000000000000000000000000000000000081525060400191505060405180910390fd5b60056000838152602001908152602001600020600401548111151515610e39576040517f08c379a000000000000000000000000000000000000000000000000000000000815260040180806020018281038252603a8152602001807f5468652073746f726520646f6573206e6f74206861766520737566666963696581526020017f6e74207175616e74697479206f66207468652070726f6475637400000000000081525060400191505060405180910390fd5b8060056000848152602001908152602001600020600401540360056000848152602001908152602001600020600401819055503073ffffffffffffffffffffffffffffffffffffffff166108fc600560008581526020019081526020016000206003015483029081150290604051600060405180830381858888f19350505050158015610eca573d6000803e3d6000fd5b505050565b60003373ffffffffffffffffffffffffffffffffffffffff166000809054906101000a900473ffffffffffffffffffffffffffffffffffffffff1673ffffffffffffffffffffffffffffffffffffffff16141515610fbb576040517f08c379a000000000000000000000000000000000000000000000000000000000815260040180806020018281038252602f8152602001807f4f6e6c7920616e2041646d696e6973747261746f722063616e20696e766f6b6581526020017f20746869732066756e6374696f6e2e000000000000000000000000000000000081525060400191505060405180910390fd5b6000600560008881526020019081526020016000206000015414151515611096576040517f08c379a00000000000000000000000000000000000000000000000000000000081526004018080602001828103825260498152602001807f50726f6475637420666f722074686520676976656e2073746f7265206964206181526020017f6e642070726f6475637420696420636f6d62696e6174696f6e20646f6573206e81526020017f6f7420657869737421000000000000000000000000000000000000000000000081525060600191505060405180910390fd5b846005600088815260200190815260200160002060010190805190602001906110c09291906111af565b50836005600088815260200190815260200160002060020190805190602001906110eb9291906111af565b508260056000888152602001908152602001600020600301819055508160056000888152602001908152602001600020600401819055506001905095945050505050565b828054600181600116156101000203166002900490600052602060002090601f016020900481019282601f1061117057805160ff191683800117855561119e565b8280016001018555821561119e579182015b8281111561119d578251825591602001919060010190611182565b5b5090506111ab919061122f565b5090565b828054600181600116156101000203166002900490600052602060002090601f016020900481019282601f106111f057805160ff191683800117855561121e565b8280016001018555821561121e579182015b8281111561121d578251825591602001919060010190611202565b5b50905061122b919061122f565b5090565b61125191905b8082111561124d576000816000905550600101611235565b5090565b905600a165627a7a72305820f529c910524a1be247d762f9ffd84fce2dcc37d300244e3617bc3f8eed999a8b0029a165627a7a72305820d5c5f30eaea1c1bc7cef9c730f205cce5fa63508cb4dea0cbf66451ac53b81890029",
  "source": "pragma solidity ^0.4.22;\r\n\r\nimport \"./Store.sol\";\r\nimport \"./library/Utils.sol\";\r\n\r\n/**\r\n * There are a list of stores on a central marketplace where shoppers can purchase goods posted by the store owners.\r\n * The central marketplace is managed by a group of administrators. Admins allow store owners to add stores\r\n * to the marketplace. Store owners can manage their stores inventory and funds. Shoppers can visit stores and purchase\r\n * goods that are in stock using cryptocurrency.\r\n *\r\n */\r\n\r\ncontract MarketPlace {\r\n    address superAdmin;\r\n    address[] public adminUsers;\r\n    address[] public storeOwners;\r\n    uint private nextStoreId;\r\n\r\n    // mapping of stores of a given store owner\r\n    mapping (address => address[]) public storeFrontMap;\r\n\r\n    /**\r\n     * Initialize state variables, specifically, the Super Administrator!\r\n     * Also, add that address in the Admin list.\r\n     */\r\n    constructor() public {\r\n        superAdmin = msg.sender;\r\n        adminUsers.push(msg.sender);\r\n        nextStoreId = 1;\r\n    }\r\n\r\n    /**\r\n     * Only SuperAdmin shall be able to create an Admin user\r\n    */\r\n    modifier onlySuperAdmin {\r\n        require( msg.sender == superAdmin, \"Only Super Administrator can invoke this function.\");\r\n        _;\r\n    }\r\n\r\n    /**\r\n     * Only Admin shall be allowed to create a store\r\n    */\r\n    modifier onlyAdmin {\r\n        require( Utils.existInTheArray(adminUsers, msg.sender), \"Only an Administrator can invoke this function.\");\r\n        _;\r\n    }\r\n\r\n    /**\r\n     * Only store owners shall be allowed to add stores.\r\n     *\r\n    */\r\n    modifier onlyStoreOwner {\r\n        require( Utils.existInTheArray(storeOwners, msg.sender), \"Only an Administrator can invoke this function.\");\r\n        _;\r\n    }\r\n\r\n    /**\r\n     * A super administrator can create one or more administrator, who will have same access, except that\r\n     * they cannot create another administrator\r\n     */\r\n    function createAdminUser(address newAdminUser) public onlySuperAdmin returns(address){\r\n        require(!Utils.existInTheArray(adminUsers, newAdminUser), \"The address is already in the Admin group!\");\r\n\r\n        adminUsers.push(newAdminUser);\r\n\r\n        return newAdminUser;\r\n    }\r\n\r\n    /**\r\n    * This function verifies if an address has an admin access or not.\r\n    */\r\n    function checkAdmingAccess(address addressToVerify) view public returns(bool) {\r\n      for (uint index = 0; index <adminUsers.length; index++) {\r\n        if (adminUsers[index] == addressToVerify) {\r\n          return true;\r\n        }\r\n      }\r\n\r\n      return false;\r\n    }\r\n\r\n    /**\r\n     * Any Admin shall be able to add a store owner.\r\n     * Of course, we need to make sure that a given address is added only once.\r\n    */\r\n    function createStoreOwner(address newStoreOwnerAddress) public onlyAdmin returns(bool){\r\n        require( !Utils.existInTheArray(storeOwners, newStoreOwnerAddress), \"The store owner with the same address already exist!\");\r\n\r\n        storeOwners.push(newStoreOwnerAddress);\r\n\r\n        return true;\r\n    }\r\n\r\n    /**\r\n     * A store owner shall be able to create one or more stores.\r\n     * The created store will be associated with the store owner using storeFrontMap, where the store owner's\r\n     * address is a key and the value is a map of storeId and Store.\r\n     *\r\n    */\r\n    function createStoreFront( string storeName, string storeDescription ) public onlyStoreOwner returns(uint){\r\n        uint storeCount = storeFrontMap[msg.sender].length;\r\n\r\n        if (storeCount == 0) {\r\n          storeFrontMap[msg.sender].length = 1;\r\n        }\r\n\r\n        storeFrontMap[msg.sender][storeCount] = address(new Store( storeName, storeDescription, nextStoreId ));\r\n\r\n        return nextStoreId++;\r\n    }\r\n\r\n    function getStoreOwners() public view returns(address[]) {\r\n    return storeOwners;\r\n  }\r\n\r\n    /**\r\n     * this function will be used for retriving all the stores of a given store owner\r\n     *\r\n     */\r\n    function getStores(address storeOwnerAddress) public view returns(address[]) {\r\n        return storeFrontMap[storeOwnerAddress];\r\n    }\r\n\r\n\r\n    /**\r\n     * The market place can be destructed by only the super admin, that too when we have at least 75% of the store owners\r\n     * agreeing to this decision.\r\n    */\r\n    function closeMarketPlace() public onlySuperAdmin {\r\n        bool haveConsentOfStoreOwners = getConsentForClosure();\r\n\r\n        require(haveConsentOfStoreOwners, \"You do not have the sufficient consensus to close the market place!\");\r\n\r\n        selfdestruct(superAdmin);\r\n    }\r\n\r\n    /**\r\n     * In case we want to allow the closure of the Market Place then implement this function\r\n     * with proper logic.\r\n    */\r\n    function getConsentForClosure() private pure returns(bool) {\r\n        return false;\r\n    }\r\n}\r\n",
  "sourcePath": "C:\\xampp\\htdocs\\angular-truffle-onlineMkt\\contracts\\MarketPlace.sol",
  "compiler": {
    "name": "solc",
    "version": "0.4.24+commit.e67f0147.Emscripten.clang"
  },
  "schemaVersion": "2.0.1",
  "updatedAt": "2018-08-08T17:30:53.059Z"
}