{
  "contractName": "MarketPlace",
  "abi": [
    {
      "constant": true,
      "inputs": [
        {
          "name": "",
          "type": "uint256"
        }
      ],
      "name": "adminUsers",
      "outputs": [
        {
          "name": "",
          "type": "address"
        }
      ],
      "payable": false,
      "stateMutability": "view",
      "type": "function"
    },
    {
      "constant": true,
      "inputs": [
        {
          "name": "",
          "type": "uint256"
        }
      ],
      "name": "storeOwners",
      "outputs": [
        {
          "name": "",
          "type": "address"
        }
      ],
      "payable": false,
      "stateMutability": "view",
      "type": "function"
    },
    {
      "constant": true,
      "inputs": [
        {
          "name": "",
          "type": "address"
        },
        {
          "name": "",
          "type": "uint256"
        }
      ],
      "name": "storeFrontMap",
      "outputs": [
        {
          "name": "",
          "type": "address"
        }
      ],
      "payable": false,
      "stateMutability": "view",
      "type": "function"
    },
    {
      "inputs": [],
      "payable": false,
      "stateMutability": "nonpayable",
      "type": "constructor"
    },
    {
      "constant": false,
      "inputs": [
        {
          "name": "newAdminUser",
          "type": "address"
        }
      ],
      "name": "createAdminUser",
      "outputs": [],
      "payable": false,
      "stateMutability": "nonpayable",
      "type": "function"
    },
    {
      "constant": false,
      "inputs": [
        {
          "name": "newStoreOwnerAddress",
          "type": "address"
        }
      ],
      "name": "createStoreOwner",
      "outputs": [],
      "payable": false,
      "stateMutability": "nonpayable",
      "type": "function"
    },
    {
      "constant": false,
      "inputs": [
        {
          "name": "storeName",
          "type": "string"
        },
        {
          "name": "storeDescription",
          "type": "string"
        }
      ],
      "name": "createStoreFront",
      "outputs": [
        {
          "name": "",
          "type": "uint256"
        }
      ],
      "payable": false,
      "stateMutability": "nonpayable",
      "type": "function"
    },
    {
      "constant": true,
      "inputs": [
        {
          "name": "storeOwnerAddress",
          "type": "address"
        }
      ],
      "name": "getStores",
      "outputs": [
        {
          "name": "",
          "type": "address[]"
        }
      ],
      "payable": false,
      "stateMutability": "view",
      "type": "function"
    },
    {
      "constant": true,
      "inputs": [],
      "name": "getStoreOwners",
      "outputs": [
        {
          "name": "",
          "type": "address[]"
        }
      ],
      "payable": false,
      "stateMutability": "view",
      "type": "function"
    },
    {
      "constant": false,
      "inputs": [],
      "name": "closeMarketPlace",
      "outputs": [],
      "payable": false,
      "stateMutability": "nonpayable",
      "type": "function"
    }
  ],
  "bytecode": "0x608060405234801561001057600080fd5b50336000806101000a81548173ffffffffffffffffffffffffffffffffffffffff021916908373ffffffffffffffffffffffffffffffffffffffff16021790555060013390806001815401808255809150509060018203906000526020600020016000909192909190916101000a81548173ffffffffffffffffffffffffffffffffffffffff021916908373ffffffffffffffffffffffffffffffffffffffff1602179055505060016003819055506127fe806100ce6000396000f300608060405260043610610099576000357c0100000000000000000000000000000000000000000000000000000000900463ffffffff1680631fa9acf11461009e57806329cbf2e91461010b57806344d50993146101225780634baa0f5e1461018f57806361878fc4146101d257806373a296ba1461021557806375b9960e146102a257806375dae8a61461036557806391f4245a146103fd575b600080fd5b3480156100aa57600080fd5b506100c960048036038101908080359060200190929190505050610469565b604051808273ffffffffffffffffffffffffffffffffffffffff1673ffffffffffffffffffffffffffffffffffffffff16815260200191505060405180910390f35b34801561011757600080fd5b506101206104a7565b005b34801561012e57600080fd5b5061014d60048036038101908080359060200190929190505050610698565b604051808273ffffffffffffffffffffffffffffffffffffffff1673ffffffffffffffffffffffffffffffffffffffff16815260200191505060405180910390f35b34801561019b57600080fd5b506101d0600480360381019080803573ffffffffffffffffffffffffffffffffffffffff1690602001909291905050506106d6565b005b3480156101de57600080fd5b50610213600480360381019080803573ffffffffffffffffffffffffffffffffffffffff169060200190929190505050610b12565b005b34801561022157600080fd5b50610260600480360381019080803573ffffffffffffffffffffffffffffffffffffffff16906020019092919080359060200190929190505050610e4f565b604051808273ffffffffffffffffffffffffffffffffffffffff1673ffffffffffffffffffffffffffffffffffffffff16815260200191505060405180910390f35b3480156102ae57600080fd5b5061034f600480360381019080803590602001908201803590602001908080601f0160208091040260200160405190810160405280939291908181526020018383808284378201915050505050509192919290803590602001908201803590602001908080601f0160208091040260200160405190810160405280939291908181526020018383808284378201915050505050509192919290505050610e9c565b6040518082815260200191505060405180910390f35b34801561037157600080fd5b506103a6600480360381019080803573ffffffffffffffffffffffffffffffffffffffff169060200190929190505050611249565b6040518080602001828103825283818151815260200191508051906020019060200280838360005b838110156103e95780820151818401526020810190506103ce565b505050509050019250505060405180910390f35b34801561040957600080fd5b50610412611316565b6040518080602001828103825283818151815260200191508051906020019060200280838360005b8381101561045557808201518184015260208101905061043a565b505050509050019250505060405180910390f35b60018181548110151561047857fe5b906000526020600020016000915054906101000a900473ffffffffffffffffffffffffffffffffffffffff1681565b60008060009054906101000a900473ffffffffffffffffffffffffffffffffffffffff1673ffffffffffffffffffffffffffffffffffffffff163373ffffffffffffffffffffffffffffffffffffffff16141515610593576040517f08c379a00000000000000000000000000000000000000000000000000000000081526004018080602001828103825260328152602001807f4f6e6c792053757065722041646d696e6973747261746f722063616e20696e7681526020017f6f6b6520746869732066756e6374696f6e2e000000000000000000000000000081525060400191505060405180910390fd5b61059b6113a4565b905080151561065e576040517f08c379a00000000000000000000000000000000000000000000000000000000081526004018080602001828103825260438152602001807f596f7520646f206e6f742068617665207468652073756666696369656e74206381526020017f6f6e73656e73757320746f20636c6f736520746865206d61726b657420706c6181526020017f636521000000000000000000000000000000000000000000000000000000000081525060600191505060405180910390fd5b6000809054906101000a900473ffffffffffffffffffffffffffffffffffffffff1673ffffffffffffffffffffffffffffffffffffffff16ff5b6002818154811015156106a757fe5b906000526020600020016000915054906101000a900473ffffffffffffffffffffffffffffffffffffffff1681565b73__Utils_________________________________63cd817f4b6001336040518363ffffffff167c010000000000000000000000000000000000000000000000000000000002815260040180806020018373ffffffffffffffffffffffffffffffffffffffff1673ffffffffffffffffffffffffffffffffffffffff16815260200182810382528481815481526020019150805480156107cb57602002820191906000526020600020905b8160009054906101000a900473ffffffffffffffffffffffffffffffffffffffff1673ffffffffffffffffffffffffffffffffffffffff1681526020019060010190808311610781575b5050935050505060206040518083038186803b1580156107ea57600080fd5b505af41580156107fe573d6000803e3d6000fd5b505050506040513d602081101561081457600080fd5b810190808051906020019092919050505015156108bf576040517f08c379a000000000000000000000000000000000000000000000000000000000815260040180806020018281038252602f8152602001807f4f6e6c7920616e2041646d696e6973747261746f722063616e20696e766f6b6581526020017f20746869732066756e6374696f6e2e000000000000000000000000000000000081525060400191505060405180910390fd5b73__Utils_________________________________63cd817f4b6002836040518363ffffffff167c010000000000000000000000000000000000000000000000000000000002815260040180806020018373ffffffffffffffffffffffffffffffffffffffff1673ffffffffffffffffffffffffffffffffffffffff16815260200182810382528481815481526020019150805480156109b457602002820191906000526020600020905b8160009054906101000a900473ffffffffffffffffffffffffffffffffffffffff1673ffffffffffffffffffffffffffffffffffffffff168152602001906001019080831161096a575b5050935050505060206040518083038186803b1580156109d357600080fd5b505af41580156109e7573d6000803e3d6000fd5b505050506040513d60208110156109fd57600080fd5b8101908080519060200190929190505050151515610aa9576040517f08c379a00000000000000000000000000000000000000000000000000000000081526004018080602001828103825260348152602001807f5468652073746f7265206f776e65722077697468207468652073616d6520616481526020017f647265737320616c72656164792065786973742100000000000000000000000081525060400191505060405180910390fd5b60028190806001815401808255809150509060018203906000526020600020016000909192909190916101000a81548173ffffffffffffffffffffffffffffffffffffffff021916908373ffffffffffffffffffffffffffffffffffffffff1602179055505050565b6000809054906101000a900473ffffffffffffffffffffffffffffffffffffffff1673ffffffffffffffffffffffffffffffffffffffff163373ffffffffffffffffffffffffffffffffffffffff16141515610bfc576040517f08c379a00000000000000000000000000000000000000000000000000000000081526004018080602001828103825260328152602001807f4f6e6c792053757065722041646d696e6973747261746f722063616e20696e7681526020017f6f6b6520746869732066756e6374696f6e2e000000000000000000000000000081525060400191505060405180910390fd5b73__Utils_________________________________63cd817f4b6001836040518363ffffffff167c010000000000000000000000000000000000000000000000000000000002815260040180806020018373ffffffffffffffffffffffffffffffffffffffff1673ffffffffffffffffffffffffffffffffffffffff1681526020018281038252848181548152602001915080548015610cf157602002820191906000526020600020905b8160009054906101000a900473ffffffffffffffffffffffffffffffffffffffff1673ffffffffffffffffffffffffffffffffffffffff1681526020019060010190808311610ca7575b5050935050505060206040518083038186803b158015610d1057600080fd5b505af4158015610d24573d6000803e3d6000fd5b505050506040513d6020811015610d3a57600080fd5b8101908080519060200190929190505050151515610de6576040517f08c379a000000000000000000000000000000000000000000000000000000000815260040180806020018281038252602a8152602001807f546865206164647265737320697320616c726561647920696e2074686520416481526020017f6d696e2067726f7570210000000000000000000000000000000000000000000081525060400191505060405180910390fd5b60018190806001815401808255809150509060018203906000526020600020016000909192909190916101000a81548173ffffffffffffffffffffffffffffffffffffffff021916908373ffffffffffffffffffffffffffffffffffffffff1602179055505050565b600460205281600052604060002081815481101515610e6a57fe5b906000526020600020016000915091509054906101000a900473ffffffffffffffffffffffffffffffffffffffff1681565b60008073__Utils_________________________________63cd817f4b6002336040518363ffffffff167c010000000000000000000000000000000000000000000000000000000002815260040180806020018373ffffffffffffffffffffffffffffffffffffffff1673ffffffffffffffffffffffffffffffffffffffff1681526020018281038252848181548152602001915080548015610f9457602002820191906000526020600020905b8160009054906101000a900473ffffffffffffffffffffffffffffffffffffffff1673ffffffffffffffffffffffffffffffffffffffff1681526020019060010190808311610f4a575b5050935050505060206040518083038186803b158015610fb357600080fd5b505af4158015610fc7573d6000803e3d6000fd5b505050506040513d6020811015610fdd57600080fd5b81019080805190602001909291905050501515611088576040517f08c379a000000000000000000000000000000000000000000000000000000000815260040180806020018281038252602f8152602001807f4f6e6c7920616e2041646d696e6973747261746f722063616e20696e766f6b6581526020017f20746869732066756e6374696f6e2e000000000000000000000000000000000081525060400191505060405180910390fd5b600460003373ffffffffffffffffffffffffffffffffffffffff1673ffffffffffffffffffffffffffffffffffffffff168152602001908152602001600020905083836003546110d66113ac565b808060200180602001848152602001838103835286818151815260200191508051906020019080838360005b8381101561111d578082015181840152602081019050611102565b50505050905090810190601f16801561114a5780820380516001836020036101000a031916815260200191505b50838103825285818151815260200191508051906020019080838360005b83811015611183578082015181840152602081019050611168565b50505050905090810190601f1680156111b05780820380516001836020036101000a031916815260200191505b5095505050505050604051809103906000f0801580156111d4573d6000803e3d6000fd5b508182805490508154811015156111e757fe5b9060005260206000200160006101000a81548173ffffffffffffffffffffffffffffffffffffffff021916908373ffffffffffffffffffffffffffffffffffffffff160217905550600360008154809291906001019190505591505092915050565b6060600460008373ffffffffffffffffffffffffffffffffffffffff1673ffffffffffffffffffffffffffffffffffffffff16815260200190815260200160002080548060200260200160405190810160405280929190818152602001828054801561130a57602002820191906000526020600020905b8160009054906101000a900473ffffffffffffffffffffffffffffffffffffffff1673ffffffffffffffffffffffffffffffffffffffff16815260200190600101908083116112c0575b50505050509050919050565b6060600280548060200260200160405190810160405280929190818152602001828054801561139a57602002820191906000526020600020905b8160009054906101000a900473ffffffffffffffffffffffffffffffffffffffff1673ffffffffffffffffffffffffffffffffffffffff1681526020019060010190808311611350575b5050505050905090565b600080905090565b604051611416806113bd83390190560060806040523480156200001157600080fd5b506040516200141638038062001416833981018060405281019080805182019291906020018051820192919060200180519060200190929190505050336000806101000a81548173ffffffffffffffffffffffffffffffffffffffff021916908373ffffffffffffffffffffffffffffffffffffffff1602179055508260019080519060200190620000a5929190620000d7565b50806003819055508160029080519060200190620000c5929190620000d7565b50600160048190555050505062000186565b828054600181600116156101000203166002900490600052602060002090601f016020900481019282601f106200011a57805160ff19168380011785556200014b565b828001600101855582156200014b579182015b828111156200014a5782518255916020019190600101906200012d565b5b5090506200015a91906200015e565b5090565b6200018391905b808211156200017f57600081600090555060010162000165565b5090565b90565b61128080620001966000396000f300608060405260043610610078576000357c0100000000000000000000000000000000000000000000000000000000900463ffffffff1680630cee17251461007d5780635287d535146100b15780637acc0b20146100e85780639498be1b14610224578063de084730146102fb578063f94eb18214610325575b600080fd5b61009b6004803603810190808035906020019092919050505061040a565b6040518082815260200191505060405180910390f35b3480156100bd57600080fd5b506100e6600480360381019080803590602001909291908035906020019092919050505061063e565b005b3480156100f457600080fd5b506101136004803603810190808035906020019092919050505061086e565b60405180878152602001806020018060200186815260200185815260200184600181111561013d57fe5b60ff168152602001838103835288818151815260200191508051906020019080838360005b8381101561017d578082015181840152602081019050610162565b50505050905090810190601f1680156101aa5780820380516001836020036101000a031916815260200191505b50838103825287818151815260200191508051906020019080838360005b838110156101e35780820151818401526020810190506101c8565b50505050905090810190601f1680156102105780820380516001836020036101000a031916815260200191505b509850505050505050505060405180910390f35b34801561023057600080fd5b506102e5600480360381019080803590602001908201803590602001908080601f0160208091040260200160405190810160405280939291908181526020018383808284378201915050505050509192919290803590602001908201803590602001908080601f016020809104026020016040519081016040528093929190818152602001838380828437820191505050505050919291929080359060200190929190803590602001909291905050506109e7565b6040518082815260200191505060405180910390f35b6103236004803603810190808035906020019092919080359060200190929190505050610bc3565b005b34801561033157600080fd5b506103f060048036038101908080359060200190929190803590602001908201803590602001908080601f0160208091040260200160405190810160405280939291908181526020018383808284378201915050505050509192919290803590602001908201803590602001908080601f01602080910402602001604051908101604052809392919081815260200183838082843782019150505050505091929192908035906020019092919080359060200190929190505050610ecf565b604051808215151515815260200191505060405180910390f35b60003373ffffffffffffffffffffffffffffffffffffffff166000809054906101000a900473ffffffffffffffffffffffffffffffffffffffff1673ffffffffffffffffffffffffffffffffffffffff161415156104f6576040517f08c379a000000000000000000000000000000000000000000000000000000000815260040180806020018281038252602f8152602001807f4f6e6c7920616e2041646d696e6973747261746f722063616e20696e766f6b6581526020017f20746869732066756e6374696f6e2e000000000000000000000000000000000081525060400191505060405180910390fd5b813073ffffffffffffffffffffffffffffffffffffffff1631101515156105d1576040517f08c379a00000000000000000000000000000000000000000000000000000000081526004018080602001828103825260478152602001807f5468652063757272656e742073746f726527732062616c616e6365206d75737481526020017f2062652067726561746572207468616e20746865207769746864726177616c2081526020017f616d6f756e74210000000000000000000000000000000000000000000000000081525060600191505060405180910390fd5b6000809054906101000a900473ffffffffffffffffffffffffffffffffffffffff1673ffffffffffffffffffffffffffffffffffffffff166108fc839081150290604051600060405180830381858888f19350505050158015610638573d6000803e3d6000fd5b50919050565b3373ffffffffffffffffffffffffffffffffffffffff166000809054906101000a900473ffffffffffffffffffffffffffffffffffffffff1673ffffffffffffffffffffffffffffffffffffffff16141515610728576040517f08c379a000000000000000000000000000000000000000000000000000000000815260040180806020018281038252602f8152602001807f4f6e6c7920616e2041646d696e6973747261746f722063616e20696e766f6b6581526020017f20746869732066756e6374696f6e2e000000000000000000000000000000000081525060400191505060405180910390fd5b6000600181111561073557fe5b6005600084815260200190815260200160002060050160009054906101000a900460ff16600181111561076457fe5b1415156107ff576040517f08c379a00000000000000000000000000000000000000000000000000000000081526004018080602001828103825260318152602001807f4f6e6c7920746865206163746976652070726f647563742063616e206265206d81526020017f61726b65642061732072656d6f7665642100000000000000000000000000000081525060400191505060405180910390fd5b80600560008481526020019081526020016000206004015403600560008481526020019081526020016000206004018190555060016005600084815260200190815260200160002060050160006101000a81548160ff0219169083600181111561086557fe5b02179055505050565b6005602052806000526040600020600091509050806000015490806001018054600181600116156101000203166002900480601f0160208091040260200160405190810160405280929190818152602001828054600181600116156101000203166002900480156109205780601f106108f557610100808354040283529160200191610920565b820191906000526020600020905b81548152906001019060200180831161090357829003601f168201915b505050505090806002018054600181600116156101000203166002900480601f0160208091040260200160405190810160405280929190818152602001828054600181600116156101000203166002900480156109be5780601f10610993576101008083540402835291602001916109be565b820191906000526020600020905b8154815290600101906020018083116109a157829003601f168201915b5050505050908060030154908060040154908060050160009054906101000a900460ff16905086565b60003373ffffffffffffffffffffffffffffffffffffffff166000809054906101000a900473ffffffffffffffffffffffffffffffffffffffff1673ffffffffffffffffffffffffffffffffffffffff16141515610ad3576040517f08c379a000000000000000000000000000000000000000000000000000000000815260040180806020018281038252602f8152602001807f4f6e6c7920616e2041646d696e6973747261746f722063616e20696e766f6b6581526020017f20746869732066756e6374696f6e2e000000000000000000000000000000000081525060400191505060405180910390fd5b60c060405190810160405280600454815260200186815260200185815260200184815260200183815260200160006001811115610b0c57fe5b815250600560006004548152602001908152602001600020600082015181600001556020820151816001019080519060200190610b4a92919061112f565b506040820151816002019080519060200190610b6792919061112f565b50606082015181600301556080820151816004015560a08201518160050160006101000a81548160ff02191690836001811115610ba057fe5b021790555090505060046000815480929190600101919050559050949350505050565b60006001811115610bd057fe5b6005600084815260200190815260200160002060050160009054906101000a900460ff166001811115610bff57fe5b141515610c9a576040517f08c379a00000000000000000000000000000000000000000000000000000000081526004018080602001828103825260268152602001807f4f6e6c7920746865206163746976652070726f647563742063616e206265206281526020017f6f7567687421000000000000000000000000000000000000000000000000000081525060400191505060405180910390fd5b3373ffffffffffffffffffffffffffffffffffffffff166000809054906101000a900473ffffffffffffffffffffffffffffffffffffffff1673ffffffffffffffffffffffffffffffffffffffff1614151515610d85576040517f08c379a00000000000000000000000000000000000000000000000000000000081526004018080602001828103825260258152602001807f546865206f776e65722063616e6e6f742062757920697473206f776e2070726f81526020017f647563742100000000000000000000000000000000000000000000000000000081525060400191505060405180910390fd5b60056000838152602001908152602001600020600401548111151515610e39576040517f08c379a000000000000000000000000000000000000000000000000000000000815260040180806020018281038252603a8152602001807f5468652073746f726520646f6573206e6f74206861766520737566666963696581526020017f6e74207175616e74697479206f66207468652070726f6475637400000000000081525060400191505060405180910390fd5b8060056000848152602001908152602001600020600401540360056000848152602001908152602001600020600401819055503073ffffffffffffffffffffffffffffffffffffffff166108fc600560008581526020019081526020016000206003015483029081150290604051600060405180830381858888f19350505050158015610eca573d6000803e3d6000fd5b505050565b60003373ffffffffffffffffffffffffffffffffffffffff166000809054906101000a900473ffffffffffffffffffffffffffffffffffffffff1673ffffffffffffffffffffffffffffffffffffffff16141515610fbb576040517f08c379a000000000000000000000000000000000000000000000000000000000815260040180806020018281038252602f8152602001807f4f6e6c7920616e2041646d696e6973747261746f722063616e20696e766f6b6581526020017f20746869732066756e6374696f6e2e000000000000000000000000000000000081525060400191505060405180910390fd5b6000600560008881526020019081526020016000206000015414151515611096576040517f08c379a00000000000000000000000000000000000000000000000000000000081526004018080602001828103825260498152602001807f50726f6475637420666f722074686520676976656e2073746f7265206964206181526020017f6e642070726f6475637420696420636f6d62696e6174696f6e20646f6573206e81526020017f6f7420657869737421000000000000000000000000000000000000000000000081525060600191505060405180910390fd5b846005600088815260200190815260200160002060010190805190602001906110c09291906111af565b50836005600088815260200190815260200160002060020190805190602001906110eb9291906111af565b508260056000888152602001908152602001600020600301819055508160056000888152602001908152602001600020600401819055506001905095945050505050565b828054600181600116156101000203166002900490600052602060002090601f016020900481019282601f1061117057805160ff191683800117855561119e565b8280016001018555821561119e579182015b8281111561119d578251825591602001919060010190611182565b5b5090506111ab919061122f565b5090565b828054600181600116156101000203166002900490600052602060002090601f016020900481019282601f106111f057805160ff191683800117855561121e565b8280016001018555821561121e579182015b8281111561121d578251825591602001919060010190611202565b5b50905061122b919061122f565b5090565b61125191905b8082111561124d576000816000905550600101611235565b5090565b905600a165627a7a72305820f529c910524a1be247d762f9ffd84fce2dcc37d300244e3617bc3f8eed999a8b0029a165627a7a723058203b03f06b12d9e3fd6b98cf5891d26d76a79440322aec0b13f0cae2f71d352ada0029",
  "source": "pragma solidity ^0.4.20;\r\n\r\nimport \"./Store.sol\";\r\nimport \"./Utils.sol\";\r\n\r\n/**\r\n * There are a list of stores on a central marketplace where shoppers can purchase goods posted by the store owners.\r\n * The central marketplace is managed by a group of administrators. Admins allow store owners to add stores\r\n * to the marketplace. Store owners can manage their store’s inventory and funds. Shoppers can visit stores and purchase\r\n * goods that are in stock using cryptocurrency.\r\n *\r\n */\r\n\r\ncontract MarketPlace {\r\n    address superAdmin;\r\n    address[] public adminUsers;\r\n    address[] public storeOwners;\r\n    uint private nextStoreId;\r\n\r\n    // mapping of stores of a given store owner\r\n    mapping (address => address[]) public storeFrontMap;\r\n\r\n    /**\r\n     * Initialize state variables, specifically, the Super Administrator!\r\n     * Also, add that address in the Admin list.\r\n     */\r\n    constructor() public {\r\n        superAdmin = msg.sender;\r\n        adminUsers.push(msg.sender);\r\n        nextStoreId = 1;\r\n    }\r\n\r\n    /**\r\n     * Only SuperAdmin shall be able to create an Admin user\r\n    */\r\n    modifier onlySuperAdmin {\r\n        require( msg.sender == superAdmin, \"Only Super Administrator can invoke this function.\");\r\n        _;\r\n    }\r\n\r\n    /**\r\n     * Only Admin shall be allowed to create a store\r\n    */\r\n    modifier onlyAdmin {\r\n        require( Utils.existInTheArray(adminUsers, msg.sender), \"Only an Administrator can invoke this function.\");\r\n        _;\r\n    }\r\n\r\n    /**\r\n     * Only store owners shall be allowed to add stores.\r\n     *\r\n    */\r\n    modifier onlyStoreOwner {\r\n        require( Utils.existInTheArray(storeOwners, msg.sender), \"Only an Administrator can invoke this function.\");\r\n        _;\r\n    }\r\n\r\n    /**\r\n     * A super administrator can create one or more administrator, who will have same access, except that\r\n     * they cannot create another administrator\r\n     */\r\n    function createAdminUser(address newAdminUser) public onlySuperAdmin {\r\n        require(!Utils.existInTheArray(adminUsers, newAdminUser), \"The address is already in the Admin group!\");\r\n\r\n        adminUsers.push(newAdminUser);\r\n    }\r\n\r\n    /**\r\n     * Any Admin shall be able to add a store owner.\r\n     * Of course, we need to make sure that a given address is added only once.\r\n    */\r\n    function createStoreOwner(address newStoreOwnerAddress) public onlyAdmin {\r\n        require( !Utils.existInTheArray(storeOwners, newStoreOwnerAddress),\r\n                \"The store owner with the same address already exist!\");\r\n\r\n        storeOwners.push(newStoreOwnerAddress);\r\n    }\r\n\r\n    /**\r\n     * A store owner shall be able to create one or more stores.\r\n     * The created store will be associated with the store owner using storeFrontMap, where the store owner's\r\n     * address is a key and the value is a map of storeId and Store.\r\n     *\r\n    */\r\n    function createStoreFront( string storeName, string storeDescription ) public onlyStoreOwner returns(uint){\r\n\r\n        address[] storage stores = storeFrontMap[msg.sender];\r\n        stores[stores.length] = new Store( storeName, storeDescription, nextStoreId );\r\n\r\n        return nextStoreId++;\r\n    }\r\n\r\n    /**\r\n     * this function will be used for retrieving all the stores of a given store owner\r\n     *\r\n     */\r\n    function getStores(address storeOwnerAddress) public view returns(address[]) {\r\n        return storeFrontMap[storeOwnerAddress];\r\n    }\r\n\r\n    /**\r\n     * this function will be used for retrieving all the store owners\r\n     *\r\n     */\r\n    function getStoreOwners() public view returns(address[]) {\r\n        return storeOwners;\r\n    }\r\n\r\n    /**\r\n     * The market place can be destructed by only the super admin, that too when we have at least 75% of the store owners\r\n     * agreeing to this decision.\r\n    */\r\n    function closeMarketPlace() public onlySuperAdmin {\r\n        bool haveConsentOfStoreOwners = getConsentForClosure();\r\n\r\n        require(haveConsentOfStoreOwners, \"You do not have the sufficient consensus to close the market place!\");\r\n\r\n        selfdestruct(superAdmin);\r\n    }\r\n\r\n    /**\r\n     * In case we want to allow the closure of the Market Place then implement this function\r\n     * with proper logic.\r\n    */\r\n    function getConsentForClosure() private pure returns(bool) {\r\n        return false;\r\n    }\r\n}\r\n",
  "sourcePath": "C:\\xampp\\htdocs\\angular-truffle-onlineMkt\\contracts\\MarketPlace.sol",
  "compiler": {
    "name": "solc",
    "version": "0.4.24+commit.e67f0147.Emscripten.clang"
  },
  "schemaVersion": "2.0.1",
  "updatedAt": "2018-08-07T11:58:41.870Z"
}