{
  "contractName": "Store",
  "abi": [
    {
      "constant": true,
      "inputs": [
        {
          "name": "",
          "type": "uint256"
        }
      ],
      "name": "products",
      "outputs": [
        {
          "name": "productId",
          "type": "uint256"
        },
        {
          "name": "productName",
          "type": "string"
        },
        {
          "name": "description",
          "type": "string"
        },
        {
          "name": "price",
          "type": "uint256"
        },
        {
          "name": "quantity",
          "type": "uint256"
        },
        {
          "name": "status",
          "type": "uint8"
        }
      ],
      "payable": false,
      "stateMutability": "view",
      "type": "function"
    },
    {
      "inputs": [
        {
          "name": "_storeName",
          "type": "string"
        },
        {
          "name": "_description",
          "type": "string"
        },
        {
          "name": "_storeId",
          "type": "uint256"
        }
      ],
      "payable": false,
      "stateMutability": "nonpayable",
      "type": "constructor"
    },
    {
      "constant": false,
      "inputs": [
        {
          "name": "productName",
          "type": "string"
        },
        {
          "name": "productDesc",
          "type": "string"
        },
        {
          "name": "price",
          "type": "uint256"
        },
        {
          "name": "quantity",
          "type": "uint256"
        }
      ],
      "name": "addProductToTheStore",
      "outputs": [
        {
          "name": "",
          "type": "uint256"
        }
      ],
      "payable": false,
      "stateMutability": "nonpayable",
      "type": "function"
    },
    {
      "constant": false,
      "inputs": [
        {
          "name": "productId",
          "type": "uint256"
        },
        {
          "name": "productName",
          "type": "string"
        },
        {
          "name": "productDesc",
          "type": "string"
        },
        {
          "name": "price",
          "type": "uint256"
        },
        {
          "name": "quantity",
          "type": "uint256"
        }
      ],
      "name": "updateProduct",
      "outputs": [
        {
          "name": "",
          "type": "bool"
        }
      ],
      "payable": false,
      "stateMutability": "nonpayable",
      "type": "function"
    },
    {
      "constant": false,
      "inputs": [
        {
          "name": "productId",
          "type": "uint256"
        },
        {
          "name": "quantity",
          "type": "uint256"
        }
      ],
      "name": "removeProduct",
      "outputs": [],
      "payable": false,
      "stateMutability": "nonpayable",
      "type": "function"
    },
    {
      "constant": false,
      "inputs": [
        {
          "name": "_productId",
          "type": "uint256"
        },
        {
          "name": "_quantity",
          "type": "uint256"
        }
      ],
      "name": "buyProductFromStore",
      "outputs": [],
      "payable": true,
      "stateMutability": "payable",
      "type": "function"
    },
    {
      "constant": false,
      "inputs": [
        {
          "name": "withdrawAmount",
          "type": "uint256"
        }
      ],
      "name": "withdrawFund",
      "outputs": [
        {
          "name": "",
          "type": "uint256"
        }
      ],
      "payable": true,
      "stateMutability": "payable",
      "type": "function"
    }
  ],
  "bytecode": "0x60806040523480156200001157600080fd5b506040516200141638038062001416833981018060405281019080805182019291906020018051820192919060200180519060200190929190505050336000806101000a81548173ffffffffffffffffffffffffffffffffffffffff021916908373ffffffffffffffffffffffffffffffffffffffff1602179055508260019080519060200190620000a5929190620000d7565b50806003819055508160029080519060200190620000c5929190620000d7565b50600160048190555050505062000186565b828054600181600116156101000203166002900490600052602060002090601f016020900481019282601f106200011a57805160ff19168380011785556200014b565b828001600101855582156200014b579182015b828111156200014a5782518255916020019190600101906200012d565b5b5090506200015a91906200015e565b5090565b6200018391905b808211156200017f57600081600090555060010162000165565b5090565b90565b61128080620001966000396000f300608060405260043610610078576000357c0100000000000000000000000000000000000000000000000000000000900463ffffffff1680630cee17251461007d5780635287d535146100b15780637acc0b20146100e85780639498be1b14610224578063de084730146102fb578063f94eb18214610325575b600080fd5b61009b6004803603810190808035906020019092919050505061040a565b6040518082815260200191505060405180910390f35b3480156100bd57600080fd5b506100e6600480360381019080803590602001909291908035906020019092919050505061063e565b005b3480156100f457600080fd5b506101136004803603810190808035906020019092919050505061086e565b60405180878152602001806020018060200186815260200185815260200184600181111561013d57fe5b60ff168152602001838103835288818151815260200191508051906020019080838360005b8381101561017d578082015181840152602081019050610162565b50505050905090810190601f1680156101aa5780820380516001836020036101000a031916815260200191505b50838103825287818151815260200191508051906020019080838360005b838110156101e35780820151818401526020810190506101c8565b50505050905090810190601f1680156102105780820380516001836020036101000a031916815260200191505b509850505050505050505060405180910390f35b34801561023057600080fd5b506102e5600480360381019080803590602001908201803590602001908080601f0160208091040260200160405190810160405280939291908181526020018383808284378201915050505050509192919290803590602001908201803590602001908080601f016020809104026020016040519081016040528093929190818152602001838380828437820191505050505050919291929080359060200190929190803590602001909291905050506109e7565b6040518082815260200191505060405180910390f35b6103236004803603810190808035906020019092919080359060200190929190505050610bc3565b005b34801561033157600080fd5b506103f060048036038101908080359060200190929190803590602001908201803590602001908080601f0160208091040260200160405190810160405280939291908181526020018383808284378201915050505050509192919290803590602001908201803590602001908080601f01602080910402602001604051908101604052809392919081815260200183838082843782019150505050505091929192908035906020019092919080359060200190929190505050610ecf565b604051808215151515815260200191505060405180910390f35b60003373ffffffffffffffffffffffffffffffffffffffff166000809054906101000a900473ffffffffffffffffffffffffffffffffffffffff1673ffffffffffffffffffffffffffffffffffffffff161415156104f6576040517f08c379a000000000000000000000000000000000000000000000000000000000815260040180806020018281038252602f8152602001807f4f6e6c7920616e2041646d696e6973747261746f722063616e20696e766f6b6581526020017f20746869732066756e6374696f6e2e000000000000000000000000000000000081525060400191505060405180910390fd5b813073ffffffffffffffffffffffffffffffffffffffff1631101515156105d1576040517f08c379a00000000000000000000000000000000000000000000000000000000081526004018080602001828103825260478152602001807f5468652063757272656e742073746f726527732062616c616e6365206d75737481526020017f2062652067726561746572207468616e20746865207769746864726177616c2081526020017f616d6f756e74210000000000000000000000000000000000000000000000000081525060600191505060405180910390fd5b6000809054906101000a900473ffffffffffffffffffffffffffffffffffffffff1673ffffffffffffffffffffffffffffffffffffffff166108fc839081150290604051600060405180830381858888f19350505050158015610638573d6000803e3d6000fd5b50919050565b3373ffffffffffffffffffffffffffffffffffffffff166000809054906101000a900473ffffffffffffffffffffffffffffffffffffffff1673ffffffffffffffffffffffffffffffffffffffff16141515610728576040517f08c379a000000000000000000000000000000000000000000000000000000000815260040180806020018281038252602f8152602001807f4f6e6c7920616e2041646d696e6973747261746f722063616e20696e766f6b6581526020017f20746869732066756e6374696f6e2e000000000000000000000000000000000081525060400191505060405180910390fd5b6000600181111561073557fe5b6005600084815260200190815260200160002060050160009054906101000a900460ff16600181111561076457fe5b1415156107ff576040517f08c379a00000000000000000000000000000000000000000000000000000000081526004018080602001828103825260318152602001807f4f6e6c7920746865206163746976652070726f647563742063616e206265206d81526020017f61726b65642061732072656d6f7665642100000000000000000000000000000081525060400191505060405180910390fd5b80600560008481526020019081526020016000206004015403600560008481526020019081526020016000206004018190555060016005600084815260200190815260200160002060050160006101000a81548160ff0219169083600181111561086557fe5b02179055505050565b6005602052806000526040600020600091509050806000015490806001018054600181600116156101000203166002900480601f0160208091040260200160405190810160405280929190818152602001828054600181600116156101000203166002900480156109205780601f106108f557610100808354040283529160200191610920565b820191906000526020600020905b81548152906001019060200180831161090357829003601f168201915b505050505090806002018054600181600116156101000203166002900480601f0160208091040260200160405190810160405280929190818152602001828054600181600116156101000203166002900480156109be5780601f10610993576101008083540402835291602001916109be565b820191906000526020600020905b8154815290600101906020018083116109a157829003601f168201915b5050505050908060030154908060040154908060050160009054906101000a900460ff16905086565b60003373ffffffffffffffffffffffffffffffffffffffff166000809054906101000a900473ffffffffffffffffffffffffffffffffffffffff1673ffffffffffffffffffffffffffffffffffffffff16141515610ad3576040517f08c379a000000000000000000000000000000000000000000000000000000000815260040180806020018281038252602f8152602001807f4f6e6c7920616e2041646d696e6973747261746f722063616e20696e766f6b6581526020017f20746869732066756e6374696f6e2e000000000000000000000000000000000081525060400191505060405180910390fd5b60c060405190810160405280600454815260200186815260200185815260200184815260200183815260200160006001811115610b0c57fe5b815250600560006004548152602001908152602001600020600082015181600001556020820151816001019080519060200190610b4a92919061112f565b506040820151816002019080519060200190610b6792919061112f565b50606082015181600301556080820151816004015560a08201518160050160006101000a81548160ff02191690836001811115610ba057fe5b021790555090505060046000815480929190600101919050559050949350505050565b60006001811115610bd057fe5b6005600084815260200190815260200160002060050160009054906101000a900460ff166001811115610bff57fe5b141515610c9a576040517f08c379a00000000000000000000000000000000000000000000000000000000081526004018080602001828103825260268152602001807f4f6e6c7920746865206163746976652070726f647563742063616e206265206281526020017f6f7567687421000000000000000000000000000000000000000000000000000081525060400191505060405180910390fd5b3373ffffffffffffffffffffffffffffffffffffffff166000809054906101000a900473ffffffffffffffffffffffffffffffffffffffff1673ffffffffffffffffffffffffffffffffffffffff1614151515610d85576040517f08c379a00000000000000000000000000000000000000000000000000000000081526004018080602001828103825260258152602001807f546865206f776e65722063616e6e6f742062757920697473206f776e2070726f81526020017f647563742100000000000000000000000000000000000000000000000000000081525060400191505060405180910390fd5b60056000838152602001908152602001600020600401548111151515610e39576040517f08c379a000000000000000000000000000000000000000000000000000000000815260040180806020018281038252603a8152602001807f5468652073746f726520646f6573206e6f74206861766520737566666963696581526020017f6e74207175616e74697479206f66207468652070726f6475637400000000000081525060400191505060405180910390fd5b8060056000848152602001908152602001600020600401540360056000848152602001908152602001600020600401819055503073ffffffffffffffffffffffffffffffffffffffff166108fc600560008581526020019081526020016000206003015483029081150290604051600060405180830381858888f19350505050158015610eca573d6000803e3d6000fd5b505050565b60003373ffffffffffffffffffffffffffffffffffffffff166000809054906101000a900473ffffffffffffffffffffffffffffffffffffffff1673ffffffffffffffffffffffffffffffffffffffff16141515610fbb576040517f08c379a000000000000000000000000000000000000000000000000000000000815260040180806020018281038252602f8152602001807f4f6e6c7920616e2041646d696e6973747261746f722063616e20696e766f6b6581526020017f20746869732066756e6374696f6e2e000000000000000000000000000000000081525060400191505060405180910390fd5b6000600560008881526020019081526020016000206000015414151515611096576040517f08c379a00000000000000000000000000000000000000000000000000000000081526004018080602001828103825260498152602001807f50726f6475637420666f722074686520676976656e2073746f7265206964206181526020017f6e642070726f6475637420696420636f6d62696e6174696f6e20646f6573206e81526020017f6f7420657869737421000000000000000000000000000000000000000000000081525060600191505060405180910390fd5b846005600088815260200190815260200160002060010190805190602001906110c09291906111af565b50836005600088815260200190815260200160002060020190805190602001906110eb9291906111af565b508260056000888152602001908152602001600020600301819055508160056000888152602001908152602001600020600401819055506001905095945050505050565b828054600181600116156101000203166002900490600052602060002090601f016020900481019282601f1061117057805160ff191683800117855561119e565b8280016001018555821561119e579182015b8281111561119d578251825591602001919060010190611182565b5b5090506111ab919061122f565b5090565b828054600181600116156101000203166002900490600052602060002090601f016020900481019282601f106111f057805160ff191683800117855561121e565b8280016001018555821561121e579182015b8281111561121d578251825591602001919060010190611202565b5b50905061122b919061122f565b5090565b61125191905b8082111561124d576000816000905550600101611235565b5090565b905600a165627a7a72305820f529c910524a1be247d762f9ffd84fce2dcc37d300244e3617bc3f8eed999a8b0029",
  "source": "pragma solidity ^0.4.20;\r\n\r\n/**\r\n * This contract will create all the functionalities related to a store.\r\n *\r\n * For example\r\n * - Adding a product\r\n * - updating a product\r\n * - customer being able to view the list of stores\r\n * - store owner being able to see the stores\r\n * - customer being able to view the products in a given Store\r\n *\r\n*/\r\ncontract Store {\r\n    // Onwer is the actual store owner who is creating the store.\r\n    address owner;\r\n\r\n    string storeName;\r\n    string description;\r\n    uint storeId;\r\n    uint nextProductId;\r\n\r\n    mapping (uint => Product) public products;\r\n\r\n    enum ProductStatus {\r\n        ACTIVE,\r\n        REMOVED\r\n    }\r\n\r\n    struct Product {\r\n        uint productId;\r\n        string productName;\r\n        string description;\r\n        uint price;\r\n        uint quantity;\r\n        ProductStatus status;\r\n    }\r\n\r\n    constructor(\r\n            string _storeName,\r\n            string _description,\r\n            uint _storeId ) public {\r\n\r\n        owner = msg.sender;\r\n        storeName = _storeName;\r\n        storeId = _storeId;\r\n        description = _description;\r\n        nextProductId = 1;\r\n    }\r\n\r\n    /**\r\n     * Only (store) owners shall be allowed to add or update the store specific details - e.g. product.\r\n     *\r\n    */\r\n    modifier onlyOwner {\r\n        require( (owner == msg.sender), \"Only an Administrator can invoke this function.\");\r\n        _;\r\n    }\r\n\r\n     /**\r\n     * A store owner will use this function to add a new product to his / her store.\r\n     *\r\n     * Whenever a new product is added, the product map will be updated to hold all the product and their details\r\n     * across all the store and store owners.\r\n     *\r\n    */\r\n    function addProductToTheStore(\r\n            string productName,\r\n            string productDesc,\r\n            uint price,\r\n            uint quantity ) public onlyOwner returns(uint) {\r\n\r\n        products[nextProductId] = Product(\r\n            nextProductId,\r\n            productName,\r\n            productDesc,\r\n            price,\r\n            quantity,\r\n            ProductStatus.ACTIVE );\r\n\r\n        return nextProductId++;\r\n    }\r\n\r\n    /**\r\n     * The update product function will be called to update the details of an existing function.\r\n     *\r\n     * In a regular course of a business, the following amounts may get updated.\r\n     * - quantity\r\n     * - productName\r\n     * - price\r\n     * - description\r\n     *\r\n    */\r\n    function updateProduct(\r\n            uint productId,\r\n            string productName,\r\n            string productDesc,\r\n            uint price,\r\n            uint quantity ) public onlyOwner returns(bool) {\r\n\r\n        require( products[productId].productId != 0 , \"Product for the given store id and product id combination does not exist!\");\r\n\r\n        products[productId].productName = productName;\r\n        products[productId].description = productDesc;\r\n        products[productId].price = price;\r\n        products[productId].quantity = quantity;\r\n\r\n        return true;\r\n    }\r\n\r\n    /**\r\n     * A store owner can decide to remove a product from his/her store.\r\n     * A removed product will not be visible to shoppers!\r\n     *\r\n    */\r\n    function removeProduct(uint productId, uint quantity) public onlyOwner {\r\n\r\n        require( products[productId].status == ProductStatus.ACTIVE, \"Only the active product can be marked as removed!\");\r\n\r\n        products[productId].quantity = products[productId].quantity - quantity;\r\n        products[productId].status = ProductStatus.REMOVED;\r\n    }\r\n\r\n\r\n    /**\r\n     * The shopper can buy this product using this function.\r\n     *\r\n    */\r\n    function buyProductFromStore(uint _productId, uint _quantity) public payable {\r\n\r\n        require( products[_productId].status == ProductStatus.ACTIVE, \"Only the active product can be bought!\");\r\n        require( owner != msg.sender, \"The owner cannot buy its own product!\");\r\n        require( _quantity <= products[_productId].quantity, \"The store does not have sufficient quantity of the product\");\r\n\r\n        //Reduce the corresponding quantity from the inventory\r\n        products[_productId].quantity = products[_productId].quantity - _quantity;\r\n\r\n        // Transfer fund from the shopper's acount into the store's account\r\n        address(this).transfer( _quantity * products[_productId].price );\r\n    }\r\n\r\n    /**\r\n     * A store owner can withdraw fund from a given store\r\n    */\r\n    function withdrawFund(uint withdrawAmount) public payable onlyOwner returns(uint) {\r\n        require(address(this).balance >= withdrawAmount, \"The current store's balance must be greater than the withdrawal amount!\");\r\n        owner.transfer(withdrawAmount);\r\n    }\r\n\r\n}\r\n",
  "sourcePath": "C:\\xampp\\htdocs\\angular-truffle-onlineMkt\\contracts\\Store.sol",
  "compiler": {
    "name": "solc",
    "version": "0.4.24+commit.e67f0147.Emscripten.clang"
  },
  "schemaVersion": "2.0.1",
  "updatedAt": "2018-08-07T11:58:41.876Z"
}