{
  "contractName": "Store",
  "abi": [
    {
      "constant": true,
      "inputs": [],
      "name": "storeName",
      "outputs": [
        {
          "name": "",
          "type": "string"
        }
      ],
      "payable": false,
      "stateMutability": "view",
      "type": "function"
    },
    {
      "constant": true,
      "inputs": [],
      "name": "description",
      "outputs": [
        {
          "name": "",
          "type": "string"
        }
      ],
      "payable": false,
      "stateMutability": "view",
      "type": "function"
    },
    {
      "constant": true,
      "inputs": [
        {
          "name": "",
          "type": "uint256"
        }
      ],
      "name": "products",
      "outputs": [
        {
          "name": "productId",
          "type": "uint256"
        },
        {
          "name": "productName",
          "type": "string"
        },
        {
          "name": "description",
          "type": "string"
        },
        {
          "name": "price",
          "type": "uint256"
        },
        {
          "name": "quantity",
          "type": "uint256"
        },
        {
          "name": "status",
          "type": "uint8"
        }
      ],
      "payable": false,
      "stateMutability": "view",
      "type": "function"
    },
    {
      "inputs": [
        {
          "name": "_storeName",
          "type": "string"
        },
        {
          "name": "_description",
          "type": "string"
        },
        {
          "name": "_storeId",
          "type": "uint256"
        },
        {
          "name": "storeOwner",
          "type": "address"
        }
      ],
      "payable": false,
      "stateMutability": "nonpayable",
      "type": "constructor"
    },
    {
      "payable": true,
      "stateMutability": "payable",
      "type": "fallback"
    },
    {
      "anonymous": false,
      "inputs": [
        {
          "indexed": false,
          "name": "productId",
          "type": "uint256"
        },
        {
          "indexed": false,
          "name": "productName",
          "type": "string"
        },
        {
          "indexed": false,
          "name": "description",
          "type": "string"
        },
        {
          "indexed": false,
          "name": "price",
          "type": "uint256"
        },
        {
          "indexed": false,
          "name": "quantity",
          "type": "uint256"
        }
      ],
      "name": "NewProduct",
      "type": "event"
    },
    {
      "anonymous": false,
      "inputs": [
        {
          "indexed": false,
          "name": "productId",
          "type": "uint256"
        },
        {
          "indexed": false,
          "name": "quantity",
          "type": "uint256"
        },
        {
          "indexed": false,
          "name": "storeAddress",
          "type": "address"
        },
        {
          "indexed": false,
          "name": "storeOwner",
          "type": "address"
        },
        {
          "indexed": false,
          "name": "buyerAddress",
          "type": "address"
        },
        {
          "indexed": false,
          "name": "senderBalance",
          "type": "uint256"
        },
        {
          "indexed": false,
          "name": "weiToTransfer",
          "type": "uint256"
        }
      ],
      "name": "PurchaseOfProduct",
      "type": "event"
    },
    {
      "anonymous": false,
      "inputs": [
        {
          "indexed": false,
          "name": "param1",
          "type": "address"
        },
        {
          "indexed": false,
          "name": "param2",
          "type": "address"
        },
        {
          "indexed": false,
          "name": "param3",
          "type": "string"
        }
      ],
      "name": "LogAsEvent",
      "type": "event"
    },
    {
      "constant": true,
      "inputs": [],
      "name": "getStoreDetails",
      "outputs": [
        {
          "name": "",
          "type": "address"
        },
        {
          "name": "",
          "type": "string"
        },
        {
          "name": "",
          "type": "uint256"
        },
        {
          "name": "",
          "type": "string"
        }
      ],
      "payable": false,
      "stateMutability": "view",
      "type": "function"
    },
    {
      "constant": false,
      "inputs": [
        {
          "name": "productName",
          "type": "string"
        },
        {
          "name": "productDesc",
          "type": "string"
        },
        {
          "name": "price",
          "type": "uint256"
        },
        {
          "name": "quantity",
          "type": "uint256"
        }
      ],
      "name": "addProductToTheStore",
      "outputs": [
        {
          "name": "",
          "type": "uint256"
        }
      ],
      "payable": false,
      "stateMutability": "nonpayable",
      "type": "function"
    },
    {
      "constant": false,
      "inputs": [
        {
          "name": "productId",
          "type": "uint256"
        },
        {
          "name": "productName",
          "type": "string"
        },
        {
          "name": "productDesc",
          "type": "string"
        },
        {
          "name": "price",
          "type": "uint256"
        },
        {
          "name": "quantity",
          "type": "uint256"
        }
      ],
      "name": "updateProduct",
      "outputs": [
        {
          "name": "",
          "type": "bool"
        }
      ],
      "payable": false,
      "stateMutability": "nonpayable",
      "type": "function"
    },
    {
      "constant": false,
      "inputs": [
        {
          "name": "_productId",
          "type": "uint256"
        }
      ],
      "name": "removeProduct",
      "outputs": [
        {
          "name": "",
          "type": "bool"
        }
      ],
      "payable": false,
      "stateMutability": "nonpayable",
      "type": "function"
    },
    {
      "constant": false,
      "inputs": [
        {
          "name": "_productId",
          "type": "uint256"
        }
      ],
      "name": "reActivateProduct",
      "outputs": [
        {
          "name": "",
          "type": "bool"
        }
      ],
      "payable": false,
      "stateMutability": "nonpayable",
      "type": "function"
    },
    {
      "constant": true,
      "inputs": [
        {
          "name": "activeOnlyFlag",
          "type": "bool"
        }
      ],
      "name": "getProducts",
      "outputs": [
        {
          "name": "",
          "type": "uint256[]"
        }
      ],
      "payable": false,
      "stateMutability": "view",
      "type": "function"
    },
    {
      "constant": true,
      "inputs": [
        {
          "name": "_productId",
          "type": "uint256"
        }
      ],
      "name": "getProductDetails",
      "outputs": [
        {
          "name": "",
          "type": "string"
        },
        {
          "name": "",
          "type": "string"
        },
        {
          "name": "",
          "type": "uint256"
        },
        {
          "name": "",
          "type": "uint256"
        },
        {
          "name": "",
          "type": "uint8"
        }
      ],
      "payable": false,
      "stateMutability": "view",
      "type": "function"
    },
    {
      "constant": false,
      "inputs": [
        {
          "name": "_productId",
          "type": "uint256"
        },
        {
          "name": "_quantity",
          "type": "uint256"
        }
      ],
      "name": "buyProductFromStore",
      "outputs": [
        {
          "name": "",
          "type": "bool"
        }
      ],
      "payable": true,
      "stateMutability": "payable",
      "type": "function"
    },
    {
      "constant": false,
      "inputs": [
        {
          "name": "withdrawAmount",
          "type": "uint256"
        }
      ],
      "name": "withdrawFund",
      "outputs": [
        {
          "name": "",
          "type": "bool"
        }
      ],
      "payable": true,
      "stateMutability": "payable",
      "type": "function"
    },
    {
      "constant": true,
      "inputs": [],
      "name": "getBalanceOfStore",
      "outputs": [
        {
          "name": "",
          "type": "uint256"
        }
      ],
      "payable": false,
      "stateMutability": "view",
      "type": "function"
    }
  ],
  "bytecode": "0x60806040523480156200001157600080fd5b506040516200275c3803806200275c83398101806040528101908080518201929190602001805182019291906020018051906020019092919080519060200190929190505050806000806101000a81548173ffffffffffffffffffffffffffffffffffffffff021916908373ffffffffffffffffffffffffffffffffffffffff1602179055508360019080519060200190620000af929190620000ea565b50816003819055508260029080519060200190620000cf929190620000ea565b50600060048190555060016005819055505050505062000199565b828054600181600116156101000203166002900490600052602060002090601f016020900481019282601f106200012d57805160ff19168380011785556200015e565b828001600101855582156200015e579182015b828111156200015d57825182559160200191906001019062000140565b5b5090506200016d919062000171565b5090565b6200019691905b808211156200019257600081600090555060010162000178565b5090565b90565b6125b380620001a96000396000f3006080604052600436106100c5576000357c0100000000000000000000000000000000000000000000000000000000900463ffffffff1680630cee1725146100c7578063521936e6146100ff5780635ee95cae1461018f5780636813b53b146101d45780637284e416146103095780637acc0b20146103995780637b2c5d13146104d55780639498be1b1461051a578063ce2d683f146105f1578063dbf5dcd914610675578063de084730146106a0578063f94eb182146106e2578063fe04eb2d146107c7575b005b6100e5600480360381019080803590602001909291905050506108fd565b604051808215151515815260200191505060405180910390f35b34801561010b57600080fd5b50610114610b35565b6040518080602001828103825283818151815260200191508051906020019080838360005b83811015610154578082015181840152602081019050610139565b50505050905090810190601f1680156101815780820380516001836020036101000a031916815260200191505b509250505060405180910390f35b34801561019b57600080fd5b506101ba60048036038101908080359060200190929190505050610bd3565b604051808215151515815260200191505060405180910390f35b3480156101e057600080fd5b506101ff60048036038101908080359060200190929190505050610df3565b60405180806020018060200186815260200185815260200184600181111561022357fe5b60ff168152602001838103835288818151815260200191508051906020019080838360005b83811015610263578082015181840152602081019050610248565b50505050905090810190601f1680156102905780820380516001836020036101000a031916815260200191505b50838103825287818151815260200191508051906020019080838360005b838110156102c95780820151818401526020810190506102ae565b50505050905090810190601f1680156102f65780820380516001836020036101000a031916815260200191505b5097505050505050505060405180910390f35b34801561031557600080fd5b5061031e610ffe565b6040518080602001828103825283818151815260200191508051906020019080838360005b8381101561035e578082015181840152602081019050610343565b50505050905090810190601f16801561038b5780820380516001836020036101000a031916815260200191505b509250505060405180910390f35b3480156103a557600080fd5b506103c46004803603810190808035906020019092919050505061109c565b6040518087815260200180602001806020018681526020018581526020018460018111156103ee57fe5b60ff168152602001838103835288818151815260200191508051906020019080838360005b8381101561042e578082015181840152602081019050610413565b50505050905090810190601f16801561045b5780820380516001836020036101000a031916815260200191505b50838103825287818151815260200191508051906020019080838360005b83811015610494578082015181840152602081019050610479565b50505050905090810190601f1680156104c15780820380516001836020036101000a031916815260200191505b509850505050505050505060405180910390f35b3480156104e157600080fd5b5061050060048036038101908080359060200190929190505050611224565b604051808215151515815260200191505060405180910390f35b34801561052657600080fd5b506105db600480360381019080803590602001908201803590602001908080601f0160208091040260200160405190810160405280939291908181526020018383808284378201915050505050509192919290803590602001908201803590602001908080601f01602080910402602001604051908101604052809392919081815260200183838082843782019150505050505091929192908035906020019092919080359060200190929190505050611443565b6040518082815260200191505060405180910390f35b3480156105fd57600080fd5b5061061e600480360381019080803515159060200190929190505050611777565b6040518080602001828103825283818151815260200191508051906020019060200280838360005b83811015610661578082015181840152602081019050610646565b505050509050019250505060405180910390f35b34801561068157600080fd5b5061068a61197f565b6040518082815260200191505060405180910390f35b6106c8600480360381019080803590602001909291908035906020019092919050505061199e565b604051808215151515815260200191505060405180910390f35b3480156106ee57600080fd5b506107ad60048036038101908080359060200190929190803590602001908201803590602001908080601f0160208091040260200160405190810160405280939291908181526020018383808284378201915050505050509192919290803590602001908201803590602001908080601f01602080910402602001604051908101604052809392919081815260200183838082843782019150505050505091929192908035906020019092919080359060200190929190505050611f6c565b604051808215151515815260200191505060405180910390f35b3480156107d357600080fd5b506107dc612206565b604051808573ffffffffffffffffffffffffffffffffffffffff1673ffffffffffffffffffffffffffffffffffffffff1681526020018060200184815260200180602001838103835286818151815260200191508051906020019080838360005b8381101561085857808201518184015260208101905061083d565b50505050905090810190601f1680156108855780820380516001836020036101000a031916815260200191505b50838103825284818151815260200191508051906020019080838360005b838110156108be5780820151818401526020810190506108a3565b50505050905090810190601f1680156108eb5780820380516001836020036101000a031916815260200191505b50965050505050505060405180910390f35b60003373ffffffffffffffffffffffffffffffffffffffff166000809054906101000a900473ffffffffffffffffffffffffffffffffffffffff1673ffffffffffffffffffffffffffffffffffffffff161415156109e9576040517f08c379a000000000000000000000000000000000000000000000000000000000815260040180806020018281038252602c8152602001807f4f6e6c7920612073746f7265206f776e65722063616e20696e766f6b6520746881526020017f69732066756e6374696f6e21000000000000000000000000000000000000000081525060400191505060405180910390fd5b813073ffffffffffffffffffffffffffffffffffffffff163110151515610ac4576040517f08c379a000000000000000000000000000000000000000000000000000000000815260040180806020018281038252604c8152602001807f5468652063757272656e742073746f72652062616c616e636520616d6f756e7481526020017f206d7573742062652067726561746572207468616e207468652077697468647281526020017f6177616c20616d6f756e7421000000000000000000000000000000000000000081525060600191505060405180910390fd5b6000809054906101000a900473ffffffffffffffffffffffffffffffffffffffff1673ffffffffffffffffffffffffffffffffffffffff166108fc839081150290604051600060405180830381858888f19350505050158015610b2b573d6000803e3d6000fd5b5060019050919050565b60018054600181600116156101000203166002900480601f016020809104026020016040519081016040528092919081815260200182805460018160011615610100020316600290048015610bcb5780601f10610ba057610100808354040283529160200191610bcb565b820191906000526020600020905b815481529060010190602001808311610bae57829003601f168201915b505050505081565b6000803373ffffffffffffffffffffffffffffffffffffffff166000809054906101000a900473ffffffffffffffffffffffffffffffffffffffff1673ffffffffffffffffffffffffffffffffffffffff16141515610cc0576040517f08c379a000000000000000000000000000000000000000000000000000000000815260040180806020018281038252602c8152602001807f4f6e6c7920612073746f7265206f776e65722063616e20696e766f6b6520746881526020017f69732066756e6374696f6e21000000000000000000000000000000000000000081525060400191505060405180910390fd5b60018303905060006001811115610cd357fe5b600682815481101515610ce257fe5b906000526020600020906006020160050160009054906101000a900460ff166001811115610d0c57fe5b141515610da7576040517f08c379a00000000000000000000000000000000000000000000000000000000081526004018080602001828103825260398152602001807f4f6e6c7920746865206163746976652070726f647563742063616e206265206281526020017f652072656d6f7665642066726f6d207468652073746f7265210000000000000081525060400191505060405180910390fd5b6001600682815481101515610db857fe5b906000526020600020906006020160050160006101000a81548160ff02191690836001811115610de457fe5b02179055506001915050919050565b606080600080600080600187039050600681815481101515610e1157fe5b9060005260206000209060060201600101600682815481101515610e3157fe5b9060005260206000209060060201600201600683815481101515610e5157fe5b906000526020600020906006020160030154600684815481101515610e7257fe5b906000526020600020906006020160040154600685815481101515610e9357fe5b906000526020600020906006020160050160009054906101000a900460ff16848054600181600116156101000203166002900480601f016020809104026020016040519081016040528092919081815260200182805460018160011615610100020316600290048015610f475780601f10610f1c57610100808354040283529160200191610f47565b820191906000526020600020905b815481529060010190602001808311610f2a57829003601f168201915b50505050509450838054600181600116156101000203166002900480601f016020809104026020016040519081016040528092919081815260200182805460018160011615610100020316600290048015610fe35780601f10610fb857610100808354040283529160200191610fe3565b820191906000526020600020905b815481529060010190602001808311610fc657829003601f168201915b50505050509350955095509550955095505091939590929450565b60028054600181600116156101000203166002900480601f0160208091040260200160405190810160405280929190818152602001828054600181600116156101000203166002900480156110945780601f1061106957610100808354040283529160200191611094565b820191906000526020600020905b81548152906001019060200180831161107757829003601f168201915b505050505081565b6006818154811015156110ab57fe5b9060005260206000209060060201600091509050806000015490806001018054600181600116156101000203166002900480601f01602080910402602001604051908101604052809291908181526020018280546001816001161561010002031660029004801561115d5780601f106111325761010080835404028352916020019161115d565b820191906000526020600020905b81548152906001019060200180831161114057829003601f168201915b505050505090806002018054600181600116156101000203166002900480601f0160208091040260200160405190810160405280929190818152602001828054600181600116156101000203166002900480156111fb5780601f106111d0576101008083540402835291602001916111fb565b820191906000526020600020905b8154815290600101906020018083116111de57829003601f168201915b5050505050908060030154908060040154908060050160009054906101000a900460ff16905086565b6000803373ffffffffffffffffffffffffffffffffffffffff166000809054906101000a900473ffffffffffffffffffffffffffffffffffffffff1673ffffffffffffffffffffffffffffffffffffffff16141515611311576040517f08c379a000000000000000000000000000000000000000000000000000000000815260040180806020018281038252602c8152602001807f4f6e6c7920612073746f7265206f776e65722063616e20696e766f6b6520746881526020017f69732066756e6374696f6e21000000000000000000000000000000000000000081525060400191505060405180910390fd5b60018303905060018081111561132357fe5b60068281548110151561133257fe5b906000526020600020906006020160050160009054906101000a900460ff16600181111561135c57fe5b1415156113f7576040517f08c379a000000000000000000000000000000000000000000000000000000000815260040180806020018281038252602b8152602001807f4f6e6c792074686520496e6163746976652070726f647563742063616e20626581526020017f206163746976617465642100000000000000000000000000000000000000000081525060400191505060405180910390fd5b600060068281548110151561140857fe5b906000526020600020906006020160050160006101000a81548160ff0219169083600181111561143457fe5b02179055506001915050919050565b60003373ffffffffffffffffffffffffffffffffffffffff166000809054906101000a900473ffffffffffffffffffffffffffffffffffffffff1673ffffffffffffffffffffffffffffffffffffffff1614151561152f576040517f08c379a000000000000000000000000000000000000000000000000000000000815260040180806020018281038252602c8152602001807f4f6e6c7920612073746f7265206f776e65722063616e20696e766f6b6520746881526020017f69732066756e6374696f6e21000000000000000000000000000000000000000081525060400191505060405180910390fd5b6001600681818054905001915081611547919061237d565b5060c06040519081016040528060055481526020018681526020018581526020018481526020018381526020016000600181111561158157fe5b815250600660045481548110151561159557fe5b90600052602060002090600602016000820151816000015560208201518160010190805190602001906115c99291906123af565b5060408201518160020190805190602001906115e69291906123af565b50606082015181600301556080820151816004015560a08201518160050160006101000a81548160ff0219169083600181111561161f57fe5b02179055509050507fc86b920148e151a78e4a627284a763302c966579a89be8494ba9562ac1f61b7b60055486868686604051808681526020018060200180602001858152602001848152602001838103835287818151815260200191508051906020019080838360005b838110156116a557808201518184015260208101905061168a565b50505050905090810190601f1680156116d25780820380516001836020036101000a031916815260200191505b50838103825286818151815260200191508051906020019080838360005b8381101561170b5780820151818401526020810190506116f0565b50505050905090810190601f1680156117385780820380516001836020036101000a031916815260200191505b5097505050505050505060405180910390a160046000815480929190600101919050555060056000815480929190600101919050559050949350505050565b60606000806060600080935060011515861515141561180f57600092505b6006805490508360ff16101561180a57600060018111156117b257fe5b60068460ff168154811015156117c457fe5b906000526020600020906006020160050160009054906101000a900460ff1660018111156117ee57fe5b14156117fd5783806001019450505b8280600101935050611795565b611818565b60068054905093505b836040519080825280602002602001820160405280156118475781602001602082028038833980820191505090505b50915060008411156119735760009050600092505b6006805490508360ff16101561197257600115158615151415611919576000600181111561188657fe5b60068460ff1681548110151561189857fe5b906000526020600020906006020160050160009054906101000a900460ff1660018111156118c257fe5b14156119145760068360ff168154811015156118da57fe5b906000526020600020906006020160000154828260ff168151811015156118fd57fe5b906020019060200201818152505080806001019150505b611965565b60068360ff1681548110151561192b57fe5b906000526020600020906006020160000154828260ff1681518110151561194e57fe5b906020019060200201818152505080806001019150505b828060010193505061185c565b5b81945050505050919050565b60003073ffffffffffffffffffffffffffffffffffffffff1631905090565b6000806000806001860392506006838154811015156119b957fe5b90600052602060002090600602016003015485029150600060018111156119dc57fe5b6006848154811015156119eb57fe5b906000526020600020906006020160050160009054906101000a900460ff166001811115611a1557fe5b141515611ab0576040517f08c379a00000000000000000000000000000000000000000000000000000000081526004018080602001828103825260268152602001807f4f6e6c7920746865206163746976652070726f647563742063616e206265206281526020017f6f7567687421000000000000000000000000000000000000000000000000000081525060400191505060405180910390fd5b3373ffffffffffffffffffffffffffffffffffffffff166000809054906101000a900473ffffffffffffffffffffffffffffffffffffffff1673ffffffffffffffffffffffffffffffffffffffff1614151515611b9b576040517f08c379a00000000000000000000000000000000000000000000000000000000081526004018080602001828103825260258152602001807f546865206f776e65722063616e6e6f742062757920697473206f776e2070726f81526020017f647563742100000000000000000000000000000000000000000000000000000081525060400191505060405180910390fd5b600683815481101515611baa57fe5b9060005260206000209060060201600401548511151515611c59576040517f08c379a000000000000000000000000000000000000000000000000000000000815260040180806020018281038252603a8152602001807f5468652073746f726520646f6573206e6f74206861766520737566666963696581526020017f6e74207175616e74697479206f66207468652070726f6475637400000000000081525060400191505060405180910390fd5b3373ffffffffffffffffffffffffffffffffffffffff16313411151515611d0e576040517f08c379a00000000000000000000000000000000000000000000000000000000081526004018080602001828103825260408152602001807f54686520627579657220646f6573206e6f74206861766520737566666963696581526020017f6e742062616c616e636520696e20686973202f20686572206163636f756e742181525060400191505060405180910390fd5b8134141515611dab576040517f08c379a00000000000000000000000000000000000000000000000000000000081526004018080602001828103825260408152602001807f54686520737570706c6965642076616c7565206973206c65737365722074686181526020017f6e207468652061637475616c207072696365206f6620746865206974656d732181525060400191505060405180910390fd5b84600684815481101515611dbb57fe5b90600052602060002090600602016004015403600684815481101515611ddd57fe5b9060005260206000209060060201600401819055507f781f13430da3033909b5c9de8541109172e3f02dca16b4b18f489592e4f11af08686306000809054906101000a900473ffffffffffffffffffffffffffffffffffffffff16333373ffffffffffffffffffffffffffffffffffffffff163188604051808881526020018781526020018673ffffffffffffffffffffffffffffffffffffffff1673ffffffffffffffffffffffffffffffffffffffff1681526020018573ffffffffffffffffffffffffffffffffffffffff1673ffffffffffffffffffffffffffffffffffffffff1681526020018473ffffffffffffffffffffffffffffffffffffffff1673ffffffffffffffffffffffffffffffffffffffff16815260200183815260200182815260200197505050505050505060405180910390a13090508073ffffffffffffffffffffffffffffffffffffffff166108fc349081150290604051600060405180830381858888f19350505050158015611f5e573d6000803e3d6000fd5b506001935050505092915050565b6000803373ffffffffffffffffffffffffffffffffffffffff166000809054906101000a900473ffffffffffffffffffffffffffffffffffffffff1673ffffffffffffffffffffffffffffffffffffffff16141515612059576040517f08c379a000000000000000000000000000000000000000000000000000000000815260040180806020018281038252602c8152602001807f4f6e6c7920612073746f7265206f776e65722063616e20696e766f6b6520746881526020017f69732066756e6374696f6e21000000000000000000000000000000000000000081525060400191505060405180910390fd5b600187039050600060068281548110151561207057fe5b90600052602060002090600602016000015414151515612144576040517f08c379a00000000000000000000000000000000000000000000000000000000081526004018080602001828103825260498152602001807f50726f6475637420666f722074686520676976656e2073746f7265206964206181526020017f6e642070726f6475637420696420636f6d62696e6174696f6e20646f6573206e81526020017f6f7420657869737421000000000000000000000000000000000000000000000081525060600191505060405180910390fd5b8560068281548110151561215457fe5b9060005260206000209060060201600101908051906020019061217892919061242f565b508460068281548110151561218957fe5b906000526020600020906006020160020190805190602001906121ad92919061242f565b50836006828154811015156121be57fe5b906000526020600020906006020160030181905550826006828154811015156121e357fe5b906000526020600020906006020160040181905550600191505095945050505050565b60006060600060606000809054906101000a900473ffffffffffffffffffffffffffffffffffffffff1660016003546002828054600181600116156101000203166002900480601f0160208091040260200160405190810160405280929190818152602001828054600181600116156101000203166002900480156122cc5780601f106122a1576101008083540402835291602001916122cc565b820191906000526020600020905b8154815290600101906020018083116122af57829003601f168201915b50505050509250808054600181600116156101000203166002900480601f0160208091040260200160405190810160405280929190818152602001828054600181600116156101000203166002900480156123685780601f1061233d57610100808354040283529160200191612368565b820191906000526020600020905b81548152906001019060200180831161234b57829003601f168201915b50505050509050935093509350935090919293565b8154818355818111156123aa576006028160060283600052602060002091820191016123a991906124af565b5b505050565b828054600181600116156101000203166002900490600052602060002090601f016020900481019282601f106123f057805160ff191683800117855561241e565b8280016001018555821561241e579182015b8281111561241d578251825591602001919060010190612402565b5b50905061242b919061251a565b5090565b828054600181600116156101000203166002900490600052602060002090601f016020900481019282601f1061247057805160ff191683800117855561249e565b8280016001018555821561249e579182015b8281111561249d578251825591602001919060010190612482565b5b5090506124ab919061251a565b5090565b61251791905b80821115612513576000808201600090556001820160006124d6919061253f565b6002820160006124e6919061253f565b600382016000905560048201600090556005820160006101000a81549060ff0219169055506006016124b5565b5090565b90565b61253c91905b80821115612538576000816000905550600101612520565b5090565b90565b50805460018160011615610100020316600290046000825580601f106125655750612584565b601f016020900490600052602060002090810190612583919061251a565b5b505600a165627a7a723058206c1ced5e54183ef9338bbb4daa4377c358fd748bbdee8526cf4274e848307e790029",
  "source": "pragma solidity ^0.4.22;\r\n\r\n/**\r\n * This contract will create all the functionalities related to a store.\r\n *\r\n * For example\r\n * - Adding a product\r\n * - updating a product\r\n * - customer being able to view the list of stores\r\n * - store owner being able to see the stores\r\n * - customer being able to view the products in a given Store\r\n *\r\n*/\r\ncontract Store {\r\n    // Onwer is the actual store owner who is creating the store.\r\n    address private owner;\r\n\r\n    string public storeName;\r\n    string public description;\r\n    uint private storeId;\r\n    uint private productCount;\r\n    uint private nextProductId;\r\n    Product[] public products;\r\n\r\n    enum ProductStatus {\r\n        ACTIVE,\r\n        REMOVED\r\n    }\r\n\r\n    struct Product {\r\n        uint productId;\r\n        string productName;\r\n        string description;\r\n        uint price;\r\n        uint quantity;\r\n        ProductStatus status;\r\n    }\r\n\r\n    event NewProduct(\r\n      uint productId,\r\n      string productName,\r\n      string description,\r\n      uint price,\r\n      uint quantity\r\n      );\r\n\r\n    event PurchaseOfProduct(\r\n        uint productId,\r\n        uint quantity,\r\n        address storeAddress,\r\n        address storeOwner,\r\n        address buyerAddress,\r\n        uint senderBalance,\r\n        uint weiToTransfer\r\n      );\r\n\r\n    event LogAsEvent(address param1, address param2, string param3);\r\n\r\n    constructor(\r\n            string _storeName,\r\n            string _description,\r\n            uint _storeId,\r\n            address storeOwner ) public {\r\n\r\n        owner = storeOwner;\r\n        storeName = _storeName;\r\n        storeId = _storeId;\r\n        description = _description;\r\n        productCount = 0;\r\n        nextProductId = 1;\r\n    }\r\n\r\n    /**\r\n    * Since this contract needs to accept ether, declare an anonymous payable function.\r\n    */\r\n    function() public payable { }\r\n\r\n    /**\r\n     * Only (store) owners shall be allowed to add or update the store specific details - e.g. product.\r\n     *\r\n    */\r\n    modifier onlyOwner {\r\n        require( (owner == msg.sender), \"Only a store owner can invoke this function!\");\r\n        _;\r\n    }\r\n\r\n    /**\r\n    * A function to return the state details for a given store contract\r\n    */\r\n    function getStoreDetails() public view returns( address, string, uint, string ) {\r\n      return (owner, storeName, storeId, description);\r\n    }\r\n\r\n     /**\r\n     * A store owner will use this function to add a new product to his / her store.\r\n     *\r\n     * Whenever a new product is added, the product map will be updated to hold all the product and their details\r\n     * across all the store and store owners.\r\n     *\r\n    */\r\n    function addProductToTheStore(\r\n            string productName,\r\n            string productDesc,\r\n            uint price,\r\n            uint quantity ) public onlyOwner returns(uint) {\r\n\r\n            products.length += 1;\r\n            products[productCount] = Product(\r\n                nextProductId,\r\n                productName,\r\n                productDesc,\r\n                price,\r\n                quantity,\r\n                ProductStatus.ACTIVE );\r\n\r\n            emit NewProduct(\r\n              nextProductId,\r\n              productName,\r\n              productDesc,\r\n              price,\r\n              quantity\r\n              );\r\n\r\n            productCount++;\r\n\r\n            return nextProductId++;\r\n    }\r\n\r\n    /**\r\n     * The update product function will be called to update the details of an existing function.\r\n     *\r\n     * In a regular course of a business, the following amounts may get updated.\r\n     * - quantity\r\n     * - productName\r\n     * - price\r\n     * - description\r\n     *\r\n    */\r\n    function updateProduct(\r\n            uint productId,\r\n            string productName,\r\n            string productDesc,\r\n            uint price,\r\n            uint quantity ) public onlyOwner returns(bool) {\r\n        uint productIndex = productId - 1;\r\n        require( products[productIndex].productId != 0 , \"Product for the given store id and product id combination does not exist!\");\r\n\r\n        products[productIndex].productName = productName;\r\n        products[productIndex].description = productDesc;\r\n        products[productIndex].price = price;\r\n        products[productIndex].quantity = quantity;\r\n\r\n        return true;\r\n    }\r\n\r\n    /**\r\n     * A store owner can decide to remove a product from his/her store.\r\n     * A removed product will not be visible to shoppers!\r\n     *\r\n    */\r\n    function removeProduct(uint _productId ) public onlyOwner returns(bool){\r\n        uint productIndex = _productId - 1;\r\n\r\n        require( products[productIndex].status == ProductStatus.ACTIVE, \"Only the active product can be be removed from the store!\");\r\n        products[productIndex].status = ProductStatus.REMOVED;\r\n\r\n        return true;\r\n    }\r\n\r\n    /**\r\n     * A store owner can decide to remove a product from his/her store.\r\n     * A removed product will not be visible to shoppers!\r\n     *\r\n    */\r\n    function reActivateProduct(uint _productId ) public onlyOwner returns(bool){\r\n        uint productIndex = _productId - 1;\r\n\r\n        require( products[productIndex].status == ProductStatus.REMOVED, \"Only the Inactive product can be activated!\");\r\n        products[productIndex].status = ProductStatus.ACTIVE;\r\n\r\n        return true;\r\n    }\r\n\r\n    /**\r\n    * getProducts will return all the products of this store.\r\n    */\r\n    function getProducts( bool activeOnlyFlag ) public view returns( uint[] ) {\r\n\r\n      uint numOfProducts = 0;\r\n\r\n      if ( activeOnlyFlag == true) {\r\n        for (uint8 prodCount=0; prodCount<products.length; prodCount++) {\r\n            if (products[prodCount].status == ProductStatus.ACTIVE) {\r\n                numOfProducts++;\r\n            }\r\n        }\r\n      } else {\r\n        numOfProducts = products.length;\r\n      }\r\n\r\n\r\n      uint[] memory productIds = new uint[](numOfProducts);\r\n\r\n      if ( numOfProducts > 0 ) {\r\n\r\n        uint8 tmpCount = 0;\r\n\r\n        for (prodCount=0; prodCount<products.length; prodCount++) {\r\n            if ( activeOnlyFlag == true ) {\r\n              if (products[prodCount].status == ProductStatus.ACTIVE) {\r\n                productIds[tmpCount] = products[prodCount].productId;\r\n                tmpCount++;\r\n              }\r\n            } else {\r\n              productIds[tmpCount] = products[prodCount].productId;\r\n              tmpCount++;\r\n            }\r\n\r\n        }\r\n      }\r\n\r\n      return productIds;\r\n    }\r\n\r\n\r\n    /*\r\n    * For a given product identifier of the store, this method will return the product details.\r\n    */\r\n    function getProductDetails(uint _productId) public view returns(string, string, uint, uint, ProductStatus) {\r\n        uint productIndex = _productId - 1;\r\n\r\n        return ( products[productIndex].productName,\r\n                 products[productIndex].description,\r\n                 products[productIndex].price,\r\n                 products[productIndex].quantity,\r\n                 products[productIndex].status );\r\n    }\r\n\r\n    /**\r\n     * The shopper can buy this product using this function.\r\n     *   // owner.transfer( weiToTransfer );\r\n       // address(this).transfer( msg.value );\r\n       // owner.transfer( msg.value );\r\n    */\r\n    function buyProductFromStore(uint _productId, uint _quantity) public payable returns (bool){\r\n        uint productIndex = _productId - 1;\r\n        uint256 weiToTransfer = _quantity * products[productIndex].price;\r\n\r\n        require( products[productIndex].status == ProductStatus.ACTIVE, \"Only the active product can be bought!\");\r\n        require( owner != msg.sender, \"The owner cannot buy its own product!\");\r\n        require( _quantity <= products[productIndex].quantity, \"The store does not have sufficient quantity of the product\");\r\n        require( msg.value <= msg.sender.balance, \"The buyer does not have sufficient balance in his / her account!\");\r\n        require( msg.value == weiToTransfer, \"The supplied value is lesser than the actual price of the items!\");\r\n\r\n        //Reduce the corresponding quantity from the inventory\r\n        products[productIndex].quantity = products[productIndex].quantity - _quantity;\r\n\r\n        emit PurchaseOfProduct(_productId, _quantity, address(this), owner, msg.sender, msg.sender.balance, weiToTransfer);\r\n\r\n        // Transfer fund from the shopper's acount into the store's account\r\n        address myAddress = address(this);\r\n        myAddress.transfer( msg.value );\r\n\r\n        return true;\r\n    }\r\n\r\n    /**\r\n     * A store owner can withdraw fund from a given store\r\n    */\r\n    function withdrawFund(uint withdrawAmount) public payable onlyOwner returns(bool) {\r\n        require(address(this).balance >= withdrawAmount, \"The current store balance amount must be greater than the withdrawal amount!\");\r\n        owner.transfer(withdrawAmount);\r\n\r\n        return true;\r\n    }\r\n\r\n    /**\r\n    * Return the balance owned by this store\r\n    */\r\n    function getBalanceOfStore() constant public returns(uint){\r\n        return address(this).balance;\r\n    }\r\n\r\n}\r\n",
  "sourcePath": "C:\\xampp\\htdocs\\angular-truffle-onlineMkt\\contracts\\Store.sol",
  "compiler": {
    "name": "solc",
    "version": "0.4.24+commit.e67f0147.Emscripten.clang"
  },
  "schemaVersion": "2.0.1",
  "updatedAt": "2018-08-18T17:54:40.937Z"
}