{
  "contractName": "Store",
  "abi": [
    {
      "inputs": [
        {
          "name": "_storeName",
          "type": "string"
        },
        {
          "name": "_description",
          "type": "string"
        },
        {
          "name": "_storeId",
          "type": "uint256"
        },
        {
          "name": "_storeOwner",
          "type": "address"
        },
        {
          "name": "_eip20Token",
          "type": "address"
        }
      ],
      "payable": false,
      "stateMutability": "nonpayable",
      "type": "constructor"
    },
    {
      "payable": true,
      "stateMutability": "payable",
      "type": "fallback"
    },
    {
      "anonymous": false,
      "inputs": [
        {
          "indexed": false,
          "name": "productId",
          "type": "uint256"
        },
        {
          "indexed": false,
          "name": "productName",
          "type": "string"
        },
        {
          "indexed": false,
          "name": "description",
          "type": "string"
        },
        {
          "indexed": false,
          "name": "price",
          "type": "uint256"
        },
        {
          "indexed": false,
          "name": "quantity",
          "type": "uint256"
        }
      ],
      "name": "NewProduct",
      "type": "event"
    },
    {
      "anonymous": false,
      "inputs": [
        {
          "indexed": false,
          "name": "productId",
          "type": "uint256"
        },
        {
          "indexed": false,
          "name": "quantity",
          "type": "uint256"
        },
        {
          "indexed": false,
          "name": "storeAddress",
          "type": "address"
        },
        {
          "indexed": false,
          "name": "storeOwner",
          "type": "address"
        },
        {
          "indexed": false,
          "name": "buyerAddress",
          "type": "address"
        },
        {
          "indexed": false,
          "name": "senderBalance",
          "type": "uint256"
        },
        {
          "indexed": false,
          "name": "weiToTransfer",
          "type": "uint256"
        }
      ],
      "name": "PurchaseOfProduct",
      "type": "event"
    },
    {
      "anonymous": false,
      "inputs": [
        {
          "indexed": false,
          "name": "param1",
          "type": "address"
        },
        {
          "indexed": false,
          "name": "param2",
          "type": "address"
        },
        {
          "indexed": false,
          "name": "param3",
          "type": "string"
        }
      ],
      "name": "LogAsEvent",
      "type": "event"
    },
    {
      "constant": true,
      "inputs": [],
      "name": "getStoreDetails",
      "outputs": [
        {
          "name": "",
          "type": "address"
        },
        {
          "name": "",
          "type": "string"
        },
        {
          "name": "",
          "type": "uint256"
        },
        {
          "name": "",
          "type": "string"
        }
      ],
      "payable": false,
      "stateMutability": "view",
      "type": "function"
    },
    {
      "constant": false,
      "inputs": [
        {
          "name": "productName",
          "type": "string"
        },
        {
          "name": "productDesc",
          "type": "string"
        },
        {
          "name": "price",
          "type": "uint256"
        },
        {
          "name": "quantity",
          "type": "uint256"
        }
      ],
      "name": "addProductToTheStore",
      "outputs": [
        {
          "name": "",
          "type": "uint256"
        }
      ],
      "payable": false,
      "stateMutability": "nonpayable",
      "type": "function"
    },
    {
      "constant": false,
      "inputs": [
        {
          "name": "productId",
          "type": "uint256"
        },
        {
          "name": "productName",
          "type": "string"
        },
        {
          "name": "productDesc",
          "type": "string"
        },
        {
          "name": "price",
          "type": "uint256"
        },
        {
          "name": "quantity",
          "type": "uint256"
        }
      ],
      "name": "updateProduct",
      "outputs": [
        {
          "name": "",
          "type": "bool"
        }
      ],
      "payable": false,
      "stateMutability": "nonpayable",
      "type": "function"
    },
    {
      "constant": false,
      "inputs": [
        {
          "name": "_productId",
          "type": "uint256"
        }
      ],
      "name": "removeProduct",
      "outputs": [
        {
          "name": "",
          "type": "bool"
        }
      ],
      "payable": false,
      "stateMutability": "nonpayable",
      "type": "function"
    },
    {
      "constant": false,
      "inputs": [
        {
          "name": "_productId",
          "type": "uint256"
        }
      ],
      "name": "reActivateProduct",
      "outputs": [
        {
          "name": "",
          "type": "bool"
        }
      ],
      "payable": false,
      "stateMutability": "nonpayable",
      "type": "function"
    },
    {
      "constant": true,
      "inputs": [
        {
          "name": "activeOnlyFlag",
          "type": "bool"
        }
      ],
      "name": "getProducts",
      "outputs": [
        {
          "name": "",
          "type": "uint256[]"
        }
      ],
      "payable": false,
      "stateMutability": "view",
      "type": "function"
    },
    {
      "constant": true,
      "inputs": [
        {
          "name": "_productId",
          "type": "uint256"
        }
      ],
      "name": "getProductDetails",
      "outputs": [
        {
          "name": "",
          "type": "string"
        },
        {
          "name": "",
          "type": "string"
        },
        {
          "name": "",
          "type": "uint256"
        },
        {
          "name": "",
          "type": "uint256"
        },
        {
          "name": "",
          "type": "uint8"
        },
        {
          "name": "",
          "type": "uint256"
        }
      ],
      "payable": false,
      "stateMutability": "view",
      "type": "function"
    },
    {
      "constant": false,
      "inputs": [
        {
          "name": "_productId",
          "type": "uint256"
        },
        {
          "name": "_quantity",
          "type": "uint256"
        }
      ],
      "name": "buyProductFromStore",
      "outputs": [
        {
          "name": "",
          "type": "bool"
        }
      ],
      "payable": true,
      "stateMutability": "payable",
      "type": "function"
    },
    {
      "constant": false,
      "inputs": [
        {
          "name": "withdrawAmount",
          "type": "uint256"
        }
      ],
      "name": "withdrawFund",
      "outputs": [
        {
          "name": "",
          "type": "bool"
        }
      ],
      "payable": true,
      "stateMutability": "payable",
      "type": "function"
    },
    {
      "constant": true,
      "inputs": [],
      "name": "getBalanceOfStore",
      "outputs": [
        {
          "name": "",
          "type": "uint256"
        }
      ],
      "payable": false,
      "stateMutability": "view",
      "type": "function"
    }
  ],
  "bytecode": "0x60806040523480156200001157600080fd5b5060405162002a5f38038062002a5f8339810180604052810190808051820192919060200180518201929190602001805190602001909291908051906020019092919080519060200190929190505050816000806101000a81548173ffffffffffffffffffffffffffffffffffffffff021916908373ffffffffffffffffffffffffffffffffffffffff1602179055508460019080519060200190620000b992919062000136565b50826003819055508360029080519060200190620000d992919062000136565b506000600481905550600160058190555080600760006101000a81548173ffffffffffffffffffffffffffffffffffffffff021916908373ffffffffffffffffffffffffffffffffffffffff1602179055505050505050620001e5565b828054600181600116156101000203166002900490600052602060002090601f016020900481019282601f106200017957805160ff1916838001178555620001aa565b82800160010185558215620001aa579182015b82811115620001a95782518255916020019190600101906200018c565b5b509050620001b99190620001bd565b5090565b620001e291905b80821115620001de576000816000905550600101620001c4565b5090565b90565b61286a80620001f56000396000f3006080604052600436106100a4576000357c0100000000000000000000000000000000000000000000000000000000900463ffffffff1680630cee1725146100a65780635ee95cae146100de5780636813b53b146101235780637b2c5d131461025f5780639498be1b146102a4578063ce2d683f1461037b578063dbf5dcd9146103ff578063de0847301461042a578063f94eb1821461046c578063fe04eb2d14610551575b005b6100c460048036038101908080359060200190929190505050610687565b604051808215151515815260200191505060405180910390f35b3480156100ea57600080fd5b506101096004803603810190808035906020019092919050505061095d565b604051808215151515815260200191505060405180910390f35b34801561012f57600080fd5b5061014e60048036038101908080359060200190929190505050610b7d565b60405180806020018060200187815260200186815260200185600181111561017257fe5b60ff168152602001848152602001838103835289818151815260200191508051906020019080838360005b838110156101b857808201518184015260208101905061019d565b50505050905090810190601f1680156101e55780820380516001836020036101000a031916815260200191505b50838103825288818151815260200191508051906020019080838360005b8381101561021e578082015181840152602081019050610203565b50505050905090810190601f16801561024b5780820380516001836020036101000a031916815260200191505b509850505050505050505060405180910390f35b34801561026b57600080fd5b5061028a60048036038101908080359060200190929190505050610dad565b604051808215151515815260200191505060405180910390f35b3480156102b057600080fd5b50610365600480360381019080803590602001908201803590602001908080601f0160208091040260200160405190810160405280939291908181526020018383808284378201915050505050509192919290803590602001908201803590602001908080601f01602080910402602001604051908101604052809392919081815260200183838082843782019150505050505091929192908035906020019092919080359060200190929190505050610fcc565b6040518082815260200191505060405180910390f35b34801561038757600080fd5b506103a8600480360381019080803515159060200190929190505050611316565b6040518080602001828103825283818151815260200191508051906020019060200280838360005b838110156103eb5780820151818401526020810190506103d0565b505050509050019250505060405180910390f35b34801561040b57600080fd5b5061041461151e565b6040518082815260200191505060405180910390f35b610452600480360381019080803590602001909291908035906020019092919050505061153d565b604051808215151515815260200191505060405180910390f35b34801561047857600080fd5b5061053760048036038101908080359060200190929190803590602001908201803590602001908080601f0160208091040260200160405190810160405280939291908181526020018383808284378201915050505050509192919290803590602001908201803590602001908080601f016020809104026020016040519081016040528093929190818152602001838380828437820191505050505050919291929080359060200190929190803590602001909291905050506121db565b604051808215151515815260200191505060405180910390f35b34801561055d57600080fd5b50610566612475565b604051808573ffffffffffffffffffffffffffffffffffffffff1673ffffffffffffffffffffffffffffffffffffffff1681526020018060200184815260200180602001838103835286818151815260200191508051906020019080838360005b838110156105e25780820151818401526020810190506105c7565b50505050905090810190601f16801561060f5780820380516001836020036101000a031916815260200191505b50838103825284818151815260200191508051906020019080838360005b8381101561064857808201518184015260208101905061062d565b50505050905090810190601f1680156106755780820380516001836020036101000a031916815260200191505b50965050505050505060405180910390f35b60003373ffffffffffffffffffffffffffffffffffffffff166000809054906101000a900473ffffffffffffffffffffffffffffffffffffffff1673ffffffffffffffffffffffffffffffffffffffff16141515610773576040517f08c379a000000000000000000000000000000000000000000000000000000000815260040180806020018281038252602c8152602001807f4f6e6c7920612073746f7265206f776e65722063616e20696e766f6b6520746881526020017f69732066756e6374696f6e21000000000000000000000000000000000000000081525060400191505060405180910390fd5b600082111515610811576040517f08c379a000000000000000000000000000000000000000000000000000000000815260040180806020018281038252602f8152602001807f5468652077697468647277616c20616d6f756e74206d7573742062652061207081526020017f6f736974697665206e756d62657221000000000000000000000000000000000081525060400191505060405180910390fd5b813073ffffffffffffffffffffffffffffffffffffffff1631101515156108ec576040517f08c379a000000000000000000000000000000000000000000000000000000000815260040180806020018281038252604c8152602001807f5468652063757272656e742073746f72652062616c616e636520616d6f756e7481526020017f206d7573742062652067726561746572207468616e207468652077697468647281526020017f6177616c20616d6f756e7421000000000000000000000000000000000000000081525060600191505060405180910390fd5b6000809054906101000a900473ffffffffffffffffffffffffffffffffffffffff1673ffffffffffffffffffffffffffffffffffffffff166108fc839081150290604051600060405180830381858888f19350505050158015610953573d6000803e3d6000fd5b5060019050919050565b6000803373ffffffffffffffffffffffffffffffffffffffff166000809054906101000a900473ffffffffffffffffffffffffffffffffffffffff1673ffffffffffffffffffffffffffffffffffffffff16141515610a4a576040517f08c379a000000000000000000000000000000000000000000000000000000000815260040180806020018281038252602c8152602001807f4f6e6c7920612073746f7265206f776e65722063616e20696e766f6b6520746881526020017f69732066756e6374696f6e21000000000000000000000000000000000000000081525060400191505060405180910390fd5b60018303905060006001811115610a5d57fe5b600682815481101515610a6c57fe5b906000526020600020906007020160050160009054906101000a900460ff166001811115610a9657fe5b141515610b31576040517f08c379a00000000000000000000000000000000000000000000000000000000081526004018080602001828103825260398152602001807f4f6e6c7920746865206163746976652070726f647563742063616e206265206281526020017f652072656d6f7665642066726f6d207468652073746f7265210000000000000081525060400191505060405180910390fd5b6001600682815481101515610b4257fe5b906000526020600020906007020160050160006101000a81548160ff02191690836001811115610b6e57fe5b02179055506001915050919050565b6060806000806000806000600188039050600681815481101515610b9d57fe5b9060005260206000209060070201600101600682815481101515610bbd57fe5b9060005260206000209060070201600201600683815481101515610bdd57fe5b906000526020600020906007020160030154600684815481101515610bfe57fe5b906000526020600020906007020160040154600685815481101515610c1f57fe5b906000526020600020906007020160050160009054906101000a900460ff16600686815481101515610c4d57fe5b906000526020600020906007020160060154858054600181600116156101000203166002900480601f016020809104026020016040519081016040528092919081815260200182805460018160011615610100020316600290048015610cf45780601f10610cc957610100808354040283529160200191610cf4565b820191906000526020600020905b815481529060010190602001808311610cd757829003601f168201915b50505050509550848054600181600116156101000203166002900480601f016020809104026020016040519081016040528092919081815260200182805460018160011615610100020316600290048015610d905780601f10610d6557610100808354040283529160200191610d90565b820191906000526020600020905b815481529060010190602001808311610d7357829003601f168201915b505050505094509650965096509650965096505091939550919395565b6000803373ffffffffffffffffffffffffffffffffffffffff166000809054906101000a900473ffffffffffffffffffffffffffffffffffffffff1673ffffffffffffffffffffffffffffffffffffffff16141515610e9a576040517f08c379a000000000000000000000000000000000000000000000000000000000815260040180806020018281038252602c8152602001807f4f6e6c7920612073746f7265206f776e65722063616e20696e766f6b6520746881526020017f69732066756e6374696f6e21000000000000000000000000000000000000000081525060400191505060405180910390fd5b600183039050600180811115610eac57fe5b600682815481101515610ebb57fe5b906000526020600020906007020160050160009054906101000a900460ff166001811115610ee557fe5b141515610f80576040517f08c379a000000000000000000000000000000000000000000000000000000000815260040180806020018281038252602b8152602001807f4f6e6c792074686520496e6163746976652070726f647563742063616e20626581526020017f206163746976617465642100000000000000000000000000000000000000000081525060400191505060405180910390fd5b6000600682815481101515610f9157fe5b906000526020600020906007020160050160006101000a81548160ff02191690836001811115610fbd57fe5b02179055506001915050919050565b6000803373ffffffffffffffffffffffffffffffffffffffff166000809054906101000a900473ffffffffffffffffffffffffffffffffffffffff1673ffffffffffffffffffffffffffffffffffffffff161415156110b9576040517f08c379a000000000000000000000000000000000000000000000000000000000815260040180806020018281038252602c8152602001807f4f6e6c7920612073746f7265206f776e65722063616e20696e766f6b6520746881526020017f69732066756e6374696f6e21000000000000000000000000000000000000000081525060400191505060405180910390fd5b600a905060016006818180549050019150816110d5919061262c565b5060e06040519081016040528060055481526020018781526020018681526020018581526020018481526020016000600181111561110f57fe5b815260200182815250600660045481548110151561112957fe5b906000526020600020906007020160008201518160000155602082015181600101908051906020019061115d92919061265e565b50604082015181600201908051906020019061117a92919061265e565b50606082015181600301556080820151816004015560a08201518160050160006101000a81548160ff021916908360018111156111b357fe5b021790555060c082015181600601559050507fc86b920148e151a78e4a627284a763302c966579a89be8494ba9562ac1f61b7b60055487878787604051808681526020018060200180602001858152602001848152602001838103835287818151815260200191508051906020019080838360005b83811015611243578082015181840152602081019050611228565b50505050905090810190601f1680156112705780820380516001836020036101000a031916815260200191505b50838103825286818151815260200191508051906020019080838360005b838110156112a957808201518184015260208101905061128e565b50505050905090810190601f1680156112d65780820380516001836020036101000a031916815260200191505b5097505050505050505060405180910390a16004600081548092919060010191905055506005600081548092919060010191905055915050949350505050565b6060600080606060008093506001151586151514156113ae57600092505b6006805490508360ff1610156113a9576000600181111561135157fe5b60068460ff1681548110151561136357fe5b906000526020600020906007020160050160009054906101000a900460ff16600181111561138d57fe5b141561139c5783806001019450505b8280600101935050611334565b6113b7565b60068054905093505b836040519080825280602002602001820160405280156113e65781602001602082028038833980820191505090505b50915060008411156115125760009050600092505b6006805490508360ff161015611511576001151586151514156114b8576000600181111561142557fe5b60068460ff1681548110151561143757fe5b906000526020600020906007020160050160009054906101000a900460ff16600181111561146157fe5b14156114b35760068360ff1681548110151561147957fe5b906000526020600020906007020160000154828260ff1681518110151561149c57fe5b906020019060200201818152505080806001019150505b611504565b60068360ff168154811015156114ca57fe5b906000526020600020906007020160000154828260ff168151811015156114ed57fe5b906020019060200201818152505080806001019150505b82806001019350506113fb565b5b81945050505050919050565b60003073ffffffffffffffffffffffffffffffffffffffff1631905090565b600080600080600080600060018903955060068681548110151561155d57fe5b906000526020600020906007020160030154880294506000600181111561158057fe5b60068781548110151561158f57fe5b906000526020600020906007020160050160009054906101000a900460ff1660018111156115b957fe5b141515611654576040517f08c379a00000000000000000000000000000000000000000000000000000000081526004018080602001828103825260268152602001807f4f6e6c7920746865206163746976652070726f647563742063616e206265206281526020017f6f7567687421000000000000000000000000000000000000000000000000000081525060400191505060405180910390fd5b3373ffffffffffffffffffffffffffffffffffffffff166000809054906101000a900473ffffffffffffffffffffffffffffffffffffffff1673ffffffffffffffffffffffffffffffffffffffff161415151561173f576040517f08c379a00000000000000000000000000000000000000000000000000000000081526004018080602001828103825260258152602001807f546865206f776e65722063616e6e6f742062757920697473206f776e2070726f81526020017f647563742100000000000000000000000000000000000000000000000000000081525060400191505060405180910390fd5b60068681548110151561174e57fe5b90600052602060002090600702016004015488111515156117fd576040517f08c379a000000000000000000000000000000000000000000000000000000000815260040180806020018281038252603a8152602001807f5468652073746f726520646f6573206e6f74206861766520737566666963696581526020017f6e74207175616e74697479206f66207468652070726f6475637400000000000081525060400191505060405180910390fd5b3373ffffffffffffffffffffffffffffffffffffffff163134111515156118b2576040517f08c379a00000000000000000000000000000000000000000000000000000000081526004018080602001828103825260408152602001807f54686520627579657220646f6573206e6f74206861766520737566666963696581526020017f6e742062616c616e636520696e20686973202f20686572206163636f756e742181525060400191505060405180910390fd5b876006878154811015156118c257fe5b906000526020600020906007020160040154036006878154811015156118e457fe5b9060005260206000209060070201600401819055507f781f13430da3033909b5c9de8541109172e3f02dca16b4b18f489592e4f11af08989306000809054906101000a900473ffffffffffffffffffffffffffffffffffffffff16333373ffffffffffffffffffffffffffffffffffffffff16318b604051808881526020018781526020018673ffffffffffffffffffffffffffffffffffffffff1673ffffffffffffffffffffffffffffffffffffffff1681526020018573ffffffffffffffffffffffffffffffffffffffff1673ffffffffffffffffffffffffffffffffffffffff1681526020018473ffffffffffffffffffffffffffffffffffffffff1673ffffffffffffffffffffffffffffffffffffffff16815260200183815260200182815260200197505050505050505060405180910390a1600093506000600760009054906101000a900473ffffffffffffffffffffffffffffffffffffffff1673ffffffffffffffffffffffffffffffffffffffff166370a08231336040518263ffffffff167c0100000000000000000000000000000000000000000000000000000000028152600401808273ffffffffffffffffffffffffffffffffffffffff1673ffffffffffffffffffffffffffffffffffffffff168152602001915050602060405180830381600087803b158015611adf57600080fd5b505af1158015611af3573d6000803e3d6000fd5b505050506040513d6020811015611b0957600080fd5b81019080805190602001909291905050501115611ff3576509184e72a000600760009054906101000a900473ffffffffffffffffffffffffffffffffffffffff1673ffffffffffffffffffffffffffffffffffffffff166370a08231336040518263ffffffff167c0100000000000000000000000000000000000000000000000000000000028152600401808273ffffffffffffffffffffffffffffffffffffffff1673ffffffffffffffffffffffffffffffffffffffff168152602001915050602060405180830381600087803b158015611be457600080fd5b505af1158015611bf8573d6000803e3d6000fd5b505050506040513d6020811015611c0e57600080fd5b81019080805190602001909291905050500292508483111515611e8057829350600760009054906101000a900473ffffffffffffffffffffffffffffffffffffffff1673ffffffffffffffffffffffffffffffffffffffff166323b872dd336000809054906101000a900473ffffffffffffffffffffffffffffffffffffffff16600760009054906101000a900473ffffffffffffffffffffffffffffffffffffffff1673ffffffffffffffffffffffffffffffffffffffff166370a08231336040518263ffffffff167c0100000000000000000000000000000000000000000000000000000000028152600401808273ffffffffffffffffffffffffffffffffffffffff1673ffffffffffffffffffffffffffffffffffffffff168152602001915050602060405180830381600087803b158015611d4c57600080fd5b505af1158015611d60573d6000803e3d6000fd5b505050506040513d6020811015611d7657600080fd5b81019080805190602001909291905050506040518463ffffffff167c0100000000000000000000000000000000000000000000000000000000028152600401808473ffffffffffffffffffffffffffffffffffffffff1673ffffffffffffffffffffffffffffffffffffffff1681526020018373ffffffffffffffffffffffffffffffffffffffff1673ffffffffffffffffffffffffffffffffffffffff1681526020018281526020019350505050602060405180830381600087803b158015611e3f57600080fd5b505af1158015611e53573d6000803e3d6000fd5b505050506040513d6020811015611e6957600080fd5b810190808051906020019092919050505050611ff2565b849350600760009054906101000a900473ffffffffffffffffffffffffffffffffffffffff1673ffffffffffffffffffffffffffffffffffffffff166323b872dd336000809054906101000a900473ffffffffffffffffffffffffffffffffffffffff16611efd6509184e72a0008a6125ec90919063ffffffff16565b6040518463ffffffff167c0100000000000000000000000000000000000000000000000000000000028152600401808473ffffffffffffffffffffffffffffffffffffffff1673ffffffffffffffffffffffffffffffffffffffff1681526020018373ffffffffffffffffffffffffffffffffffffffff1673ffffffffffffffffffffffffffffffffffffffff1681526020018281526020019350505050602060405180830381600087803b158015611fb557600080fd5b505af1158015611fc9573d6000803e3d6000fd5b505050506040513d6020811015611fdf57600080fd5b8101908080519060200190929190505050505b5b612006848661261090919063ffffffff16565b91506000821115612015573090505b600060068781548110151561202657fe5b90600052602060002090600702016006015411156121cb57600760009054906101000a900473ffffffffffffffffffffffffffffffffffffffff1673ffffffffffffffffffffffffffffffffffffffff166323b872dd6000809054906101000a900473ffffffffffffffffffffffffffffffffffffffff163360646509184e72a0000260068b8154811015156120b857fe5b9060005260206000209060070201600601548a028115156120d557fe5b046040518463ffffffff167c0100000000000000000000000000000000000000000000000000000000028152600401808473ffffffffffffffffffffffffffffffffffffffff1673ffffffffffffffffffffffffffffffffffffffff1681526020018373ffffffffffffffffffffffffffffffffffffffff1673ffffffffffffffffffffffffffffffffffffffff1681526020018281526020019350505050602060405180830381600087803b15801561218e57600080fd5b505af11580156121a2573d6000803e3d6000fd5b505050506040513d60208110156121b857600080fd5b8101908080519060200190929190505050505b6001965050505050505092915050565b6000803373ffffffffffffffffffffffffffffffffffffffff166000809054906101000a900473ffffffffffffffffffffffffffffffffffffffff1673ffffffffffffffffffffffffffffffffffffffff161415156122c8576040517f08c379a000000000000000000000000000000000000000000000000000000000815260040180806020018281038252602c8152602001807f4f6e6c7920612073746f7265206f776e65722063616e20696e766f6b6520746881526020017f69732066756e6374696f6e21000000000000000000000000000000000000000081525060400191505060405180910390fd5b60018703905060006006828154811015156122df57fe5b906000526020600020906007020160000154141515156123b3576040517f08c379a00000000000000000000000000000000000000000000000000000000081526004018080602001828103825260498152602001807f50726f6475637420666f722074686520676976656e2073746f7265206964206181526020017f6e642070726f6475637420696420636f6d62696e6174696f6e20646f6573206e81526020017f6f7420657869737421000000000000000000000000000000000000000000000081525060600191505060405180910390fd5b856006828154811015156123c357fe5b906000526020600020906007020160010190805190602001906123e79291906126de565b50846006828154811015156123f857fe5b9060005260206000209060070201600201908051906020019061241c9291906126de565b508360068281548110151561242d57fe5b9060005260206000209060070201600301819055508260068281548110151561245257fe5b906000526020600020906007020160040181905550600191505095945050505050565b60006060600060606000809054906101000a900473ffffffffffffffffffffffffffffffffffffffff1660016003546002828054600181600116156101000203166002900480601f01602080910402602001604051908101604052809291908181526020018280546001816001161561010002031660029004801561253b5780601f106125105761010080835404028352916020019161253b565b820191906000526020600020905b81548152906001019060200180831161251e57829003601f168201915b50505050509250808054600181600116156101000203166002900480601f0160208091040260200160405190810160405280929190818152602001828054600181600116156101000203166002900480156125d75780601f106125ac576101008083540402835291602001916125d7565b820191906000526020600020905b8154815290600101906020018083116125ba57829003601f168201915b50505050509050935093509350935090919293565b600080821115156125fc57600080fd5b818381151561260757fe5b04905092915050565b600082821115151561262157600080fd5b818303905092915050565b81548183558181111561265957600702816007028360005260206000209182019101612658919061275e565b5b505050565b828054600181600116156101000203166002900490600052602060002090601f016020900481019282601f1061269f57805160ff19168380011785556126cd565b828001600101855582156126cd579182015b828111156126cc5782518255916020019190600101906126b1565b5b5090506126da91906127d1565b5090565b828054600181600116156101000203166002900490600052602060002090601f016020900481019282601f1061271f57805160ff191683800117855561274d565b8280016001018555821561274d579182015b8281111561274c578251825591602001919060010190612731565b5b50905061275a91906127d1565b5090565b6127ce91905b808211156127ca5760008082016000905560018201600061278591906127f6565b60028201600061279591906127f6565b600382016000905560048201600090556005820160006101000a81549060ff0219169055600682016000905550600701612764565b5090565b90565b6127f391905b808211156127ef5760008160009055506001016127d7565b5090565b90565b50805460018160011615610100020316600290046000825580601f1061281c575061283b565b601f01602090049060005260206000209081019061283a91906127d1565b5b505600a165627a7a72305820c3ee41c041a2f6e63dae12b1d68bf646c8262a457fe2c60424eb49e3fde17f7f0029",
  "source": "pragma solidity ^0.4.22;\r\n\r\nimport \"./EIP20.sol\";\r\n\r\n/**\r\n * This contract will create all the functionalities related to a store.\r\n *\r\n * For example\r\n * - Adding a product\r\n * - updating a product\r\n * - customer being able to view the list of stores\r\n * - store owner being able to see the stores\r\n * - customer being able to view the products in a given Store\r\n *\r\n * BP2: Restricting Access:\r\n *  - Restrict other contracts access to the state by making all the state variables private.\r\n*/\r\ncontract Store {\r\n    using SafeMath for uint256;\r\n\r\n    // Onwer is the actual store owner who is creating the store.\r\n    address private owner;\r\n    string private storeName;\r\n    string private description;\r\n    uint private storeId;\r\n    uint private productCount;\r\n    uint private nextProductId;\r\n    Product[] private products;\r\n    EIP20 private eip20Token;\r\n\r\n    /**\r\n    * At some stage we can oraclize the token price. However, for now let's consider this\r\n    * for the sake of any calculation.\r\n    */\r\n    uint256 constant private tokenPriceInWei = 10000000000000;\r\n\r\n    enum ProductStatus {\r\n        ACTIVE,\r\n        REMOVED\r\n    }\r\n\r\n    struct Product {\r\n        uint productId;\r\n        string productName;\r\n        string description;\r\n        uint price;\r\n        uint quantity;\r\n        ProductStatus status;\r\n        uint256 discountPercentage;\r\n    }\r\n\r\n    event NewProduct(\r\n      uint productId,\r\n      string productName,\r\n      string description,\r\n      uint price,\r\n      uint quantity\r\n      );\r\n\r\n    event PurchaseOfProduct(\r\n        uint productId,\r\n        uint quantity,\r\n        address storeAddress,\r\n        address storeOwner,\r\n        address buyerAddress,\r\n        uint senderBalance,\r\n        uint weiToTransfer\r\n      );\r\n\r\n    event LogAsEvent(address param1, address param2, string param3);\r\n    /**\r\n    * @dev Creates a Store Contract which holds the associated products and the balance corresponding to the\r\n    *      sales of such products.\r\n    * @param _storeName - the name of the stores\r\n    * @param _description - the description about the stores\r\n    * @param _storeId - the store id of the store, which will be unique across the market place\r\n    * @param _storeOwner - the actual owner of the store (will be an externally owned accounts)\r\n    */\r\n    constructor(\r\n            string _storeName,\r\n            string _description,\r\n            uint _storeId,\r\n            address _storeOwner,\r\n            EIP20 _eip20Token ) public {\r\n\r\n        owner = _storeOwner;\r\n        storeName = _storeName;\r\n        storeId = _storeId;\r\n        description = _description;\r\n        productCount = 0;\r\n        nextProductId = 1;\r\n        eip20Token = _eip20Token;\r\n    }\r\n\r\n    /**\r\n    * Since this contract needs to accept ether, declare an anonymous payable function.\r\n    */\r\n    function() public payable { }\r\n\r\n    /**\r\n     * Only (store) owners shall be allowed to add or update the store specific details - e.g. product.\r\n     *\r\n    */\r\n    modifier onlyOwner {\r\n        require( (owner == msg.sender), \"Only a store owner can invoke this function!\");\r\n        _;\r\n    }\r\n\r\n    /**\r\n    * A function to return the state details for a given store contract\r\n    * @return a list of values with the following details\r\n    *   - Owner Address\r\n    *   - Store name\r\n    *   - Store identifier\r\n    *   - Store description\r\n    */\r\n    function getStoreDetails() public view returns( address, string, uint, string ) {\r\n      return (owner, storeName, storeId, description);\r\n    }\r\n\r\n     /**\r\n     * A store owner will use this function to add a new product to his / her store.\r\n     *\r\n     * Whenever a new product is added, the product map will be updated to hold all the product and their details\r\n     * across all the store and store owners.\r\n     *\r\n     * TODO: Add expiry feature and use the Auto Deprecation pattern to expire a product. Also, implement the use case\r\n     *      that will prevent the shoppers from buying an expired product!\r\n     *\r\n    */\r\n    function addProductToTheStore(\r\n            string productName,\r\n            string productDesc,\r\n            uint price,\r\n            uint quantity ) public onlyOwner returns(uint) {\r\n\r\n            uint256 discountPercentage = 10;\r\n            products.length += 1;\r\n\r\n            products[productCount] = Product(\r\n                nextProductId,\r\n                productName,\r\n                productDesc,\r\n                price,\r\n                quantity,\r\n                ProductStatus.ACTIVE,\r\n                discountPercentage );\r\n\r\n            emit NewProduct(\r\n              nextProductId,\r\n              productName,\r\n              productDesc,\r\n              price,\r\n              quantity\r\n              );\r\n\r\n            productCount++;\r\n\r\n            return nextProductId++;\r\n    }\r\n\r\n    /**\r\n     * The update product function will be called to update the details of an existing function.\r\n     *\r\n     * In a regular course of a business, the following amounts may get updated.\r\n     * - quantity\r\n     * - productName\r\n     * - price\r\n     * - description\r\n     *\r\n     * TODO : Add an additional parameter for discountPercentage\r\n     *\r\n    */\r\n    function updateProduct(\r\n            uint productId,\r\n            string productName,\r\n            string productDesc,\r\n            uint price,\r\n            uint quantity ) public onlyOwner returns(bool) {\r\n        uint productIndex = productId - 1;\r\n        require( products[productIndex].productId != 0 , \"Product for the given store id and product id combination does not exist!\");\r\n\r\n        products[productIndex].productName = productName;\r\n        products[productIndex].description = productDesc;\r\n        products[productIndex].price = price;\r\n        products[productIndex].quantity = quantity;\r\n\r\n        return true;\r\n    }\r\n\r\n    /**\r\n     * A store owner can decide to remove a product from his/her store.\r\n     * A removed product will not be visible to shoppers!\r\n     *\r\n    */\r\n    function removeProduct(uint _productId ) public onlyOwner returns(bool){\r\n        uint productIndex = _productId - 1;\r\n\r\n        require( products[productIndex].status == ProductStatus.ACTIVE, \"Only the active product can be be removed from the store!\");\r\n        products[productIndex].status = ProductStatus.REMOVED;\r\n\r\n        return true;\r\n    }\r\n\r\n    /**\r\n     * A store owner can decide to remove a product from his/her store.\r\n     * A removed product will not be visible to shoppers!\r\n     *\r\n    */\r\n    function reActivateProduct(uint _productId ) public onlyOwner returns(bool){\r\n        uint productIndex = _productId - 1;\r\n\r\n        require( products[productIndex].status == ProductStatus.REMOVED, \"Only the Inactive product can be activated!\");\r\n        products[productIndex].status = ProductStatus.ACTIVE;\r\n\r\n        return true;\r\n    }\r\n\r\n    /**\r\n    * getProducts will return all the products of this store.\r\n    */\r\n    function getProducts( bool activeOnlyFlag ) public view returns( uint[] ) {\r\n\r\n      uint numOfProducts = 0;\r\n\r\n      if ( activeOnlyFlag == true) {\r\n        for (uint8 prodCount=0; prodCount<products.length; prodCount++) {\r\n            if (products[prodCount].status == ProductStatus.ACTIVE) {\r\n                numOfProducts++;\r\n            }\r\n        }\r\n      } else {\r\n        numOfProducts = products.length;\r\n      }\r\n\r\n\r\n      uint[] memory productIds = new uint[](numOfProducts);\r\n\r\n      if ( numOfProducts > 0 ) {\r\n\r\n        uint8 tmpCount = 0;\r\n\r\n        for (prodCount=0; prodCount<products.length; prodCount++) {\r\n            if ( activeOnlyFlag == true ) {\r\n              if (products[prodCount].status == ProductStatus.ACTIVE) {\r\n                productIds[tmpCount] = products[prodCount].productId;\r\n                tmpCount++;\r\n              }\r\n            } else {\r\n              productIds[tmpCount] = products[prodCount].productId;\r\n              tmpCount++;\r\n            }\r\n\r\n        }\r\n      }\r\n\r\n      return productIds;\r\n    }\r\n\r\n\r\n    /*\r\n    * For a given product identifier of the store, this method will return the product details.\r\n    */\r\n    function getProductDetails(uint _productId) public view returns(string, string, uint, uint, ProductStatus, uint256 ) {\r\n        uint productIndex = _productId - 1;\r\n\r\n        return ( products[productIndex].productName,\r\n                 products[productIndex].description,\r\n                 products[productIndex].price,\r\n                 products[productIndex].quantity,\r\n                 products[productIndex].status,\r\n                 products[productIndex].discountPercentage );\r\n    }\r\n\r\n    /**\r\n     * The shopper can buy this product using this function.\r\n     *   // owner.transfer( weiToTransfer );\r\n       // address(this).transfer( msg.value );\r\n       // owner.transfer( msg.value );\r\n    */\r\n    function buyProductFromStore(uint _productId, uint _quantity) public payable returns (bool){\r\n        uint productIndex = _productId - 1;\r\n        uint256 weiToTransfer = _quantity * products[productIndex].price;\r\n\r\n        require( products[productIndex].status == ProductStatus.ACTIVE, \"Only the active product can be bought!\");\r\n        require( owner != msg.sender, \"The owner cannot buy its own product!\");\r\n        require( _quantity <= products[productIndex].quantity, \"The store does not have sufficient quantity of the product\");\r\n        require( msg.value <= msg.sender.balance, \"The buyer does not have sufficient balance in his / her account!\");\r\n        // require( msg.value == weiToTransfer, \"The supplied value is lesser than the actual price of the items!\");\r\n\r\n        //Reduce the corresponding quantity from the inventory\r\n        products[productIndex].quantity = products[productIndex].quantity - _quantity;\r\n\r\n        emit PurchaseOfProduct(_productId, _quantity, address(this), owner, msg.sender, msg.sender.balance, weiToTransfer);\r\n\r\n        // Redeem tokens by transferring the equivalent amount of tokens to the store owners\r\n        uint256 discountValue = 0;\r\n\r\n        if (eip20Token.balanceOf(msg.sender) > 0) {\r\n          uint256 tokenValue = eip20Token.balanceOf(msg.sender) * tokenPriceInWei;\r\n\r\n          if ( tokenValue <= weiToTransfer ) {\r\n            // Transfer all the tokens of the shopper to the store owner and\r\n            // set the discounted value to be same as the token values\r\n            discountValue = tokenValue;\r\n            eip20Token.transferFrom( msg.sender, owner, eip20Token.balanceOf(msg.sender) );\r\n          } else {\r\n            discountValue = weiToTransfer;\r\n            eip20Token.transferFrom( msg.sender, owner, weiToTransfer.div(tokenPriceInWei) );\r\n          }\r\n        }\r\n\r\n        // Transfer fund from the shopper's acount into the store's account\r\n        uint256 finalAmountToBePaid = weiToTransfer.sub(discountValue);\r\n        if ( finalAmountToBePaid > 0 ) {\r\n          address myAddress = address(this);\r\n        //  myAddress.transfer( finalAmountToBePaid );\r\n        }\r\n\r\n        // Transfer loyalty tokens to the shoppers\r\n        if ( products[productIndex].discountPercentage > 0 ) {\r\n          eip20Token.transferFrom( owner,\r\n                                   msg.sender,\r\n                                   (weiToTransfer * products[productIndex].discountPercentage) / (tokenPriceInWei * 100)\r\n                                 );\r\n        }\r\n\r\n\r\n        return true;\r\n    }\r\n\r\n    /**\r\n     * A store owner can withdraw fund from a given store\r\n     *\r\n     * BP1: Fail early and fail loud\r\n     *  - Fail early and fail loud pattern has been used to ensure that zero amount withdrwal doesn't take place.\r\n    */\r\n    function withdrawFund(uint withdrawAmount) public payable onlyOwner returns(bool) {\r\n        require(withdrawAmount > 0, \"The withdrwal amount must be a positive number!\");\r\n        require(address(this).balance >= withdrawAmount, \"The current store balance amount must be greater than the withdrawal amount!\");\r\n        owner.transfer(withdrawAmount);\r\n\r\n        return true;\r\n    }\r\n\r\n    /**\r\n    * Return the balance owned by this store\r\n    */\r\n    function getBalanceOfStore() constant public returns(uint){\r\n        return address(this).balance;\r\n    }\r\n\r\n}\r\n",
  "sourcePath": "C:\\xampp\\htdocs\\angular-truffle-onlineMkt\\contracts\\Store.sol",
  "compiler": {
    "name": "solc",
    "version": "0.4.24+commit.e67f0147.Emscripten.clang"
  },
  "schemaVersion": "2.0.1",
  "updatedAt": "2018-08-25T11:54:50.690Z"
}