{
  "contractName": "Utils",
  "abi": [
    {
      "constant": true,
      "inputs": [
        {
          "name": "arrayOfEntities",
          "type": "address[]"
        },
        {
          "name": "entity",
          "type": "address"
        }
      ],
      "name": "existInTheArray",
      "outputs": [
        {
          "name": "",
          "type": "bool"
        }
      ],
      "payable": false,
      "stateMutability": "pure",
      "type": "function"
    }
  ],
  "bytecode": "0x610198610030600b82828239805160001a6073146000811461002057610022565bfe5b5030600052607381538281f3007300000000000000000000000000000000000000003014608060405260043610610058576000357c0100000000000000000000000000000000000000000000000000000000900463ffffffff168063cd817f4b1461005d575b600080fd5b6100d460048036038101908080359060200190820180359060200190808060200260200160405190810160405280939291908181526020018383602002808284378201915050505050509192919290803573ffffffffffffffffffffffffffffffffffffffff1690602001909291905050506100ee565b604051808215151515815260200191505060405180910390f35b600080600090505b8351811015610160578273ffffffffffffffffffffffffffffffffffffffff16848281518110151561012457fe5b9060200190602002015173ffffffffffffffffffffffffffffffffffffffff1614156101535760019150610165565b80806001019150506100f6565b600091505b50929150505600a165627a7a723058205471b8ccaf71f5c674050cfa89aa3efe2185a41cd1715944b8f778199bcab6670029",
  "source": "pragma solidity ^0.4.20;\r\n\r\nlibrary Utils {\r\n    /**\r\n     * Move this function into a library and call that library in this contract\r\n    */\r\n    function existInTheArray(address[] arrayOfEntities, address entity) public pure returns(bool) {\r\n\r\n        for (uint arrayIndex = 0; arrayIndex < arrayOfEntities.length; arrayIndex++) {\r\n            if ( arrayOfEntities[arrayIndex] == entity ) {\r\n                return true;\r\n            }\r\n        }\r\n\r\n        return false;\r\n    }\r\n}\r\n",
  "sourcePath": "C:\\xampp\\htdocs\\angular-truffle-onlineMkt\\contracts\\Utils.sol",
  "compiler": {
    "name": "solc",
    "version": "0.4.24+commit.e67f0147.Emscripten.clang"
  },
  "schemaVersion": "2.0.1",
  "updatedAt": "2018-08-07T11:58:41.859Z"
}